{
	"data": {
		"bytecode": {
			"linkReferences": {},
			"object": "608060405262278d00600f55348015610016575f80fd5b50604051613d69380380613d6983398181016040528101906100389190610342565b335f73ffffffffffffffffffffffffffffffffffffffff168173ffffffffffffffffffffffffffffffffffffffff16036100a9575f6040517f1e4fbdf70000000000000000000000000000000000000000000000000000000081526004016100a091906103c8565b60405180910390fd5b6100b88161022360201b60201c565b505f8060146101000a81548160ff021916908315150217905550600180819055508460065f6101000a81548173ffffffffffffffffffffffffffffffffffffffff021916908373ffffffffffffffffffffffffffffffffffffffff1602179055508360075f6101000a81548173ffffffffffffffffffffffffffffffffffffffff021916908373ffffffffffffffffffffffffffffffffffffffff1602179055508260085f6101000a81548173ffffffffffffffffffffffffffffffffffffffff021916908373ffffffffffffffffffffffffffffffffffffffff1602179055508160095f6101000a81548173ffffffffffffffffffffffffffffffffffffffff021916908373ffffffffffffffffffffffffffffffffffffffff16021790555080600a5f6101000a81548173ffffffffffffffffffffffffffffffffffffffff021916908373ffffffffffffffffffffffffffffffffffffffff16021790555050505050506103e1565b5f805f9054906101000a900473ffffffffffffffffffffffffffffffffffffffff169050815f806101000a81548173ffffffffffffffffffffffffffffffffffffffff021916908373ffffffffffffffffffffffffffffffffffffffff1602179055508173ffffffffffffffffffffffffffffffffffffffff168173ffffffffffffffffffffffffffffffffffffffff167f8be0079c531659141344cd1fd0a4f28419497f9722a3daafe3b4186f6b6457e060405160405180910390a35050565b5f80fd5b5f73ffffffffffffffffffffffffffffffffffffffff82169050919050565b5f610311826102e8565b9050919050565b61032181610307565b811461032b575f80fd5b50565b5f8151905061033c81610318565b92915050565b5f805f805f60a0868803121561035b5761035a6102e4565b5b5f6103688882890161032e565b95505060206103798882890161032e565b945050604061038a8882890161032e565b935050606061039b8882890161032e565b92505060806103ac8882890161032e565b9150509295509295909350565b6103c281610307565b82525050565b5f6020820190506103db5f8301846103b9565b92915050565b61397b806103ee5f395ff3fe6080604052600436106102cb575f3560e01c80637031997011610174578063c7acd8fb116100db578063ec691a5911610094578063f2fa73921161006e578063f2fa739214610abe578063f2fde38b14610ae6578063fd4fe8a814610b0e578063ff4884f814610b36576102d2565b8063ec691a5914610a32578063eefeb7bc14610a5a578063f140b55f14610a82576102d2565b8063c7acd8fb14610916578063ce1a52d214610952578063d5b9221b1461097c578063d9ce7b95146109b8578063dbd15d53146109e0578063e482936914610a0a576102d2565b80638456cb591161012d5780638456cb59146108205780638da5cb5b14610836578063a4198fa214610860578063a951583b14610888578063ac581b3a146108b0578063b5af090f146108da576102d2565b80637031997014610738578063714c539814610762578063715018a61461078c578063723ff2a2146107a257806377191a6e146107cc57806381b539b8146107f6576102d2565b80633cd7bc95116102335780635c975abb116101ec57806362f0bdde116101c657806362f0bdde1461066c57806366d0ead3146106965780636c0360eb146106d25780636cf563a4146106fc576102d2565b80635c975abb146105f25780635fd610201461061c5780636247f6f214610644576102d2565b80633cd7bc95146104fc5780633f4ba83a1461052657806346d5397c1461053c5780634da6840a14610566578063533761fe146105a257806355f804b3146105ca576102d2565b80632fb92c5a116102855780632fb92c5a146103e25780632fda23b71461040a578063306275be14610446578063358d96ab1461046e5780633684d1001461049657806337d7d542146104c0576102d2565b806208ac83146102d6578063088b9554146102fe57806309da4e51146103285780630b1b745e146103525780630c5d8da11461038e5780631c8370cb146103b8576102d2565b366102d257005b5f80fd5b3480156102e1575f80fd5b506102fc60048036038101906102f791906126aa565b610b5e565b005b348015610309575f80fd5b50610312610cce565b60405161031f91906126f7565b60405180910390f35b348015610333575f80fd5b5061033c610cf6565b604051610349919061276b565b60405180910390f35b34801561035d575f80fd5b5061037860048036038101906103739190612784565b610d1b565b60405161038591906126f7565b60405180910390f35b348015610399575f80fd5b506103a2610d4b565b6040516103af91906127cf565b60405180910390f35b3480156103c3575f80fd5b506103cc610d70565b6040516103d99190612808565b60405180910390f35b3480156103ed575f80fd5b5061040860048036038101906104039190612784565b610d95565b005b348015610415575f80fd5b50610430600480360381019061042b9190612add565b610e4e565b60405161043d9190612ba9565b60405180910390f35b348015610451575f80fd5b5061046c60048036038101906104679190612784565b610f8d565b005b348015610479575f80fd5b50610494600480360381019061048f9190612784565b6110e3565b005b3480156104a1575f80fd5b506104aa6111d3565b6040516104b79190612be9565b60405180910390f35b3480156104cb575f80fd5b506104e660048036038101906104e19190612784565b6111f8565b6040516104f39190612cb9565b60405180910390f35b348015610507575f80fd5b506105106112c0565b60405161051d9190612cf9565b60405180910390f35b348015610531575f80fd5b5061053a6112e5565b005b348015610547575f80fd5b506105506112f7565b60405161055d91906126f7565b60405180910390f35b348015610571575f80fd5b5061058c60048036038101906105879190612d12565b61131c565b60405161059991906126f7565b60405180910390f35b3480156105ad575f80fd5b506105c860048036038101906105c39190612d50565b611364565b005b3480156105d5575f80fd5b506105f060048036038101906105eb9190612d7b565b6113ef565b005b3480156105fd575f80fd5b5061060661140a565b6040516106139190612ddc565b60405180910390f35b348015610627575f80fd5b50610642600480360381019061063d9190612784565b61141f565b005b34801561064f575f80fd5b5061066a60048036038101906106659190612784565b6114d8565b005b348015610677575f80fd5b5061068061162e565b60405161068d91906126f7565b60405180910390f35b3480156106a1575f80fd5b506106bc60048036038101906106b79190612784565b611656565b6040516106c99190612ddc565b60405180910390f35b3480156106dd575f80fd5b506106e66116a8565b6040516106f39190612ba9565b60405180910390f35b348015610707575f80fd5b50610722600480360381019061071d9190612784565b611734565b60405161072f9190612ddc565b60405180910390f35b348015610743575f80fd5b5061074c611786565b6040516107599190612e15565b60405180910390f35b34801561076d575f80fd5b506107766117ab565b6040516107839190612ba9565b60405180910390f35b348015610797575f80fd5b506107a061183b565b005b3480156107ad575f80fd5b506107b661184e565b6040516107c39190612e3d565b60405180910390f35b3480156107d7575f80fd5b506107e0611854565b6040516107ed91906126f7565b60405180910390f35b348015610801575f80fd5b5061080a61187c565b60405161081791906126f7565b60405180910390f35b34801561082b575f80fd5b506108346118a4565b005b348015610841575f80fd5b5061084a6118b6565b60405161085791906126f7565b60405180910390f35b34801561086b575f80fd5b5061088660048036038101906108819190612784565b6118dd565b005b348015610893575f80fd5b506108ae60048036038101906108a99190612784565b6119cd565b005b3480156108bb575f80fd5b506108c4611abd565b6040516108d19190612e76565b60405180910390f35b3480156108e5575f80fd5b5061090060048036038101906108fb9190612784565b611ae2565b60405161090d9190612ddc565b60405180910390f35b348015610921575f80fd5b5061093c60048036038101906109379190612e8f565b611b83565b6040516109499190612ba9565b60405180910390f35b34801561095d575f80fd5b50610966611c2b565b60405161097391906126f7565b60405180910390f35b348015610987575f80fd5b506109a2600480360381019061099d9190612784565b611c53565b6040516109af9190612ddc565b60405180910390f35b3480156109c3575f80fd5b506109de60048036038101906109d99190612784565b611c70565b005b3480156109eb575f80fd5b506109f4611d57565b604051610a019190612ef6565b60405180910390f35b348015610a15575f80fd5b50610a306004803603810190610a2b9190612784565b611d7c565b005b348015610a3d575f80fd5b50610a586004803603810190610a539190612784565b611e6c565b005b348015610a65575f80fd5b50610a806004803603810190610a7b9190612784565b611f5c565b005b348015610a8d575f80fd5b50610aa86004803603810190610aa39190612784565b611fa7565b604051610ab59190612ddc565b60405180910390f35b348015610ac9575f80fd5b50610ae46004803603810190610adf9190612f39565b612048565b005b348015610af1575f80fd5b50610b0c6004803603810190610b079190612784565b6120a8565b005b348015610b19575f80fd5b50610b346004803603810190610b2f9190612784565b61212c565b005b348015610b41575f80fd5b50610b5c6004803603810190610b5791906126aa565b61221c565b005b610b666123ac565b60055f9054906101000a900473ffffffffffffffffffffffffffffffffffffffff1673ffffffffffffffffffffffffffffffffffffffff163373ffffffffffffffffffffffffffffffffffffffff1614610bf5576040517f08c379a0000000000000000000000000000000000000000000000000000000008152600401610bec90612fe7565b60405180910390fd5b8060035f8473ffffffffffffffffffffffffffffffffffffffff1673ffffffffffffffffffffffffffffffffffffffff1681526020019081526020015f205f6101000a81548173ffffffffffffffffffffffffffffffffffffffff021916908373ffffffffffffffffffffffffffffffffffffffff1602179055508073ffffffffffffffffffffffffffffffffffffffff168273ffffffffffffffffffffffffffffffffffffffff167f48e8ef3819015e9b1e8d36ddbbbc8cefc90dba7f69b711bdca0c9a10b63b037f60405160405180910390a35050565b5f60095f9054906101000a900473ffffffffffffffffffffffffffffffffffffffff16905090565b60085f9054906101000a900473ffffffffffffffffffffffffffffffffffffffff1681565b6003602052805f5260405f205f915054906101000a900473ffffffffffffffffffffffffffffffffffffffff1681565b60065f9054906101000a900473ffffffffffffffffffffffffffffffffffffffff1681565b60055f9054906101000a900473ffffffffffffffffffffffffffffffffffffffff1681565b610d9d6123ed565b5f73ffffffffffffffffffffffffffffffffffffffff168173ffffffffffffffffffffffffffffffffffffffff1603610e0b576040517f08c379a0000000000000000000000000000000000000000000000000000000008152600401610e029061304f565b60405180910390fd5b8060055f6101000a81548173ffffffffffffffffffffffffffffffffffffffff021916908373ffffffffffffffffffffffffffffffffffffffff16021790555050565b606060095f9054906101000a900473ffffffffffffffffffffffffffffffffffffffff1673ffffffffffffffffffffffffffffffffffffffff163373ffffffffffffffffffffffffffffffffffffffff1614610edf576040517f08c379a0000000000000000000000000000000000000000000000000000000008152600401610ed6906130b7565b60405180910390fd5b600e5f9054906101000a900473ffffffffffffffffffffffffffffffffffffffff1673ffffffffffffffffffffffffffffffffffffffff16636a1ed3628585856010306040518663ffffffff1660e01b8152600401610f429594939291906132d6565b5f60405180830381865afa158015610f5c573d5f803e3d5ffd5b505050506040513d5f823e3d601f19601f82011682018060405250810190610f8491906133a3565b90509392505050565b610f956118b6565b73ffffffffffffffffffffffffffffffffffffffff163373ffffffffffffffffffffffffffffffffffffffff16148061101a575060085f9054906101000a900473ffffffffffffffffffffffffffffffffffffffff1673ffffffffffffffffffffffffffffffffffffffff163373ffffffffffffffffffffffffffffffffffffffff16145b611059576040517f08c379a000000000000000000000000000000000000000000000000000000000815260040161105090613434565b60405180910390fd5b60085f9054906101000a900473ffffffffffffffffffffffffffffffffffffffff1673ffffffffffffffffffffffffffffffffffffffff1663306275be826040518263ffffffff1660e01b81526004016110b391906126f7565b5f604051808303815f87803b1580156110ca575f80fd5b505af11580156110dc573d5f803e3d5ffd5b5050505050565b6110eb6123ed565b5f73ffffffffffffffffffffffffffffffffffffffff168173ffffffffffffffffffffffffffffffffffffffff1603611159576040517f08c379a00000000000000000000000000000000000000000000000000000000081526004016111509061349c565b60405180910390fd5b8060065f6101000a81548173ffffffffffffffffffffffffffffffffffffffff021916908373ffffffffffffffffffffffffffffffffffffffff1602179055507f820c11a553e3f58735f11b502c4c13b5bdaad97e61b6fe3bafe7eaf4e09e94de816040516111c891906126f7565b60405180910390a150565b60095f9054906101000a900473ffffffffffffffffffffffffffffffffffffffff1681565b606060025f8373ffffffffffffffffffffffffffffffffffffffff1673ffffffffffffffffffffffffffffffffffffffff1681526020019081526020015f208054806020026020016040519081016040528092919081815260200182805480156112b457602002820191905f5260205f20905b815f9054906101000a900473ffffffffffffffffffffffffffffffffffffffff1673ffffffffffffffffffffffffffffffffffffffff168152602001906001019080831161126b575b50505050509050919050565b600b5f9054906101000a900473ffffffffffffffffffffffffffffffffffffffff1681565b6112ed6123ed565b6112f5612474565b565b60045f9054906101000a900473ffffffffffffffffffffffffffffffffffffffff1681565b6002602052815f5260405f208181548110611335575f80fd5b905f5260205f20015f915091509054906101000a900473ffffffffffffffffffffffffffffffffffffffff1681565b61136c6123ed565b5f81116113ae576040517f08c379a00000000000000000000000000000000000000000000000000000000081526004016113a590613504565b60405180910390fd5b80600f819055507f7be9264fd4bacf6ffdd1cbfbe4fb3751923b2540828adf64102e4f5b096a7fe5816040516113e49190612e3d565b60405180910390a150565b6113f76123ed565b806010908161140691906136a4565b5050565b5f8060149054906101000a900460ff16905090565b6114276123ed565b5f73ffffffffffffffffffffffffffffffffffffffff168173ffffffffffffffffffffffffffffffffffffffff1603611495576040517f08c379a000000000000000000000000000000000000000000000000000000000815260040161148c906137bd565b60405180910390fd5b80600b5f6101000a81548173ffffffffffffffffffffffffffffffffffffffff021916908373ffffffffffffffffffffffffffffffffffffffff16021790555050565b6114e06118b6565b73ffffffffffffffffffffffffffffffffffffffff163373ffffffffffffffffffffffffffffffffffffffff161480611565575060085f9054906101000a900473ffffffffffffffffffffffffffffffffffffffff1673ffffffffffffffffffffffffffffffffffffffff163373ffffffffffffffffffffffffffffffffffffffff16145b6115a4576040517f08c379a000000000000000000000000000000000000000000000000000000000815260040161159b90613434565b60405180910390fd5b60085f9054906101000a900473ffffffffffffffffffffffffffffffffffffffff1673ffffffffffffffffffffffffffffffffffffffff16636247f6f2826040518263ffffffff1660e01b81526004016115fe91906126f7565b5f604051808303815f87803b158015611615575f80fd5b505af1158015611627573d5f803e3d5ffd5b5050505050565b5f60045f9054906101000a900473ffffffffffffffffffffffffffffffffffffffff16905090565b5f600c5f8373ffffffffffffffffffffffffffffffffffffffff1673ffffffffffffffffffffffffffffffffffffffff1681526020019081526020015f205f9054906101000a900460ff169050919050565b601080546116b5906131f3565b80601f01602080910402602001604051908101604052809291908181526020018280546116e1906131f3565b801561172c5780601f106117035761010080835404028352916020019161172c565b820191905f5260205f20905b81548152906001019060200180831161170f57829003601f168201915b505050505081565b5f600d5f8373ffffffffffffffffffffffffffffffffffffffff1673ffffffffffffffffffffffffffffffffffffffff1681526020019081526020015f205f9054906101000a900460ff169050919050565b600e5f9054906101000a900473ffffffffffffffffffffffffffffffffffffffff1681565b6060601080546117ba906131f3565b80601f01602080910402602001604051908101604052809291908181526020018280546117e6906131f3565b80156118315780601f1061180857610100808354040283529160200191611831565b820191905f5260205f20905b81548152906001019060200180831161181457829003601f168201915b5050505050905090565b6118436123ed565b61184c5f6124d5565b565b600f5481565b5f600a5f9054906101000a900473ffffffffffffffffffffffffffffffffffffffff16905090565b5f60055f9054906101000a900473ffffffffffffffffffffffffffffffffffffffff16905090565b6118ac6123ed565b6118b4612596565b565b5f805f9054906101000a900473ffffffffffffffffffffffffffffffffffffffff16905090565b6118e56123ed565b5f73ffffffffffffffffffffffffffffffffffffffff168173ffffffffffffffffffffffffffffffffffffffff1603611953576040517f08c379a000000000000000000000000000000000000000000000000000000000815260040161194a9061349c565b60405180910390fd5b8060095f6101000a81548173ffffffffffffffffffffffffffffffffffffffff021916908373ffffffffffffffffffffffffffffffffffffffff1602179055507f12e10e0acd0f94fc9b2d033a01586c1255f1d396a6a2ce1c02cc9fca05774458816040516119c291906126f7565b60405180910390a150565b6119d56123ed565b5f73ffffffffffffffffffffffffffffffffffffffff168173ffffffffffffffffffffffffffffffffffffffff1603611a43576040517f08c379a0000000000000000000000000000000000000000000000000000000008152600401611a3a9061349c565b60405180910390fd5b8060075f6101000a81548173ffffffffffffffffffffffffffffffffffffffff021916908373ffffffffffffffffffffffffffffffffffffffff1602179055507f39a2470dcb92def89f4d008f638ab6d63ac78547bf3d6ccfebf542711a0503c781604051611ab291906126f7565b60405180910390a150565b60075f9054906101000a900473ffffffffffffffffffffffffffffffffffffffff1681565b5f60085f9054906101000a900473ffffffffffffffffffffffffffffffffffffffff1673ffffffffffffffffffffffffffffffffffffffff1663b5af090f836040518263ffffffff1660e01b8152600401611b3d91906126f7565b602060405180830381865afa158015611b58573d5f803e3d5ffd5b505050506040513d601f19601f82011682018060405250810190611b7c91906137ef565b9050919050565b6060600e5f9054906101000a900473ffffffffffffffffffffffffffffffffffffffff1673ffffffffffffffffffffffffffffffffffffffff1663d413a1158360106040518363ffffffff1660e01b8152600401611be292919061381a565b5f60405180830381865afa158015611bfc573d5f803e3d5ffd5b505050506040513d5f823e3d601f19601f82011682018060405250810190611c2491906133a3565b9050919050565b5f600b5f9054906101000a900473ffffffffffffffffffffffffffffffffffffffff16905090565b600c602052805f5260405f205f915054906101000a900460ff1681565b60055f9054906101000a900473ffffffffffffffffffffffffffffffffffffffff1673ffffffffffffffffffffffffffffffffffffffff163373ffffffffffffffffffffffffffffffffffffffff1614611cff576040517f08c379a0000000000000000000000000000000000000000000000000000000008152600401611cf6906138bf565b60405180910390fd5b6001600d5f8373ffffffffffffffffffffffffffffffffffffffff1673ffffffffffffffffffffffffffffffffffffffff1681526020019081526020015f205f6101000a81548160ff02191690831515021790555050565b600a5f9054906101000a900473ffffffffffffffffffffffffffffffffffffffff1681565b611d846123ed565b5f73ffffffffffffffffffffffffffffffffffffffff168173ffffffffffffffffffffffffffffffffffffffff1603611df2576040517f08c379a0000000000000000000000000000000000000000000000000000000008152600401611de99061349c565b60405180910390fd5b8060085f6101000a81548173ffffffffffffffffffffffffffffffffffffffff021916908373ffffffffffffffffffffffffffffffffffffffff1602179055507fcede453a12a109bc98cf30c47be25a27dcd045508461cc9e9669a0185b648b8981604051611e6191906126f7565b60405180910390a150565b611e746123ed565b5f73ffffffffffffffffffffffffffffffffffffffff168173ffffffffffffffffffffffffffffffffffffffff1603611ee2576040517f08c379a0000000000000000000000000000000000000000000000000000000008152600401611ed99061349c565b60405180910390fd5b80600a5f6101000a81548173ffffffffffffffffffffffffffffffffffffffff021916908373ffffffffffffffffffffffffffffffffffffffff1602179055507fa01edaa3cd8a419b7bb45b34f35e84da238af9490eca1b318cb579f3179e29e481604051611f5191906126f7565b60405180910390a150565b611f646123ed565b8060045f6101000a81548173ffffffffffffffffffffffffffffffffffffffff021916908373ffffffffffffffffffffffffffffffffffffffff16021790555050565b5f60075f9054906101000a900473ffffffffffffffffffffffffffffffffffffffff1673ffffffffffffffffffffffffffffffffffffffff1663f140b55f836040518263ffffffff1660e01b815260040161200291906126f7565b602060405180830381865afa15801561201d573d5f803e3d5ffd5b505050506040513d601f19601f8201168201806040525081019061204191906137ef565b9050919050565b6120506123ed565b80600c5f8473ffffffffffffffffffffffffffffffffffffffff1673ffffffffffffffffffffffffffffffffffffffff1681526020019081526020015f205f6101000a81548160ff0219169083151502179055505050565b6120b06123ed565b5f73ffffffffffffffffffffffffffffffffffffffff168173ffffffffffffffffffffffffffffffffffffffff1603612120575f6040517f1e4fbdf700000000000000000000000000000000000000000000000000000000815260040161211791906126f7565b60405180910390fd5b612129816124d5565b50565b6121346123ed565b5f73ffffffffffffffffffffffffffffffffffffffff168173ffffffffffffffffffffffffffffffffffffffff16036121a2576040517f08c379a000000000000000000000000000000000000000000000000000000000815260040161219990613927565b60405180910390fd5b80600e5f6101000a81548173ffffffffffffffffffffffffffffffffffffffff021916908373ffffffffffffffffffffffffffffffffffffffff1602179055507f60a886c8dc324af9c6d6a1bf7369ffe7557ef345eb5717bceffb59beac879a0a8160405161221191906126f7565b60405180910390a150565b6122246123ac565b60055f9054906101000a900473ffffffffffffffffffffffffffffffffffffffff1673ffffffffffffffffffffffffffffffffffffffff163373ffffffffffffffffffffffffffffffffffffffff16146122b3576040517f08c379a00000000000000000000000000000000000000000000000000000000081526004016122aa906138bf565b60405180910390fd5b60025f8373ffffffffffffffffffffffffffffffffffffffff1673ffffffffffffffffffffffffffffffffffffffff1681526020019081526020015f2081908060018154018082558091505060019003905f5260205f20015f9091909190916101000a81548173ffffffffffffffffffffffffffffffffffffffff021916908373ffffffffffffffffffffffffffffffffffffffff1602179055508073ffffffffffffffffffffffffffffffffffffffff168273ffffffffffffffffffffffffffffffffffffffff167f4cda7c30666ce0c5304ba2d323cdee5f647baac385d8e0cb2f706641c95043af60405160405180910390a35050565b6123b461140a565b156123eb576040517fd93c066500000000000000000000000000000000000000000000000000000000815260040160405180910390fd5b565b6123f56125f8565b73ffffffffffffffffffffffffffffffffffffffff166124136118b6565b73ffffffffffffffffffffffffffffffffffffffff1614612472576124366125f8565b6040517f118cdaa700000000000000000000000000000000000000000000000000000000815260040161246991906126f7565b60405180910390fd5b565b61247c6125ff565b5f8060146101000a81548160ff0219169083151502179055507f5db9ee0a495bf2e6ff9c91a7834c1ba4fdd244a5e8aa4e537bd38aeae4b073aa6124be6125f8565b6040516124cb91906126f7565b60405180910390a1565b5f805f9054906101000a900473ffffffffffffffffffffffffffffffffffffffff169050815f806101000a81548173ffffffffffffffffffffffffffffffffffffffff021916908373ffffffffffffffffffffffffffffffffffffffff1602179055508173ffffffffffffffffffffffffffffffffffffffff168173ffffffffffffffffffffffffffffffffffffffff167f8be0079c531659141344cd1fd0a4f28419497f9722a3daafe3b4186f6b6457e060405160405180910390a35050565b61259e6123ac565b60015f60146101000a81548160ff0219169083151502179055507f62e78cea01bee320cd4e420270b5ea74000d11b0c9f74754ebdbfc544b05a2586125e16125f8565b6040516125ee91906126f7565b60405180910390a1565b5f33905090565b61260761140a565b61263d576040517f8dfc202b00000000000000000000000000000000000000000000000000000000815260040160405180910390fd5b565b5f604051905090565b5f80fd5b5f80fd5b5f73ffffffffffffffffffffffffffffffffffffffff82169050919050565b5f61267982612650565b9050919050565b6126898161266f565b8114612693575f80fd5b50565b5f813590506126a481612680565b92915050565b5f80604083850312156126c0576126bf612648565b5b5f6126cd85828601612696565b92505060206126de85828601612696565b9150509250929050565b6126f18161266f565b82525050565b5f60208201905061270a5f8301846126e8565b92915050565b5f819050919050565b5f61273361272e61272984612650565b612710565b612650565b9050919050565b5f61274482612719565b9050919050565b5f6127558261273a565b9050919050565b6127658161274b565b82525050565b5f60208201905061277e5f83018461275c565b92915050565b5f6020828403121561279957612798612648565b5b5f6127a684828501612696565b91505092915050565b5f6127b98261273a565b9050919050565b6127c9816127af565b82525050565b5f6020820190506127e25f8301846127c0565b92915050565b5f6127f28261273a565b9050919050565b612802816127e8565b82525050565b5f60208201905061281b5f8301846127f9565b92915050565b5f80fd5b5f601f19601f8301169050919050565b7f4e487b71000000000000000000000000000000000000000000000000000000005f52604160045260245ffd5b61286b82612825565b810181811067ffffffffffffffff8211171561288a57612889612835565b5b80604052505050565b5f61289c61263f565b90506128a88282612862565b919050565b5f80fd5b5f80fd5b5f80fd5b5f67ffffffffffffffff8211156128d3576128d2612835565b5b6128dc82612825565b9050602081019050919050565b828183375f83830152505050565b5f612909612904846128b9565b612893565b905082815260208101848484011115612925576129246128b5565b5b6129308482856128e9565b509392505050565b5f82601f83011261294c5761294b6128b1565b5b813561295c8482602086016128f7565b91505092915050565b5f60c0828403121561297a57612979612821565b5b61298460c0612893565b90505f82013567ffffffffffffffff8111156129a3576129a26128ad565b5b6129af84828501612938565b5f83015250602082013567ffffffffffffffff8111156129d2576129d16128ad565b5b6129de84828501612938565b602083015250604082013567ffffffffffffffff811115612a0257612a016128ad565b5b612a0e84828501612938565b604083015250606082013567ffffffffffffffff811115612a3257612a316128ad565b5b612a3e84828501612938565b606083015250608082013567ffffffffffffffff811115612a6257612a616128ad565b5b612a6e84828501612938565b60808301525060a082013567ffffffffffffffff811115612a9257612a916128ad565b5b612a9e84828501612938565b60a08301525092915050565b5f819050919050565b612abc81612aaa565b8114612ac6575f80fd5b50565b5f81359050612ad781612ab3565b92915050565b5f805f60608486031215612af457612af3612648565b5b5f84013567ffffffffffffffff811115612b1157612b1061264c565b5b612b1d86828701612965565b9350506020612b2e86828701612ac9565b9250506040612b3f86828701612696565b9150509250925092565b5f81519050919050565b5f82825260208201905092915050565b8281835e5f83830152505050565b5f612b7b82612b49565b612b858185612b53565b9350612b95818560208601612b63565b612b9e81612825565b840191505092915050565b5f6020820190508181035f830152612bc18184612b71565b905092915050565b5f612bd38261273a565b9050919050565b612be381612bc9565b82525050565b5f602082019050612bfc5f830184612bda565b92915050565b5f81519050919050565b5f82825260208201905092915050565b5f819050602082019050919050565b612c348161266f565b82525050565b5f612c458383612c2b565b60208301905092915050565b5f602082019050919050565b5f612c6782612c02565b612c718185612c0c565b9350612c7c83612c1c565b805f5b83811015612cac578151612c938882612c3a565b9750612c9e83612c51565b925050600181019050612c7f565b5085935050505092915050565b5f6020820190508181035f830152612cd18184612c5d565b905092915050565b5f612ce38261273a565b9050919050565b612cf381612cd9565b82525050565b5f602082019050612d0c5f830184612cea565b92915050565b5f8060408385031215612d2857612d27612648565b5b5f612d3585828601612696565b9250506020612d4685828601612ac9565b9150509250929050565b5f60208284031215612d6557612d64612648565b5b5f612d7284828501612ac9565b91505092915050565b5f60208284031215612d9057612d8f612648565b5b5f82013567ffffffffffffffff811115612dad57612dac61264c565b5b612db984828501612938565b91505092915050565b5f8115159050919050565b612dd681612dc2565b82525050565b5f602082019050612def5f830184612dcd565b92915050565b5f612dff8261273a565b9050919050565b612e0f81612df5565b82525050565b5f602082019050612e285f830184612e06565b92915050565b612e3781612aaa565b82525050565b5f602082019050612e505f830184612e2e565b92915050565b5f612e608261273a565b9050919050565b612e7081612e56565b82525050565b5f602082019050612e895f830184612e67565b92915050565b5f60208284031215612ea457612ea3612648565b5b5f82013567ffffffffffffffff811115612ec157612ec061264c565b5b612ecd84828501612965565b91505092915050565b5f612ee08261273a565b9050919050565b612ef081612ed6565b82525050565b5f602082019050612f095f830184612ee7565b92915050565b612f1881612dc2565b8114612f22575f80fd5b50565b5f81359050612f3381612f0f565b92915050565b5f8060408385031215612f4f57612f4e612648565b5b5f612f5c85828601612696565b9250506020612f6d85828601612f25565b9150509250929050565b7f4f6e6c7920666163746f72792063616e2073657420746f6b656e206d617070695f8201527f6e67000000000000000000000000000000000000000000000000000000000000602082015250565b5f612fd1602283612b53565b9150612fdc82612f77565b604082019050919050565b5f6020820190508181035f830152612ffe81612fc5565b9050919050565b7f496e76616c696420666163746f727920616464726573730000000000000000005f82015250565b5f613039601783612b53565b915061304482613005565b602082019050919050565b5f6020820190508181035f8301526130668161302d565b9050919050565b7f4f6e6c79206d65746164617461206d6f64756c652063616e2072656e646572005f82015250565b5f6130a1601f83612b53565b91506130ac8261306d565b602082019050919050565b5f6020820190508181035f8301526130ce81613095565b9050919050565b5f82825260208201905092915050565b5f6130ef82612b49565b6130f981856130d5565b9350613109818560208601612b63565b61311281612825565b840191505092915050565b5f60c083015f8301518482035f86015261313782826130e5565b9150506020830151848203602086015261315182826130e5565b9150506040830151848203604086015261316b82826130e5565b9150506060830151848203606086015261318582826130e5565b9150506080830151848203608086015261319f82826130e5565b91505060a083015184820360a08601526131b982826130e5565b9150508091505092915050565b7f4e487b71000000000000000000000000000000000000000000000000000000005f52602260045260245ffd5b5f600282049050600182168061320a57607f821691505b60208210810361321d5761321c6131c6565b5b50919050565b5f819050815f5260205f209050919050565b5f8154613241816131f3565b61324b8186612b53565b9450600182165f8114613265576001811461327b576132ad565b60ff1983168652811515602002860193506132ad565b61328485613223565b5f5b838110156132a557815481890152600182019150602081019050613286565b808801955050505b50505092915050565b5f6132c08261273a565b9050919050565b6132d0816132b6565b82525050565b5f60a0820190508181035f8301526132ee818861311d565b90506132fd6020830187612e2e565b61330a60408301866126e8565b818103606083015261331c8185613235565b905061332b60808301846132c7565b9695505050505050565b5f613347613342846128b9565b612893565b905082815260208101848484011115613363576133626128b5565b5b61336e848285612b63565b509392505050565b5f82601f83011261338a576133896128b1565b5b815161339a848260208601613335565b91505092915050565b5f602082840312156133b8576133b7612648565b5b5f82015167ffffffffffffffff8111156133d5576133d461264c565b5b6133e184828501613376565b91505092915050565b7f4e6f7420617574686f72697a65640000000000000000000000000000000000005f82015250565b5f61341e600e83612b53565b9150613429826133ea565b602082019050919050565b5f6020820190508181035f83015261344b81613412565b9050919050565b7f496e76616c6964206164647265737300000000000000000000000000000000005f82015250565b5f613486600f83612b53565b915061349182613452565b602082019050919050565b5f6020820190508181035f8301526134b38161347a565b9050919050565b7f4475726174696f6e206d7573742062652067726561746572207468616e2030005f82015250565b5f6134ee601f83612b53565b91506134f9826134ba565b602082019050919050565b5f6020820190508181035f83015261351b816134e2565b9050919050565b5f6020601f8301049050919050565b5f82821b905092915050565b5f6008830261356c7fffffffffffffffffffffffffffffffffffffffffffffffffffffffffffffffff82613531565b6135768683613531565b95508019841693508086168417925050509392505050565b5f6135a86135a361359e84612aaa565b612710565b612aaa565b9050919050565b5f819050919050565b6135c18361358e565b6135d56135cd826135af565b84845461353d565b825550505050565b5f90565b6135e96135dd565b6135f48184846135b8565b505050565b5b818110156136175761360c5f826135e1565b6001810190506135fa565b5050565b601f82111561365c5761362d81613223565b61363684613522565b81016020851015613645578190505b61365961365185613522565b8301826135f9565b50505b505050565b5f82821c905092915050565b5f61367c5f1984600802613661565b1980831691505092915050565b5f613694838361366d565b9150826002028217905092915050565b6136ad82612b49565b67ffffffffffffffff8111156136c6576136c5612835565b5b6136d082546131f3565b6136db82828561361b565b5f60209050601f83116001811461370c575f84156136fa578287015190505b6137048582613689565b86555061376b565b601f19841661371a86613223565b5f5b828110156137415784890151825560018201915060208501945060208101905061371c565b8683101561375e578489015161375a601f89168261366d565b8355505b6001600288020188555050505b505050505050565b7f496e76616c69642072656769737472794d6f64756c65206164647265737300005f82015250565b5f6137a7601e83612b53565b91506137b282613773565b602082019050919050565b5f6020820190508181035f8301526137d48161379b565b9050919050565b5f815190506137e981612f0f565b92915050565b5f6020828403121561380457613803612648565b5b5f613811848285016137db565b91505092915050565b5f6040820190508181035f830152613832818561311d565b905081810360208301526138468184613235565b90509392505050565b7f4f6e6c7920666163746f72792063616e20616464207772617070656420736f6e5f8201527f6700000000000000000000000000000000000000000000000000000000000000602082015250565b5f6138a9602183612b53565b91506138b48261384f565b604082019050919050565b5f6020820190508181035f8301526138d68161389d565b9050919050565b7f496e76616c69642072656e6465726572206164647265737300000000000000005f82015250565b5f613911601883612b53565b915061391c826138dd565b602082019050919050565b5f6020820190508181035f83015261393e81613905565b905091905056fea2646970667358221220b87db4203f237084aaab995781933b70a77b430869d25a37c034bb7004de9a6d64736f6c634300081a0033",
			"opcodes": "PUSH1 0x80 PUSH1 0x40 MSTORE PUSH3 0x278D00 PUSH1 0xF SSTORE CALLVALUE DUP1 ISZERO PUSH2 0x16 JUMPI PUSH0 DUP1 REVERT JUMPDEST POP PUSH1 0x40 MLOAD PUSH2 0x3D69 CODESIZE SUB DUP1 PUSH2 0x3D69 DUP4 CODECOPY DUP2 DUP2 ADD PUSH1 0x40 MSTORE DUP2 ADD SWAP1 PUSH2 0x38 SWAP2 SWAP1 PUSH2 0x342 JUMP JUMPDEST CALLER PUSH0 PUSH20 0xFFFFFFFFFFFFFFFFFFFFFFFFFFFFFFFFFFFFFFFF AND DUP2 PUSH20 0xFFFFFFFFFFFFFFFFFFFFFFFFFFFFFFFFFFFFFFFF AND SUB PUSH2 0xA9 JUMPI PUSH0 PUSH1 0x40 MLOAD PUSH32 0x1E4FBDF700000000000000000000000000000000000000000000000000000000 DUP2 MSTORE PUSH1 0x4 ADD PUSH2 0xA0 SWAP2 SWAP1 PUSH2 0x3C8 JUMP JUMPDEST PUSH1 0x40 MLOAD DUP1 SWAP2 SUB SWAP1 REVERT JUMPDEST PUSH2 0xB8 DUP2 PUSH2 0x223 PUSH1 0x20 SHL PUSH1 0x20 SHR JUMP JUMPDEST POP PUSH0 DUP1 PUSH1 0x14 PUSH2 0x100 EXP DUP2 SLOAD DUP2 PUSH1 0xFF MUL NOT AND SWAP1 DUP4 ISZERO ISZERO MUL OR SWAP1 SSTORE POP PUSH1 0x1 DUP1 DUP2 SWAP1 SSTORE POP DUP5 PUSH1 0x6 PUSH0 PUSH2 0x100 EXP DUP2 SLOAD DUP2 PUSH20 0xFFFFFFFFFFFFFFFFFFFFFFFFFFFFFFFFFFFFFFFF MUL NOT AND SWAP1 DUP4 PUSH20 0xFFFFFFFFFFFFFFFFFFFFFFFFFFFFFFFFFFFFFFFF AND MUL OR SWAP1 SSTORE POP DUP4 PUSH1 0x7 PUSH0 PUSH2 0x100 EXP DUP2 SLOAD DUP2 PUSH20 0xFFFFFFFFFFFFFFFFFFFFFFFFFFFFFFFFFFFFFFFF MUL NOT AND SWAP1 DUP4 PUSH20 0xFFFFFFFFFFFFFFFFFFFFFFFFFFFFFFFFFFFFFFFF AND MUL OR SWAP1 SSTORE POP DUP3 PUSH1 0x8 PUSH0 PUSH2 0x100 EXP DUP2 SLOAD DUP2 PUSH20 0xFFFFFFFFFFFFFFFFFFFFFFFFFFFFFFFFFFFFFFFF MUL NOT AND SWAP1 DUP4 PUSH20 0xFFFFFFFFFFFFFFFFFFFFFFFFFFFFFFFFFFFFFFFF AND MUL OR SWAP1 SSTORE POP DUP2 PUSH1 0x9 PUSH0 PUSH2 0x100 EXP DUP2 SLOAD DUP2 PUSH20 0xFFFFFFFFFFFFFFFFFFFFFFFFFFFFFFFFFFFFFFFF MUL NOT AND SWAP1 DUP4 PUSH20 0xFFFFFFFFFFFFFFFFFFFFFFFFFFFFFFFFFFFFFFFF AND MUL OR SWAP1 SSTORE POP DUP1 PUSH1 0xA PUSH0 PUSH2 0x100 EXP DUP2 SLOAD DUP2 PUSH20 0xFFFFFFFFFFFFFFFFFFFFFFFFFFFFFFFFFFFFFFFF MUL NOT AND SWAP1 DUP4 PUSH20 0xFFFFFFFFFFFFFFFFFFFFFFFFFFFFFFFFFFFFFFFF AND MUL OR SWAP1 SSTORE POP POP POP POP POP POP PUSH2 0x3E1 JUMP JUMPDEST PUSH0 DUP1 PUSH0 SWAP1 SLOAD SWAP1 PUSH2 0x100 EXP SWAP1 DIV PUSH20 0xFFFFFFFFFFFFFFFFFFFFFFFFFFFFFFFFFFFFFFFF AND SWAP1 POP DUP2 PUSH0 DUP1 PUSH2 0x100 EXP DUP2 SLOAD DUP2 PUSH20 0xFFFFFFFFFFFFFFFFFFFFFFFFFFFFFFFFFFFFFFFF MUL NOT AND SWAP1 DUP4 PUSH20 0xFFFFFFFFFFFFFFFFFFFFFFFFFFFFFFFFFFFFFFFF AND MUL OR SWAP1 SSTORE POP DUP2 PUSH20 0xFFFFFFFFFFFFFFFFFFFFFFFFFFFFFFFFFFFFFFFF AND DUP2 PUSH20 0xFFFFFFFFFFFFFFFFFFFFFFFFFFFFFFFFFFFFFFFF AND PUSH32 0x8BE0079C531659141344CD1FD0A4F28419497F9722A3DAAFE3B4186F6B6457E0 PUSH1 0x40 MLOAD PUSH1 0x40 MLOAD DUP1 SWAP2 SUB SWAP1 LOG3 POP POP JUMP JUMPDEST PUSH0 DUP1 REVERT JUMPDEST PUSH0 PUSH20 0xFFFFFFFFFFFFFFFFFFFFFFFFFFFFFFFFFFFFFFFF DUP3 AND SWAP1 POP SWAP2 SWAP1 POP JUMP JUMPDEST PUSH0 PUSH2 0x311 DUP3 PUSH2 0x2E8 JUMP JUMPDEST SWAP1 POP SWAP2 SWAP1 POP JUMP JUMPDEST PUSH2 0x321 DUP2 PUSH2 0x307 JUMP JUMPDEST DUP2 EQ PUSH2 0x32B JUMPI PUSH0 DUP1 REVERT JUMPDEST POP JUMP JUMPDEST PUSH0 DUP2 MLOAD SWAP1 POP PUSH2 0x33C DUP2 PUSH2 0x318 JUMP JUMPDEST SWAP3 SWAP2 POP POP JUMP JUMPDEST PUSH0 DUP1 PUSH0 DUP1 PUSH0 PUSH1 0xA0 DUP7 DUP9 SUB SLT ISZERO PUSH2 0x35B JUMPI PUSH2 0x35A PUSH2 0x2E4 JUMP JUMPDEST JUMPDEST PUSH0 PUSH2 0x368 DUP9 DUP3 DUP10 ADD PUSH2 0x32E JUMP JUMPDEST SWAP6 POP POP PUSH1 0x20 PUSH2 0x379 DUP9 DUP3 DUP10 ADD PUSH2 0x32E JUMP JUMPDEST SWAP5 POP POP PUSH1 0x40 PUSH2 0x38A DUP9 DUP3 DUP10 ADD PUSH2 0x32E JUMP JUMPDEST SWAP4 POP POP PUSH1 0x60 PUSH2 0x39B DUP9 DUP3 DUP10 ADD PUSH2 0x32E JUMP JUMPDEST SWAP3 POP POP PUSH1 0x80 PUSH2 0x3AC DUP9 DUP3 DUP10 ADD PUSH2 0x32E JUMP JUMPDEST SWAP2 POP POP SWAP3 SWAP6 POP SWAP3 SWAP6 SWAP1 SWAP4 POP JUMP JUMPDEST PUSH2 0x3C2 DUP2 PUSH2 0x307 JUMP JUMPDEST DUP3 MSTORE POP POP JUMP JUMPDEST PUSH0 PUSH1 0x20 DUP3 ADD SWAP1 POP PUSH2 0x3DB PUSH0 DUP4 ADD DUP5 PUSH2 0x3B9 JUMP JUMPDEST SWAP3 SWAP2 POP POP JUMP JUMPDEST PUSH2 0x397B DUP1 PUSH2 0x3EE PUSH0 CODECOPY PUSH0 RETURN INVALID PUSH1 0x80 PUSH1 0x40 MSTORE PUSH1 0x4 CALLDATASIZE LT PUSH2 0x2CB JUMPI PUSH0 CALLDATALOAD PUSH1 0xE0 SHR DUP1 PUSH4 0x70319970 GT PUSH2 0x174 JUMPI DUP1 PUSH4 0xC7ACD8FB GT PUSH2 0xDB JUMPI DUP1 PUSH4 0xEC691A59 GT PUSH2 0x94 JUMPI DUP1 PUSH4 0xF2FA7392 GT PUSH2 0x6E JUMPI DUP1 PUSH4 0xF2FA7392 EQ PUSH2 0xABE JUMPI DUP1 PUSH4 0xF2FDE38B EQ PUSH2 0xAE6 JUMPI DUP1 PUSH4 0xFD4FE8A8 EQ PUSH2 0xB0E JUMPI DUP1 PUSH4 0xFF4884F8 EQ PUSH2 0xB36 JUMPI PUSH2 0x2D2 JUMP JUMPDEST DUP1 PUSH4 0xEC691A59 EQ PUSH2 0xA32 JUMPI DUP1 PUSH4 0xEEFEB7BC EQ PUSH2 0xA5A JUMPI DUP1 PUSH4 0xF140B55F EQ PUSH2 0xA82 JUMPI PUSH2 0x2D2 JUMP JUMPDEST DUP1 PUSH4 0xC7ACD8FB EQ PUSH2 0x916 JUMPI DUP1 PUSH4 0xCE1A52D2 EQ PUSH2 0x952 JUMPI DUP1 PUSH4 0xD5B9221B EQ PUSH2 0x97C JUMPI DUP1 PUSH4 0xD9CE7B95 EQ PUSH2 0x9B8 JUMPI DUP1 PUSH4 0xDBD15D53 EQ PUSH2 0x9E0 JUMPI DUP1 PUSH4 0xE4829369 EQ PUSH2 0xA0A JUMPI PUSH2 0x2D2 JUMP JUMPDEST DUP1 PUSH4 0x8456CB59 GT PUSH2 0x12D JUMPI DUP1 PUSH4 0x8456CB59 EQ PUSH2 0x820 JUMPI DUP1 PUSH4 0x8DA5CB5B EQ PUSH2 0x836 JUMPI DUP1 PUSH4 0xA4198FA2 EQ PUSH2 0x860 JUMPI DUP1 PUSH4 0xA951583B EQ PUSH2 0x888 JUMPI DUP1 PUSH4 0xAC581B3A EQ PUSH2 0x8B0 JUMPI DUP1 PUSH4 0xB5AF090F EQ PUSH2 0x8DA JUMPI PUSH2 0x2D2 JUMP JUMPDEST DUP1 PUSH4 0x70319970 EQ PUSH2 0x738 JUMPI DUP1 PUSH4 0x714C5398 EQ PUSH2 0x762 JUMPI DUP1 PUSH4 0x715018A6 EQ PUSH2 0x78C JUMPI DUP1 PUSH4 0x723FF2A2 EQ PUSH2 0x7A2 JUMPI DUP1 PUSH4 0x77191A6E EQ PUSH2 0x7CC JUMPI DUP1 PUSH4 0x81B539B8 EQ PUSH2 0x7F6 JUMPI PUSH2 0x2D2 JUMP JUMPDEST DUP1 PUSH4 0x3CD7BC95 GT PUSH2 0x233 JUMPI DUP1 PUSH4 0x5C975ABB GT PUSH2 0x1EC JUMPI DUP1 PUSH4 0x62F0BDDE GT PUSH2 0x1C6 JUMPI DUP1 PUSH4 0x62F0BDDE EQ PUSH2 0x66C JUMPI DUP1 PUSH4 0x66D0EAD3 EQ PUSH2 0x696 JUMPI DUP1 PUSH4 0x6C0360EB EQ PUSH2 0x6D2 JUMPI DUP1 PUSH4 0x6CF563A4 EQ PUSH2 0x6FC JUMPI PUSH2 0x2D2 JUMP JUMPDEST DUP1 PUSH4 0x5C975ABB EQ PUSH2 0x5F2 JUMPI DUP1 PUSH4 0x5FD61020 EQ PUSH2 0x61C JUMPI DUP1 PUSH4 0x6247F6F2 EQ PUSH2 0x644 JUMPI PUSH2 0x2D2 JUMP JUMPDEST DUP1 PUSH4 0x3CD7BC95 EQ PUSH2 0x4FC JUMPI DUP1 PUSH4 0x3F4BA83A EQ PUSH2 0x526 JUMPI DUP1 PUSH4 0x46D5397C EQ PUSH2 0x53C JUMPI DUP1 PUSH4 0x4DA6840A EQ PUSH2 0x566 JUMPI DUP1 PUSH4 0x533761FE EQ PUSH2 0x5A2 JUMPI DUP1 PUSH4 0x55F804B3 EQ PUSH2 0x5CA JUMPI PUSH2 0x2D2 JUMP JUMPDEST DUP1 PUSH4 0x2FB92C5A GT PUSH2 0x285 JUMPI DUP1 PUSH4 0x2FB92C5A EQ PUSH2 0x3E2 JUMPI DUP1 PUSH4 0x2FDA23B7 EQ PUSH2 0x40A JUMPI DUP1 PUSH4 0x306275BE EQ PUSH2 0x446 JUMPI DUP1 PUSH4 0x358D96AB EQ PUSH2 0x46E JUMPI DUP1 PUSH4 0x3684D100 EQ PUSH2 0x496 JUMPI DUP1 PUSH4 0x37D7D542 EQ PUSH2 0x4C0 JUMPI PUSH2 0x2D2 JUMP JUMPDEST DUP1 PUSH3 0x8AC83 EQ PUSH2 0x2D6 JUMPI DUP1 PUSH4 0x88B9554 EQ PUSH2 0x2FE JUMPI DUP1 PUSH4 0x9DA4E51 EQ PUSH2 0x328 JUMPI DUP1 PUSH4 0xB1B745E EQ PUSH2 0x352 JUMPI DUP1 PUSH4 0xC5D8DA1 EQ PUSH2 0x38E JUMPI DUP1 PUSH4 0x1C8370CB EQ PUSH2 0x3B8 JUMPI PUSH2 0x2D2 JUMP JUMPDEST CALLDATASIZE PUSH2 0x2D2 JUMPI STOP JUMPDEST PUSH0 DUP1 REVERT JUMPDEST CALLVALUE DUP1 ISZERO PUSH2 0x2E1 JUMPI PUSH0 DUP1 REVERT JUMPDEST POP PUSH2 0x2FC PUSH1 0x4 DUP1 CALLDATASIZE SUB DUP2 ADD SWAP1 PUSH2 0x2F7 SWAP2 SWAP1 PUSH2 0x26AA JUMP JUMPDEST PUSH2 0xB5E JUMP JUMPDEST STOP JUMPDEST CALLVALUE DUP1 ISZERO PUSH2 0x309 JUMPI PUSH0 DUP1 REVERT JUMPDEST POP PUSH2 0x312 PUSH2 0xCCE JUMP JUMPDEST PUSH1 0x40 MLOAD PUSH2 0x31F SWAP2 SWAP1 PUSH2 0x26F7 JUMP JUMPDEST PUSH1 0x40 MLOAD DUP1 SWAP2 SUB SWAP1 RETURN JUMPDEST CALLVALUE DUP1 ISZERO PUSH2 0x333 JUMPI PUSH0 DUP1 REVERT JUMPDEST POP PUSH2 0x33C PUSH2 0xCF6 JUMP JUMPDEST PUSH1 0x40 MLOAD PUSH2 0x349 SWAP2 SWAP1 PUSH2 0x276B JUMP JUMPDEST PUSH1 0x40 MLOAD DUP1 SWAP2 SUB SWAP1 RETURN JUMPDEST CALLVALUE DUP1 ISZERO PUSH2 0x35D JUMPI PUSH0 DUP1 REVERT JUMPDEST POP PUSH2 0x378 PUSH1 0x4 DUP1 CALLDATASIZE SUB DUP2 ADD SWAP1 PUSH2 0x373 SWAP2 SWAP1 PUSH2 0x2784 JUMP JUMPDEST PUSH2 0xD1B JUMP JUMPDEST PUSH1 0x40 MLOAD PUSH2 0x385 SWAP2 SWAP1 PUSH2 0x26F7 JUMP JUMPDEST PUSH1 0x40 MLOAD DUP1 SWAP2 SUB SWAP1 RETURN JUMPDEST CALLVALUE DUP1 ISZERO PUSH2 0x399 JUMPI PUSH0 DUP1 REVERT JUMPDEST POP PUSH2 0x3A2 PUSH2 0xD4B JUMP JUMPDEST PUSH1 0x40 MLOAD PUSH2 0x3AF SWAP2 SWAP1 PUSH2 0x27CF JUMP JUMPDEST PUSH1 0x40 MLOAD DUP1 SWAP2 SUB SWAP1 RETURN JUMPDEST CALLVALUE DUP1 ISZERO PUSH2 0x3C3 JUMPI PUSH0 DUP1 REVERT JUMPDEST POP PUSH2 0x3CC PUSH2 0xD70 JUMP JUMPDEST PUSH1 0x40 MLOAD PUSH2 0x3D9 SWAP2 SWAP1 PUSH2 0x2808 JUMP JUMPDEST PUSH1 0x40 MLOAD DUP1 SWAP2 SUB SWAP1 RETURN JUMPDEST CALLVALUE DUP1 ISZERO PUSH2 0x3ED JUMPI PUSH0 DUP1 REVERT JUMPDEST POP PUSH2 0x408 PUSH1 0x4 DUP1 CALLDATASIZE SUB DUP2 ADD SWAP1 PUSH2 0x403 SWAP2 SWAP1 PUSH2 0x2784 JUMP JUMPDEST PUSH2 0xD95 JUMP JUMPDEST STOP JUMPDEST CALLVALUE DUP1 ISZERO PUSH2 0x415 JUMPI PUSH0 DUP1 REVERT JUMPDEST POP PUSH2 0x430 PUSH1 0x4 DUP1 CALLDATASIZE SUB DUP2 ADD SWAP1 PUSH2 0x42B SWAP2 SWAP1 PUSH2 0x2ADD JUMP JUMPDEST PUSH2 0xE4E JUMP JUMPDEST PUSH1 0x40 MLOAD PUSH2 0x43D SWAP2 SWAP1 PUSH2 0x2BA9 JUMP JUMPDEST PUSH1 0x40 MLOAD DUP1 SWAP2 SUB SWAP1 RETURN JUMPDEST CALLVALUE DUP1 ISZERO PUSH2 0x451 JUMPI PUSH0 DUP1 REVERT JUMPDEST POP PUSH2 0x46C PUSH1 0x4 DUP1 CALLDATASIZE SUB DUP2 ADD SWAP1 PUSH2 0x467 SWAP2 SWAP1 PUSH2 0x2784 JUMP JUMPDEST PUSH2 0xF8D JUMP JUMPDEST STOP JUMPDEST CALLVALUE DUP1 ISZERO PUSH2 0x479 JUMPI PUSH0 DUP1 REVERT JUMPDEST POP PUSH2 0x494 PUSH1 0x4 DUP1 CALLDATASIZE SUB DUP2 ADD SWAP1 PUSH2 0x48F SWAP2 SWAP1 PUSH2 0x2784 JUMP JUMPDEST PUSH2 0x10E3 JUMP JUMPDEST STOP JUMPDEST CALLVALUE DUP1 ISZERO PUSH2 0x4A1 JUMPI PUSH0 DUP1 REVERT JUMPDEST POP PUSH2 0x4AA PUSH2 0x11D3 JUMP JUMPDEST PUSH1 0x40 MLOAD PUSH2 0x4B7 SWAP2 SWAP1 PUSH2 0x2BE9 JUMP JUMPDEST PUSH1 0x40 MLOAD DUP1 SWAP2 SUB SWAP1 RETURN JUMPDEST CALLVALUE DUP1 ISZERO PUSH2 0x4CB JUMPI PUSH0 DUP1 REVERT JUMPDEST POP PUSH2 0x4E6 PUSH1 0x4 DUP1 CALLDATASIZE SUB DUP2 ADD SWAP1 PUSH2 0x4E1 SWAP2 SWAP1 PUSH2 0x2784 JUMP JUMPDEST PUSH2 0x11F8 JUMP JUMPDEST PUSH1 0x40 MLOAD PUSH2 0x4F3 SWAP2 SWAP1 PUSH2 0x2CB9 JUMP JUMPDEST PUSH1 0x40 MLOAD DUP1 SWAP2 SUB SWAP1 RETURN JUMPDEST CALLVALUE DUP1 ISZERO PUSH2 0x507 JUMPI PUSH0 DUP1 REVERT JUMPDEST POP PUSH2 0x510 PUSH2 0x12C0 JUMP JUMPDEST PUSH1 0x40 MLOAD PUSH2 0x51D SWAP2 SWAP1 PUSH2 0x2CF9 JUMP JUMPDEST PUSH1 0x40 MLOAD DUP1 SWAP2 SUB SWAP1 RETURN JUMPDEST CALLVALUE DUP1 ISZERO PUSH2 0x531 JUMPI PUSH0 DUP1 REVERT JUMPDEST POP PUSH2 0x53A PUSH2 0x12E5 JUMP JUMPDEST STOP JUMPDEST CALLVALUE DUP1 ISZERO PUSH2 0x547 JUMPI PUSH0 DUP1 REVERT JUMPDEST POP PUSH2 0x550 PUSH2 0x12F7 JUMP JUMPDEST PUSH1 0x40 MLOAD PUSH2 0x55D SWAP2 SWAP1 PUSH2 0x26F7 JUMP JUMPDEST PUSH1 0x40 MLOAD DUP1 SWAP2 SUB SWAP1 RETURN JUMPDEST CALLVALUE DUP1 ISZERO PUSH2 0x571 JUMPI PUSH0 DUP1 REVERT JUMPDEST POP PUSH2 0x58C PUSH1 0x4 DUP1 CALLDATASIZE SUB DUP2 ADD SWAP1 PUSH2 0x587 SWAP2 SWAP1 PUSH2 0x2D12 JUMP JUMPDEST PUSH2 0x131C JUMP JUMPDEST PUSH1 0x40 MLOAD PUSH2 0x599 SWAP2 SWAP1 PUSH2 0x26F7 JUMP JUMPDEST PUSH1 0x40 MLOAD DUP1 SWAP2 SUB SWAP1 RETURN JUMPDEST CALLVALUE DUP1 ISZERO PUSH2 0x5AD JUMPI PUSH0 DUP1 REVERT JUMPDEST POP PUSH2 0x5C8 PUSH1 0x4 DUP1 CALLDATASIZE SUB DUP2 ADD SWAP1 PUSH2 0x5C3 SWAP2 SWAP1 PUSH2 0x2D50 JUMP JUMPDEST PUSH2 0x1364 JUMP JUMPDEST STOP JUMPDEST CALLVALUE DUP1 ISZERO PUSH2 0x5D5 JUMPI PUSH0 DUP1 REVERT JUMPDEST POP PUSH2 0x5F0 PUSH1 0x4 DUP1 CALLDATASIZE SUB DUP2 ADD SWAP1 PUSH2 0x5EB SWAP2 SWAP1 PUSH2 0x2D7B JUMP JUMPDEST PUSH2 0x13EF JUMP JUMPDEST STOP JUMPDEST CALLVALUE DUP1 ISZERO PUSH2 0x5FD JUMPI PUSH0 DUP1 REVERT JUMPDEST POP PUSH2 0x606 PUSH2 0x140A JUMP JUMPDEST PUSH1 0x40 MLOAD PUSH2 0x613 SWAP2 SWAP1 PUSH2 0x2DDC JUMP JUMPDEST PUSH1 0x40 MLOAD DUP1 SWAP2 SUB SWAP1 RETURN JUMPDEST CALLVALUE DUP1 ISZERO PUSH2 0x627 JUMPI PUSH0 DUP1 REVERT JUMPDEST POP PUSH2 0x642 PUSH1 0x4 DUP1 CALLDATASIZE SUB DUP2 ADD SWAP1 PUSH2 0x63D SWAP2 SWAP1 PUSH2 0x2784 JUMP JUMPDEST PUSH2 0x141F JUMP JUMPDEST STOP JUMPDEST CALLVALUE DUP1 ISZERO PUSH2 0x64F JUMPI PUSH0 DUP1 REVERT JUMPDEST POP PUSH2 0x66A PUSH1 0x4 DUP1 CALLDATASIZE SUB DUP2 ADD SWAP1 PUSH2 0x665 SWAP2 SWAP1 PUSH2 0x2784 JUMP JUMPDEST PUSH2 0x14D8 JUMP JUMPDEST STOP JUMPDEST CALLVALUE DUP1 ISZERO PUSH2 0x677 JUMPI PUSH0 DUP1 REVERT JUMPDEST POP PUSH2 0x680 PUSH2 0x162E JUMP JUMPDEST PUSH1 0x40 MLOAD PUSH2 0x68D SWAP2 SWAP1 PUSH2 0x26F7 JUMP JUMPDEST PUSH1 0x40 MLOAD DUP1 SWAP2 SUB SWAP1 RETURN JUMPDEST CALLVALUE DUP1 ISZERO PUSH2 0x6A1 JUMPI PUSH0 DUP1 REVERT JUMPDEST POP PUSH2 0x6BC PUSH1 0x4 DUP1 CALLDATASIZE SUB DUP2 ADD SWAP1 PUSH2 0x6B7 SWAP2 SWAP1 PUSH2 0x2784 JUMP JUMPDEST PUSH2 0x1656 JUMP JUMPDEST PUSH1 0x40 MLOAD PUSH2 0x6C9 SWAP2 SWAP1 PUSH2 0x2DDC JUMP JUMPDEST PUSH1 0x40 MLOAD DUP1 SWAP2 SUB SWAP1 RETURN JUMPDEST CALLVALUE DUP1 ISZERO PUSH2 0x6DD JUMPI PUSH0 DUP1 REVERT JUMPDEST POP PUSH2 0x6E6 PUSH2 0x16A8 JUMP JUMPDEST PUSH1 0x40 MLOAD PUSH2 0x6F3 SWAP2 SWAP1 PUSH2 0x2BA9 JUMP JUMPDEST PUSH1 0x40 MLOAD DUP1 SWAP2 SUB SWAP1 RETURN JUMPDEST CALLVALUE DUP1 ISZERO PUSH2 0x707 JUMPI PUSH0 DUP1 REVERT JUMPDEST POP PUSH2 0x722 PUSH1 0x4 DUP1 CALLDATASIZE SUB DUP2 ADD SWAP1 PUSH2 0x71D SWAP2 SWAP1 PUSH2 0x2784 JUMP JUMPDEST PUSH2 0x1734 JUMP JUMPDEST PUSH1 0x40 MLOAD PUSH2 0x72F SWAP2 SWAP1 PUSH2 0x2DDC JUMP JUMPDEST PUSH1 0x40 MLOAD DUP1 SWAP2 SUB SWAP1 RETURN JUMPDEST CALLVALUE DUP1 ISZERO PUSH2 0x743 JUMPI PUSH0 DUP1 REVERT JUMPDEST POP PUSH2 0x74C PUSH2 0x1786 JUMP JUMPDEST PUSH1 0x40 MLOAD PUSH2 0x759 SWAP2 SWAP1 PUSH2 0x2E15 JUMP JUMPDEST PUSH1 0x40 MLOAD DUP1 SWAP2 SUB SWAP1 RETURN JUMPDEST CALLVALUE DUP1 ISZERO PUSH2 0x76D JUMPI PUSH0 DUP1 REVERT JUMPDEST POP PUSH2 0x776 PUSH2 0x17AB JUMP JUMPDEST PUSH1 0x40 MLOAD PUSH2 0x783 SWAP2 SWAP1 PUSH2 0x2BA9 JUMP JUMPDEST PUSH1 0x40 MLOAD DUP1 SWAP2 SUB SWAP1 RETURN JUMPDEST CALLVALUE DUP1 ISZERO PUSH2 0x797 JUMPI PUSH0 DUP1 REVERT JUMPDEST POP PUSH2 0x7A0 PUSH2 0x183B JUMP JUMPDEST STOP JUMPDEST CALLVALUE DUP1 ISZERO PUSH2 0x7AD JUMPI PUSH0 DUP1 REVERT JUMPDEST POP PUSH2 0x7B6 PUSH2 0x184E JUMP JUMPDEST PUSH1 0x40 MLOAD PUSH2 0x7C3 SWAP2 SWAP1 PUSH2 0x2E3D JUMP JUMPDEST PUSH1 0x40 MLOAD DUP1 SWAP2 SUB SWAP1 RETURN JUMPDEST CALLVALUE DUP1 ISZERO PUSH2 0x7D7 JUMPI PUSH0 DUP1 REVERT JUMPDEST POP PUSH2 0x7E0 PUSH2 0x1854 JUMP JUMPDEST PUSH1 0x40 MLOAD PUSH2 0x7ED SWAP2 SWAP1 PUSH2 0x26F7 JUMP JUMPDEST PUSH1 0x40 MLOAD DUP1 SWAP2 SUB SWAP1 RETURN JUMPDEST CALLVALUE DUP1 ISZERO PUSH2 0x801 JUMPI PUSH0 DUP1 REVERT JUMPDEST POP PUSH2 0x80A PUSH2 0x187C JUMP JUMPDEST PUSH1 0x40 MLOAD PUSH2 0x817 SWAP2 SWAP1 PUSH2 0x26F7 JUMP JUMPDEST PUSH1 0x40 MLOAD DUP1 SWAP2 SUB SWAP1 RETURN JUMPDEST CALLVALUE DUP1 ISZERO PUSH2 0x82B JUMPI PUSH0 DUP1 REVERT JUMPDEST POP PUSH2 0x834 PUSH2 0x18A4 JUMP JUMPDEST STOP JUMPDEST CALLVALUE DUP1 ISZERO PUSH2 0x841 JUMPI PUSH0 DUP1 REVERT JUMPDEST POP PUSH2 0x84A PUSH2 0x18B6 JUMP JUMPDEST PUSH1 0x40 MLOAD PUSH2 0x857 SWAP2 SWAP1 PUSH2 0x26F7 JUMP JUMPDEST PUSH1 0x40 MLOAD DUP1 SWAP2 SUB SWAP1 RETURN JUMPDEST CALLVALUE DUP1 ISZERO PUSH2 0x86B JUMPI PUSH0 DUP1 REVERT JUMPDEST POP PUSH2 0x886 PUSH1 0x4 DUP1 CALLDATASIZE SUB DUP2 ADD SWAP1 PUSH2 0x881 SWAP2 SWAP1 PUSH2 0x2784 JUMP JUMPDEST PUSH2 0x18DD JUMP JUMPDEST STOP JUMPDEST CALLVALUE DUP1 ISZERO PUSH2 0x893 JUMPI PUSH0 DUP1 REVERT JUMPDEST POP PUSH2 0x8AE PUSH1 0x4 DUP1 CALLDATASIZE SUB DUP2 ADD SWAP1 PUSH2 0x8A9 SWAP2 SWAP1 PUSH2 0x2784 JUMP JUMPDEST PUSH2 0x19CD JUMP JUMPDEST STOP JUMPDEST CALLVALUE DUP1 ISZERO PUSH2 0x8BB JUMPI PUSH0 DUP1 REVERT JUMPDEST POP PUSH2 0x8C4 PUSH2 0x1ABD JUMP JUMPDEST PUSH1 0x40 MLOAD PUSH2 0x8D1 SWAP2 SWAP1 PUSH2 0x2E76 JUMP JUMPDEST PUSH1 0x40 MLOAD DUP1 SWAP2 SUB SWAP1 RETURN JUMPDEST CALLVALUE DUP1 ISZERO PUSH2 0x8E5 JUMPI PUSH0 DUP1 REVERT JUMPDEST POP PUSH2 0x900 PUSH1 0x4 DUP1 CALLDATASIZE SUB DUP2 ADD SWAP1 PUSH2 0x8FB SWAP2 SWAP1 PUSH2 0x2784 JUMP JUMPDEST PUSH2 0x1AE2 JUMP JUMPDEST PUSH1 0x40 MLOAD PUSH2 0x90D SWAP2 SWAP1 PUSH2 0x2DDC JUMP JUMPDEST PUSH1 0x40 MLOAD DUP1 SWAP2 SUB SWAP1 RETURN JUMPDEST CALLVALUE DUP1 ISZERO PUSH2 0x921 JUMPI PUSH0 DUP1 REVERT JUMPDEST POP PUSH2 0x93C PUSH1 0x4 DUP1 CALLDATASIZE SUB DUP2 ADD SWAP1 PUSH2 0x937 SWAP2 SWAP1 PUSH2 0x2E8F JUMP JUMPDEST PUSH2 0x1B83 JUMP JUMPDEST PUSH1 0x40 MLOAD PUSH2 0x949 SWAP2 SWAP1 PUSH2 0x2BA9 JUMP JUMPDEST PUSH1 0x40 MLOAD DUP1 SWAP2 SUB SWAP1 RETURN JUMPDEST CALLVALUE DUP1 ISZERO PUSH2 0x95D JUMPI PUSH0 DUP1 REVERT JUMPDEST POP PUSH2 0x966 PUSH2 0x1C2B JUMP JUMPDEST PUSH1 0x40 MLOAD PUSH2 0x973 SWAP2 SWAP1 PUSH2 0x26F7 JUMP JUMPDEST PUSH1 0x40 MLOAD DUP1 SWAP2 SUB SWAP1 RETURN JUMPDEST CALLVALUE DUP1 ISZERO PUSH2 0x987 JUMPI PUSH0 DUP1 REVERT JUMPDEST POP PUSH2 0x9A2 PUSH1 0x4 DUP1 CALLDATASIZE SUB DUP2 ADD SWAP1 PUSH2 0x99D SWAP2 SWAP1 PUSH2 0x2784 JUMP JUMPDEST PUSH2 0x1C53 JUMP JUMPDEST PUSH1 0x40 MLOAD PUSH2 0x9AF SWAP2 SWAP1 PUSH2 0x2DDC JUMP JUMPDEST PUSH1 0x40 MLOAD DUP1 SWAP2 SUB SWAP1 RETURN JUMPDEST CALLVALUE DUP1 ISZERO PUSH2 0x9C3 JUMPI PUSH0 DUP1 REVERT JUMPDEST POP PUSH2 0x9DE PUSH1 0x4 DUP1 CALLDATASIZE SUB DUP2 ADD SWAP1 PUSH2 0x9D9 SWAP2 SWAP1 PUSH2 0x2784 JUMP JUMPDEST PUSH2 0x1C70 JUMP JUMPDEST STOP JUMPDEST CALLVALUE DUP1 ISZERO PUSH2 0x9EB JUMPI PUSH0 DUP1 REVERT JUMPDEST POP PUSH2 0x9F4 PUSH2 0x1D57 JUMP JUMPDEST PUSH1 0x40 MLOAD PUSH2 0xA01 SWAP2 SWAP1 PUSH2 0x2EF6 JUMP JUMPDEST PUSH1 0x40 MLOAD DUP1 SWAP2 SUB SWAP1 RETURN JUMPDEST CALLVALUE DUP1 ISZERO PUSH2 0xA15 JUMPI PUSH0 DUP1 REVERT JUMPDEST POP PUSH2 0xA30 PUSH1 0x4 DUP1 CALLDATASIZE SUB DUP2 ADD SWAP1 PUSH2 0xA2B SWAP2 SWAP1 PUSH2 0x2784 JUMP JUMPDEST PUSH2 0x1D7C JUMP JUMPDEST STOP JUMPDEST CALLVALUE DUP1 ISZERO PUSH2 0xA3D JUMPI PUSH0 DUP1 REVERT JUMPDEST POP PUSH2 0xA58 PUSH1 0x4 DUP1 CALLDATASIZE SUB DUP2 ADD SWAP1 PUSH2 0xA53 SWAP2 SWAP1 PUSH2 0x2784 JUMP JUMPDEST PUSH2 0x1E6C JUMP JUMPDEST STOP JUMPDEST CALLVALUE DUP1 ISZERO PUSH2 0xA65 JUMPI PUSH0 DUP1 REVERT JUMPDEST POP PUSH2 0xA80 PUSH1 0x4 DUP1 CALLDATASIZE SUB DUP2 ADD SWAP1 PUSH2 0xA7B SWAP2 SWAP1 PUSH2 0x2784 JUMP JUMPDEST PUSH2 0x1F5C JUMP JUMPDEST STOP JUMPDEST CALLVALUE DUP1 ISZERO PUSH2 0xA8D JUMPI PUSH0 DUP1 REVERT JUMPDEST POP PUSH2 0xAA8 PUSH1 0x4 DUP1 CALLDATASIZE SUB DUP2 ADD SWAP1 PUSH2 0xAA3 SWAP2 SWAP1 PUSH2 0x2784 JUMP JUMPDEST PUSH2 0x1FA7 JUMP JUMPDEST PUSH1 0x40 MLOAD PUSH2 0xAB5 SWAP2 SWAP1 PUSH2 0x2DDC JUMP JUMPDEST PUSH1 0x40 MLOAD DUP1 SWAP2 SUB SWAP1 RETURN JUMPDEST CALLVALUE DUP1 ISZERO PUSH2 0xAC9 JUMPI PUSH0 DUP1 REVERT JUMPDEST POP PUSH2 0xAE4 PUSH1 0x4 DUP1 CALLDATASIZE SUB DUP2 ADD SWAP1 PUSH2 0xADF SWAP2 SWAP1 PUSH2 0x2F39 JUMP JUMPDEST PUSH2 0x2048 JUMP JUMPDEST STOP JUMPDEST CALLVALUE DUP1 ISZERO PUSH2 0xAF1 JUMPI PUSH0 DUP1 REVERT JUMPDEST POP PUSH2 0xB0C PUSH1 0x4 DUP1 CALLDATASIZE SUB DUP2 ADD SWAP1 PUSH2 0xB07 SWAP2 SWAP1 PUSH2 0x2784 JUMP JUMPDEST PUSH2 0x20A8 JUMP JUMPDEST STOP JUMPDEST CALLVALUE DUP1 ISZERO PUSH2 0xB19 JUMPI PUSH0 DUP1 REVERT JUMPDEST POP PUSH2 0xB34 PUSH1 0x4 DUP1 CALLDATASIZE SUB DUP2 ADD SWAP1 PUSH2 0xB2F SWAP2 SWAP1 PUSH2 0x2784 JUMP JUMPDEST PUSH2 0x212C JUMP JUMPDEST STOP JUMPDEST CALLVALUE DUP1 ISZERO PUSH2 0xB41 JUMPI PUSH0 DUP1 REVERT JUMPDEST POP PUSH2 0xB5C PUSH1 0x4 DUP1 CALLDATASIZE SUB DUP2 ADD SWAP1 PUSH2 0xB57 SWAP2 SWAP1 PUSH2 0x26AA JUMP JUMPDEST PUSH2 0x221C JUMP JUMPDEST STOP JUMPDEST PUSH2 0xB66 PUSH2 0x23AC JUMP JUMPDEST PUSH1 0x5 PUSH0 SWAP1 SLOAD SWAP1 PUSH2 0x100 EXP SWAP1 DIV PUSH20 0xFFFFFFFFFFFFFFFFFFFFFFFFFFFFFFFFFFFFFFFF AND PUSH20 0xFFFFFFFFFFFFFFFFFFFFFFFFFFFFFFFFFFFFFFFF AND CALLER PUSH20 0xFFFFFFFFFFFFFFFFFFFFFFFFFFFFFFFFFFFFFFFF AND EQ PUSH2 0xBF5 JUMPI PUSH1 0x40 MLOAD PUSH32 0x8C379A000000000000000000000000000000000000000000000000000000000 DUP2 MSTORE PUSH1 0x4 ADD PUSH2 0xBEC SWAP1 PUSH2 0x2FE7 JUMP JUMPDEST PUSH1 0x40 MLOAD DUP1 SWAP2 SUB SWAP1 REVERT JUMPDEST DUP1 PUSH1 0x3 PUSH0 DUP5 PUSH20 0xFFFFFFFFFFFFFFFFFFFFFFFFFFFFFFFFFFFFFFFF AND PUSH20 0xFFFFFFFFFFFFFFFFFFFFFFFFFFFFFFFFFFFFFFFF AND DUP2 MSTORE PUSH1 0x20 ADD SWAP1 DUP2 MSTORE PUSH1 0x20 ADD PUSH0 KECCAK256 PUSH0 PUSH2 0x100 EXP DUP2 SLOAD DUP2 PUSH20 0xFFFFFFFFFFFFFFFFFFFFFFFFFFFFFFFFFFFFFFFF MUL NOT AND SWAP1 DUP4 PUSH20 0xFFFFFFFFFFFFFFFFFFFFFFFFFFFFFFFFFFFFFFFF AND MUL OR SWAP1 SSTORE POP DUP1 PUSH20 0xFFFFFFFFFFFFFFFFFFFFFFFFFFFFFFFFFFFFFFFF AND DUP3 PUSH20 0xFFFFFFFFFFFFFFFFFFFFFFFFFFFFFFFFFFFFFFFF AND PUSH32 0x48E8EF3819015E9B1E8D36DDBBBC8CEFC90DBA7F69B711BDCA0C9A10B63B037F PUSH1 0x40 MLOAD PUSH1 0x40 MLOAD DUP1 SWAP2 SUB SWAP1 LOG3 POP POP JUMP JUMPDEST PUSH0 PUSH1 0x9 PUSH0 SWAP1 SLOAD SWAP1 PUSH2 0x100 EXP SWAP1 DIV PUSH20 0xFFFFFFFFFFFFFFFFFFFFFFFFFFFFFFFFFFFFFFFF AND SWAP1 POP SWAP1 JUMP JUMPDEST PUSH1 0x8 PUSH0 SWAP1 SLOAD SWAP1 PUSH2 0x100 EXP SWAP1 DIV PUSH20 0xFFFFFFFFFFFFFFFFFFFFFFFFFFFFFFFFFFFFFFFF AND DUP2 JUMP JUMPDEST PUSH1 0x3 PUSH1 0x20 MSTORE DUP1 PUSH0 MSTORE PUSH1 0x40 PUSH0 KECCAK256 PUSH0 SWAP2 POP SLOAD SWAP1 PUSH2 0x100 EXP SWAP1 DIV PUSH20 0xFFFFFFFFFFFFFFFFFFFFFFFFFFFFFFFFFFFFFFFF AND DUP2 JUMP JUMPDEST PUSH1 0x6 PUSH0 SWAP1 SLOAD SWAP1 PUSH2 0x100 EXP SWAP1 DIV PUSH20 0xFFFFFFFFFFFFFFFFFFFFFFFFFFFFFFFFFFFFFFFF AND DUP2 JUMP JUMPDEST PUSH1 0x5 PUSH0 SWAP1 SLOAD SWAP1 PUSH2 0x100 EXP SWAP1 DIV PUSH20 0xFFFFFFFFFFFFFFFFFFFFFFFFFFFFFFFFFFFFFFFF AND DUP2 JUMP JUMPDEST PUSH2 0xD9D PUSH2 0x23ED JUMP JUMPDEST PUSH0 PUSH20 0xFFFFFFFFFFFFFFFFFFFFFFFFFFFFFFFFFFFFFFFF AND DUP2 PUSH20 0xFFFFFFFFFFFFFFFFFFFFFFFFFFFFFFFFFFFFFFFF AND SUB PUSH2 0xE0B JUMPI PUSH1 0x40 MLOAD PUSH32 0x8C379A000000000000000000000000000000000000000000000000000000000 DUP2 MSTORE PUSH1 0x4 ADD PUSH2 0xE02 SWAP1 PUSH2 0x304F JUMP JUMPDEST PUSH1 0x40 MLOAD DUP1 SWAP2 SUB SWAP1 REVERT JUMPDEST DUP1 PUSH1 0x5 PUSH0 PUSH2 0x100 EXP DUP2 SLOAD DUP2 PUSH20 0xFFFFFFFFFFFFFFFFFFFFFFFFFFFFFFFFFFFFFFFF MUL NOT AND SWAP1 DUP4 PUSH20 0xFFFFFFFFFFFFFFFFFFFFFFFFFFFFFFFFFFFFFFFF AND MUL OR SWAP1 SSTORE POP POP JUMP JUMPDEST PUSH1 0x60 PUSH1 0x9 PUSH0 SWAP1 SLOAD SWAP1 PUSH2 0x100 EXP SWAP1 DIV PUSH20 0xFFFFFFFFFFFFFFFFFFFFFFFFFFFFFFFFFFFFFFFF AND PUSH20 0xFFFFFFFFFFFFFFFFFFFFFFFFFFFFFFFFFFFFFFFF AND CALLER PUSH20 0xFFFFFFFFFFFFFFFFFFFFFFFFFFFFFFFFFFFFFFFF AND EQ PUSH2 0xEDF JUMPI PUSH1 0x40 MLOAD PUSH32 0x8C379A000000000000000000000000000000000000000000000000000000000 DUP2 MSTORE PUSH1 0x4 ADD PUSH2 0xED6 SWAP1 PUSH2 0x30B7 JUMP JUMPDEST PUSH1 0x40 MLOAD DUP1 SWAP2 SUB SWAP1 REVERT JUMPDEST PUSH1 0xE PUSH0 SWAP1 SLOAD SWAP1 PUSH2 0x100 EXP SWAP1 DIV PUSH20 0xFFFFFFFFFFFFFFFFFFFFFFFFFFFFFFFFFFFFFFFF AND PUSH20 0xFFFFFFFFFFFFFFFFFFFFFFFFFFFFFFFFFFFFFFFF AND PUSH4 0x6A1ED362 DUP6 DUP6 DUP6 PUSH1 0x10 ADDRESS PUSH1 0x40 MLOAD DUP7 PUSH4 0xFFFFFFFF AND PUSH1 0xE0 SHL DUP2 MSTORE PUSH1 0x4 ADD PUSH2 0xF42 SWAP6 SWAP5 SWAP4 SWAP3 SWAP2 SWAP1 PUSH2 0x32D6 JUMP JUMPDEST PUSH0 PUSH1 0x40 MLOAD DUP1 DUP4 SUB DUP2 DUP7 GAS STATICCALL ISZERO DUP1 ISZERO PUSH2 0xF5C JUMPI RETURNDATASIZE PUSH0 DUP1 RETURNDATACOPY RETURNDATASIZE PUSH0 REVERT JUMPDEST POP POP POP POP PUSH1 0x40 MLOAD RETURNDATASIZE PUSH0 DUP3 RETURNDATACOPY RETURNDATASIZE PUSH1 0x1F NOT PUSH1 0x1F DUP3 ADD AND DUP3 ADD DUP1 PUSH1 0x40 MSTORE POP DUP2 ADD SWAP1 PUSH2 0xF84 SWAP2 SWAP1 PUSH2 0x33A3 JUMP JUMPDEST SWAP1 POP SWAP4 SWAP3 POP POP POP JUMP JUMPDEST PUSH2 0xF95 PUSH2 0x18B6 JUMP JUMPDEST PUSH20 0xFFFFFFFFFFFFFFFFFFFFFFFFFFFFFFFFFFFFFFFF AND CALLER PUSH20 0xFFFFFFFFFFFFFFFFFFFFFFFFFFFFFFFFFFFFFFFF AND EQ DUP1 PUSH2 0x101A JUMPI POP PUSH1 0x8 PUSH0 SWAP1 SLOAD SWAP1 PUSH2 0x100 EXP SWAP1 DIV PUSH20 0xFFFFFFFFFFFFFFFFFFFFFFFFFFFFFFFFFFFFFFFF AND PUSH20 0xFFFFFFFFFFFFFFFFFFFFFFFFFFFFFFFFFFFFFFFF AND CALLER PUSH20 0xFFFFFFFFFFFFFFFFFFFFFFFFFFFFFFFFFFFFFFFF AND EQ JUMPDEST PUSH2 0x1059 JUMPI PUSH1 0x40 MLOAD PUSH32 0x8C379A000000000000000000000000000000000000000000000000000000000 DUP2 MSTORE PUSH1 0x4 ADD PUSH2 0x1050 SWAP1 PUSH2 0x3434 JUMP JUMPDEST PUSH1 0x40 MLOAD DUP1 SWAP2 SUB SWAP1 REVERT JUMPDEST PUSH1 0x8 PUSH0 SWAP1 SLOAD SWAP1 PUSH2 0x100 EXP SWAP1 DIV PUSH20 0xFFFFFFFFFFFFFFFFFFFFFFFFFFFFFFFFFFFFFFFF AND PUSH20 0xFFFFFFFFFFFFFFFFFFFFFFFFFFFFFFFFFFFFFFFF AND PUSH4 0x306275BE DUP3 PUSH1 0x40 MLOAD DUP3 PUSH4 0xFFFFFFFF AND PUSH1 0xE0 SHL DUP2 MSTORE PUSH1 0x4 ADD PUSH2 0x10B3 SWAP2 SWAP1 PUSH2 0x26F7 JUMP JUMPDEST PUSH0 PUSH1 0x40 MLOAD DUP1 DUP4 SUB DUP2 PUSH0 DUP8 DUP1 EXTCODESIZE ISZERO DUP1 ISZERO PUSH2 0x10CA JUMPI PUSH0 DUP1 REVERT JUMPDEST POP GAS CALL ISZERO DUP1 ISZERO PUSH2 0x10DC JUMPI RETURNDATASIZE PUSH0 DUP1 RETURNDATACOPY RETURNDATASIZE PUSH0 REVERT JUMPDEST POP POP POP POP POP JUMP JUMPDEST PUSH2 0x10EB PUSH2 0x23ED JUMP JUMPDEST PUSH0 PUSH20 0xFFFFFFFFFFFFFFFFFFFFFFFFFFFFFFFFFFFFFFFF AND DUP2 PUSH20 0xFFFFFFFFFFFFFFFFFFFFFFFFFFFFFFFFFFFFFFFF AND SUB PUSH2 0x1159 JUMPI PUSH1 0x40 MLOAD PUSH32 0x8C379A000000000000000000000000000000000000000000000000000000000 DUP2 MSTORE PUSH1 0x4 ADD PUSH2 0x1150 SWAP1 PUSH2 0x349C JUMP JUMPDEST PUSH1 0x40 MLOAD DUP1 SWAP2 SUB SWAP1 REVERT JUMPDEST DUP1 PUSH1 0x6 PUSH0 PUSH2 0x100 EXP DUP2 SLOAD DUP2 PUSH20 0xFFFFFFFFFFFFFFFFFFFFFFFFFFFFFFFFFFFFFFFF MUL NOT AND SWAP1 DUP4 PUSH20 0xFFFFFFFFFFFFFFFFFFFFFFFFFFFFFFFFFFFFFFFF AND MUL OR SWAP1 SSTORE POP PUSH32 0x820C11A553E3F58735F11B502C4C13B5BDAAD97E61B6FE3BAFE7EAF4E09E94DE DUP2 PUSH1 0x40 MLOAD PUSH2 0x11C8 SWAP2 SWAP1 PUSH2 0x26F7 JUMP JUMPDEST PUSH1 0x40 MLOAD DUP1 SWAP2 SUB SWAP1 LOG1 POP JUMP JUMPDEST PUSH1 0x9 PUSH0 SWAP1 SLOAD SWAP1 PUSH2 0x100 EXP SWAP1 DIV PUSH20 0xFFFFFFFFFFFFFFFFFFFFFFFFFFFFFFFFFFFFFFFF AND DUP2 JUMP JUMPDEST PUSH1 0x60 PUSH1 0x2 PUSH0 DUP4 PUSH20 0xFFFFFFFFFFFFFFFFFFFFFFFFFFFFFFFFFFFFFFFF AND PUSH20 0xFFFFFFFFFFFFFFFFFFFFFFFFFFFFFFFFFFFFFFFF AND DUP2 MSTORE PUSH1 0x20 ADD SWAP1 DUP2 MSTORE PUSH1 0x20 ADD PUSH0 KECCAK256 DUP1 SLOAD DUP1 PUSH1 0x20 MUL PUSH1 0x20 ADD PUSH1 0x40 MLOAD SWAP1 DUP2 ADD PUSH1 0x40 MSTORE DUP1 SWAP3 SWAP2 SWAP1 DUP2 DUP2 MSTORE PUSH1 0x20 ADD DUP3 DUP1 SLOAD DUP1 ISZERO PUSH2 0x12B4 JUMPI PUSH1 0x20 MUL DUP3 ADD SWAP2 SWAP1 PUSH0 MSTORE PUSH1 0x20 PUSH0 KECCAK256 SWAP1 JUMPDEST DUP2 PUSH0 SWAP1 SLOAD SWAP1 PUSH2 0x100 EXP SWAP1 DIV PUSH20 0xFFFFFFFFFFFFFFFFFFFFFFFFFFFFFFFFFFFFFFFF AND PUSH20 0xFFFFFFFFFFFFFFFFFFFFFFFFFFFFFFFFFFFFFFFF AND DUP2 MSTORE PUSH1 0x20 ADD SWAP1 PUSH1 0x1 ADD SWAP1 DUP1 DUP4 GT PUSH2 0x126B JUMPI JUMPDEST POP POP POP POP POP SWAP1 POP SWAP2 SWAP1 POP JUMP JUMPDEST PUSH1 0xB PUSH0 SWAP1 SLOAD SWAP1 PUSH2 0x100 EXP SWAP1 DIV PUSH20 0xFFFFFFFFFFFFFFFFFFFFFFFFFFFFFFFFFFFFFFFF AND DUP2 JUMP JUMPDEST PUSH2 0x12ED PUSH2 0x23ED JUMP JUMPDEST PUSH2 0x12F5 PUSH2 0x2474 JUMP JUMPDEST JUMP JUMPDEST PUSH1 0x4 PUSH0 SWAP1 SLOAD SWAP1 PUSH2 0x100 EXP SWAP1 DIV PUSH20 0xFFFFFFFFFFFFFFFFFFFFFFFFFFFFFFFFFFFFFFFF AND DUP2 JUMP JUMPDEST PUSH1 0x2 PUSH1 0x20 MSTORE DUP2 PUSH0 MSTORE PUSH1 0x40 PUSH0 KECCAK256 DUP2 DUP2 SLOAD DUP2 LT PUSH2 0x1335 JUMPI PUSH0 DUP1 REVERT JUMPDEST SWAP1 PUSH0 MSTORE PUSH1 0x20 PUSH0 KECCAK256 ADD PUSH0 SWAP2 POP SWAP2 POP SWAP1 SLOAD SWAP1 PUSH2 0x100 EXP SWAP1 DIV PUSH20 0xFFFFFFFFFFFFFFFFFFFFFFFFFFFFFFFFFFFFFFFF AND DUP2 JUMP JUMPDEST PUSH2 0x136C PUSH2 0x23ED JUMP JUMPDEST PUSH0 DUP2 GT PUSH2 0x13AE JUMPI PUSH1 0x40 MLOAD PUSH32 0x8C379A000000000000000000000000000000000000000000000000000000000 DUP2 MSTORE PUSH1 0x4 ADD PUSH2 0x13A5 SWAP1 PUSH2 0x3504 JUMP JUMPDEST PUSH1 0x40 MLOAD DUP1 SWAP2 SUB SWAP1 REVERT JUMPDEST DUP1 PUSH1 0xF DUP2 SWAP1 SSTORE POP PUSH32 0x7BE9264FD4BACF6FFDD1CBFBE4FB3751923B2540828ADF64102E4F5B096A7FE5 DUP2 PUSH1 0x40 MLOAD PUSH2 0x13E4 SWAP2 SWAP1 PUSH2 0x2E3D JUMP JUMPDEST PUSH1 0x40 MLOAD DUP1 SWAP2 SUB SWAP1 LOG1 POP JUMP JUMPDEST PUSH2 0x13F7 PUSH2 0x23ED JUMP JUMPDEST DUP1 PUSH1 0x10 SWAP1 DUP2 PUSH2 0x1406 SWAP2 SWAP1 PUSH2 0x36A4 JUMP JUMPDEST POP POP JUMP JUMPDEST PUSH0 DUP1 PUSH1 0x14 SWAP1 SLOAD SWAP1 PUSH2 0x100 EXP SWAP1 DIV PUSH1 0xFF AND SWAP1 POP SWAP1 JUMP JUMPDEST PUSH2 0x1427 PUSH2 0x23ED JUMP JUMPDEST PUSH0 PUSH20 0xFFFFFFFFFFFFFFFFFFFFFFFFFFFFFFFFFFFFFFFF AND DUP2 PUSH20 0xFFFFFFFFFFFFFFFFFFFFFFFFFFFFFFFFFFFFFFFF AND SUB PUSH2 0x1495 JUMPI PUSH1 0x40 MLOAD PUSH32 0x8C379A000000000000000000000000000000000000000000000000000000000 DUP2 MSTORE PUSH1 0x4 ADD PUSH2 0x148C SWAP1 PUSH2 0x37BD JUMP JUMPDEST PUSH1 0x40 MLOAD DUP1 SWAP2 SUB SWAP1 REVERT JUMPDEST DUP1 PUSH1 0xB PUSH0 PUSH2 0x100 EXP DUP2 SLOAD DUP2 PUSH20 0xFFFFFFFFFFFFFFFFFFFFFFFFFFFFFFFFFFFFFFFF MUL NOT AND SWAP1 DUP4 PUSH20 0xFFFFFFFFFFFFFFFFFFFFFFFFFFFFFFFFFFFFFFFF AND MUL OR SWAP1 SSTORE POP POP JUMP JUMPDEST PUSH2 0x14E0 PUSH2 0x18B6 JUMP JUMPDEST PUSH20 0xFFFFFFFFFFFFFFFFFFFFFFFFFFFFFFFFFFFFFFFF AND CALLER PUSH20 0xFFFFFFFFFFFFFFFFFFFFFFFFFFFFFFFFFFFFFFFF AND EQ DUP1 PUSH2 0x1565 JUMPI POP PUSH1 0x8 PUSH0 SWAP1 SLOAD SWAP1 PUSH2 0x100 EXP SWAP1 DIV PUSH20 0xFFFFFFFFFFFFFFFFFFFFFFFFFFFFFFFFFFFFFFFF AND PUSH20 0xFFFFFFFFFFFFFFFFFFFFFFFFFFFFFFFFFFFFFFFF AND CALLER PUSH20 0xFFFFFFFFFFFFFFFFFFFFFFFFFFFFFFFFFFFFFFFF AND EQ JUMPDEST PUSH2 0x15A4 JUMPI PUSH1 0x40 MLOAD PUSH32 0x8C379A000000000000000000000000000000000000000000000000000000000 DUP2 MSTORE PUSH1 0x4 ADD PUSH2 0x159B SWAP1 PUSH2 0x3434 JUMP JUMPDEST PUSH1 0x40 MLOAD DUP1 SWAP2 SUB SWAP1 REVERT JUMPDEST PUSH1 0x8 PUSH0 SWAP1 SLOAD SWAP1 PUSH2 0x100 EXP SWAP1 DIV PUSH20 0xFFFFFFFFFFFFFFFFFFFFFFFFFFFFFFFFFFFFFFFF AND PUSH20 0xFFFFFFFFFFFFFFFFFFFFFFFFFFFFFFFFFFFFFFFF AND PUSH4 0x6247F6F2 DUP3 PUSH1 0x40 MLOAD DUP3 PUSH4 0xFFFFFFFF AND PUSH1 0xE0 SHL DUP2 MSTORE PUSH1 0x4 ADD PUSH2 0x15FE SWAP2 SWAP1 PUSH2 0x26F7 JUMP JUMPDEST PUSH0 PUSH1 0x40 MLOAD DUP1 DUP4 SUB DUP2 PUSH0 DUP8 DUP1 EXTCODESIZE ISZERO DUP1 ISZERO PUSH2 0x1615 JUMPI PUSH0 DUP1 REVERT JUMPDEST POP GAS CALL ISZERO DUP1 ISZERO PUSH2 0x1627 JUMPI RETURNDATASIZE PUSH0 DUP1 RETURNDATACOPY RETURNDATASIZE PUSH0 REVERT JUMPDEST POP POP POP POP POP JUMP JUMPDEST PUSH0 PUSH1 0x4 PUSH0 SWAP1 SLOAD SWAP1 PUSH2 0x100 EXP SWAP1 DIV PUSH20 0xFFFFFFFFFFFFFFFFFFFFFFFFFFFFFFFFFFFFFFFF AND SWAP1 POP SWAP1 JUMP JUMPDEST PUSH0 PUSH1 0xC PUSH0 DUP4 PUSH20 0xFFFFFFFFFFFFFFFFFFFFFFFFFFFFFFFFFFFFFFFF AND PUSH20 0xFFFFFFFFFFFFFFFFFFFFFFFFFFFFFFFFFFFFFFFF AND DUP2 MSTORE PUSH1 0x20 ADD SWAP1 DUP2 MSTORE PUSH1 0x20 ADD PUSH0 KECCAK256 PUSH0 SWAP1 SLOAD SWAP1 PUSH2 0x100 EXP SWAP1 DIV PUSH1 0xFF AND SWAP1 POP SWAP2 SWAP1 POP JUMP JUMPDEST PUSH1 0x10 DUP1 SLOAD PUSH2 0x16B5 SWAP1 PUSH2 0x31F3 JUMP JUMPDEST DUP1 PUSH1 0x1F ADD PUSH1 0x20 DUP1 SWAP2 DIV MUL PUSH1 0x20 ADD PUSH1 0x40 MLOAD SWAP1 DUP2 ADD PUSH1 0x40 MSTORE DUP1 SWAP3 SWAP2 SWAP1 DUP2 DUP2 MSTORE PUSH1 0x20 ADD DUP3 DUP1 SLOAD PUSH2 0x16E1 SWAP1 PUSH2 0x31F3 JUMP JUMPDEST DUP1 ISZERO PUSH2 0x172C JUMPI DUP1 PUSH1 0x1F LT PUSH2 0x1703 JUMPI PUSH2 0x100 DUP1 DUP4 SLOAD DIV MUL DUP4 MSTORE SWAP2 PUSH1 0x20 ADD SWAP2 PUSH2 0x172C JUMP JUMPDEST DUP3 ADD SWAP2 SWAP1 PUSH0 MSTORE PUSH1 0x20 PUSH0 KECCAK256 SWAP1 JUMPDEST DUP2 SLOAD DUP2 MSTORE SWAP1 PUSH1 0x1 ADD SWAP1 PUSH1 0x20 ADD DUP1 DUP4 GT PUSH2 0x170F JUMPI DUP3 SWAP1 SUB PUSH1 0x1F AND DUP3 ADD SWAP2 JUMPDEST POP POP POP POP POP DUP2 JUMP JUMPDEST PUSH0 PUSH1 0xD PUSH0 DUP4 PUSH20 0xFFFFFFFFFFFFFFFFFFFFFFFFFFFFFFFFFFFFFFFF AND PUSH20 0xFFFFFFFFFFFFFFFFFFFFFFFFFFFFFFFFFFFFFFFF AND DUP2 MSTORE PUSH1 0x20 ADD SWAP1 DUP2 MSTORE PUSH1 0x20 ADD PUSH0 KECCAK256 PUSH0 SWAP1 SLOAD SWAP1 PUSH2 0x100 EXP SWAP1 DIV PUSH1 0xFF AND SWAP1 POP SWAP2 SWAP1 POP JUMP JUMPDEST PUSH1 0xE PUSH0 SWAP1 SLOAD SWAP1 PUSH2 0x100 EXP SWAP1 DIV PUSH20 0xFFFFFFFFFFFFFFFFFFFFFFFFFFFFFFFFFFFFFFFF AND DUP2 JUMP JUMPDEST PUSH1 0x60 PUSH1 0x10 DUP1 SLOAD PUSH2 0x17BA SWAP1 PUSH2 0x31F3 JUMP JUMPDEST DUP1 PUSH1 0x1F ADD PUSH1 0x20 DUP1 SWAP2 DIV MUL PUSH1 0x20 ADD PUSH1 0x40 MLOAD SWAP1 DUP2 ADD PUSH1 0x40 MSTORE DUP1 SWAP3 SWAP2 SWAP1 DUP2 DUP2 MSTORE PUSH1 0x20 ADD DUP3 DUP1 SLOAD PUSH2 0x17E6 SWAP1 PUSH2 0x31F3 JUMP JUMPDEST DUP1 ISZERO PUSH2 0x1831 JUMPI DUP1 PUSH1 0x1F LT PUSH2 0x1808 JUMPI PUSH2 0x100 DUP1 DUP4 SLOAD DIV MUL DUP4 MSTORE SWAP2 PUSH1 0x20 ADD SWAP2 PUSH2 0x1831 JUMP JUMPDEST DUP3 ADD SWAP2 SWAP1 PUSH0 MSTORE PUSH1 0x20 PUSH0 KECCAK256 SWAP1 JUMPDEST DUP2 SLOAD DUP2 MSTORE SWAP1 PUSH1 0x1 ADD SWAP1 PUSH1 0x20 ADD DUP1 DUP4 GT PUSH2 0x1814 JUMPI DUP3 SWAP1 SUB PUSH1 0x1F AND DUP3 ADD SWAP2 JUMPDEST POP POP POP POP POP SWAP1 POP SWAP1 JUMP JUMPDEST PUSH2 0x1843 PUSH2 0x23ED JUMP JUMPDEST PUSH2 0x184C PUSH0 PUSH2 0x24D5 JUMP JUMPDEST JUMP JUMPDEST PUSH1 0xF SLOAD DUP2 JUMP JUMPDEST PUSH0 PUSH1 0xA PUSH0 SWAP1 SLOAD SWAP1 PUSH2 0x100 EXP SWAP1 DIV PUSH20 0xFFFFFFFFFFFFFFFFFFFFFFFFFFFFFFFFFFFFFFFF AND SWAP1 POP SWAP1 JUMP JUMPDEST PUSH0 PUSH1 0x5 PUSH0 SWAP1 SLOAD SWAP1 PUSH2 0x100 EXP SWAP1 DIV PUSH20 0xFFFFFFFFFFFFFFFFFFFFFFFFFFFFFFFFFFFFFFFF AND SWAP1 POP SWAP1 JUMP JUMPDEST PUSH2 0x18AC PUSH2 0x23ED JUMP JUMPDEST PUSH2 0x18B4 PUSH2 0x2596 JUMP JUMPDEST JUMP JUMPDEST PUSH0 DUP1 PUSH0 SWAP1 SLOAD SWAP1 PUSH2 0x100 EXP SWAP1 DIV PUSH20 0xFFFFFFFFFFFFFFFFFFFFFFFFFFFFFFFFFFFFFFFF AND SWAP1 POP SWAP1 JUMP JUMPDEST PUSH2 0x18E5 PUSH2 0x23ED JUMP JUMPDEST PUSH0 PUSH20 0xFFFFFFFFFFFFFFFFFFFFFFFFFFFFFFFFFFFFFFFF AND DUP2 PUSH20 0xFFFFFFFFFFFFFFFFFFFFFFFFFFFFFFFFFFFFFFFF AND SUB PUSH2 0x1953 JUMPI PUSH1 0x40 MLOAD PUSH32 0x8C379A000000000000000000000000000000000000000000000000000000000 DUP2 MSTORE PUSH1 0x4 ADD PUSH2 0x194A SWAP1 PUSH2 0x349C JUMP JUMPDEST PUSH1 0x40 MLOAD DUP1 SWAP2 SUB SWAP1 REVERT JUMPDEST DUP1 PUSH1 0x9 PUSH0 PUSH2 0x100 EXP DUP2 SLOAD DUP2 PUSH20 0xFFFFFFFFFFFFFFFFFFFFFFFFFFFFFFFFFFFFFFFF MUL NOT AND SWAP1 DUP4 PUSH20 0xFFFFFFFFFFFFFFFFFFFFFFFFFFFFFFFFFFFFFFFF AND MUL OR SWAP1 SSTORE POP PUSH32 0x12E10E0ACD0F94FC9B2D033A01586C1255F1D396A6A2CE1C02CC9FCA05774458 DUP2 PUSH1 0x40 MLOAD PUSH2 0x19C2 SWAP2 SWAP1 PUSH2 0x26F7 JUMP JUMPDEST PUSH1 0x40 MLOAD DUP1 SWAP2 SUB SWAP1 LOG1 POP JUMP JUMPDEST PUSH2 0x19D5 PUSH2 0x23ED JUMP JUMPDEST PUSH0 PUSH20 0xFFFFFFFFFFFFFFFFFFFFFFFFFFFFFFFFFFFFFFFF AND DUP2 PUSH20 0xFFFFFFFFFFFFFFFFFFFFFFFFFFFFFFFFFFFFFFFF AND SUB PUSH2 0x1A43 JUMPI PUSH1 0x40 MLOAD PUSH32 0x8C379A000000000000000000000000000000000000000000000000000000000 DUP2 MSTORE PUSH1 0x4 ADD PUSH2 0x1A3A SWAP1 PUSH2 0x349C JUMP JUMPDEST PUSH1 0x40 MLOAD DUP1 SWAP2 SUB SWAP1 REVERT JUMPDEST DUP1 PUSH1 0x7 PUSH0 PUSH2 0x100 EXP DUP2 SLOAD DUP2 PUSH20 0xFFFFFFFFFFFFFFFFFFFFFFFFFFFFFFFFFFFFFFFF MUL NOT AND SWAP1 DUP4 PUSH20 0xFFFFFFFFFFFFFFFFFFFFFFFFFFFFFFFFFFFFFFFF AND MUL OR SWAP1 SSTORE POP PUSH32 0x39A2470DCB92DEF89F4D008F638AB6D63AC78547BF3D6CCFEBF542711A0503C7 DUP2 PUSH1 0x40 MLOAD PUSH2 0x1AB2 SWAP2 SWAP1 PUSH2 0x26F7 JUMP JUMPDEST PUSH1 0x40 MLOAD DUP1 SWAP2 SUB SWAP1 LOG1 POP JUMP JUMPDEST PUSH1 0x7 PUSH0 SWAP1 SLOAD SWAP1 PUSH2 0x100 EXP SWAP1 DIV PUSH20 0xFFFFFFFFFFFFFFFFFFFFFFFFFFFFFFFFFFFFFFFF AND DUP2 JUMP JUMPDEST PUSH0 PUSH1 0x8 PUSH0 SWAP1 SLOAD SWAP1 PUSH2 0x100 EXP SWAP1 DIV PUSH20 0xFFFFFFFFFFFFFFFFFFFFFFFFFFFFFFFFFFFFFFFF AND PUSH20 0xFFFFFFFFFFFFFFFFFFFFFFFFFFFFFFFFFFFFFFFF AND PUSH4 0xB5AF090F DUP4 PUSH1 0x40 MLOAD DUP3 PUSH4 0xFFFFFFFF AND PUSH1 0xE0 SHL DUP2 MSTORE PUSH1 0x4 ADD PUSH2 0x1B3D SWAP2 SWAP1 PUSH2 0x26F7 JUMP JUMPDEST PUSH1 0x20 PUSH1 0x40 MLOAD DUP1 DUP4 SUB DUP2 DUP7 GAS STATICCALL ISZERO DUP1 ISZERO PUSH2 0x1B58 JUMPI RETURNDATASIZE PUSH0 DUP1 RETURNDATACOPY RETURNDATASIZE PUSH0 REVERT JUMPDEST POP POP POP POP PUSH1 0x40 MLOAD RETURNDATASIZE PUSH1 0x1F NOT PUSH1 0x1F DUP3 ADD AND DUP3 ADD DUP1 PUSH1 0x40 MSTORE POP DUP2 ADD SWAP1 PUSH2 0x1B7C SWAP2 SWAP1 PUSH2 0x37EF JUMP JUMPDEST SWAP1 POP SWAP2 SWAP1 POP JUMP JUMPDEST PUSH1 0x60 PUSH1 0xE PUSH0 SWAP1 SLOAD SWAP1 PUSH2 0x100 EXP SWAP1 DIV PUSH20 0xFFFFFFFFFFFFFFFFFFFFFFFFFFFFFFFFFFFFFFFF AND PUSH20 0xFFFFFFFFFFFFFFFFFFFFFFFFFFFFFFFFFFFFFFFF AND PUSH4 0xD413A115 DUP4 PUSH1 0x10 PUSH1 0x40 MLOAD DUP4 PUSH4 0xFFFFFFFF AND PUSH1 0xE0 SHL DUP2 MSTORE PUSH1 0x4 ADD PUSH2 0x1BE2 SWAP3 SWAP2 SWAP1 PUSH2 0x381A JUMP JUMPDEST PUSH0 PUSH1 0x40 MLOAD DUP1 DUP4 SUB DUP2 DUP7 GAS STATICCALL ISZERO DUP1 ISZERO PUSH2 0x1BFC JUMPI RETURNDATASIZE PUSH0 DUP1 RETURNDATACOPY RETURNDATASIZE PUSH0 REVERT JUMPDEST POP POP POP POP PUSH1 0x40 MLOAD RETURNDATASIZE PUSH0 DUP3 RETURNDATACOPY RETURNDATASIZE PUSH1 0x1F NOT PUSH1 0x1F DUP3 ADD AND DUP3 ADD DUP1 PUSH1 0x40 MSTORE POP DUP2 ADD SWAP1 PUSH2 0x1C24 SWAP2 SWAP1 PUSH2 0x33A3 JUMP JUMPDEST SWAP1 POP SWAP2 SWAP1 POP JUMP JUMPDEST PUSH0 PUSH1 0xB PUSH0 SWAP1 SLOAD SWAP1 PUSH2 0x100 EXP SWAP1 DIV PUSH20 0xFFFFFFFFFFFFFFFFFFFFFFFFFFFFFFFFFFFFFFFF AND SWAP1 POP SWAP1 JUMP JUMPDEST PUSH1 0xC PUSH1 0x20 MSTORE DUP1 PUSH0 MSTORE PUSH1 0x40 PUSH0 KECCAK256 PUSH0 SWAP2 POP SLOAD SWAP1 PUSH2 0x100 EXP SWAP1 DIV PUSH1 0xFF AND DUP2 JUMP JUMPDEST PUSH1 0x5 PUSH0 SWAP1 SLOAD SWAP1 PUSH2 0x100 EXP SWAP1 DIV PUSH20 0xFFFFFFFFFFFFFFFFFFFFFFFFFFFFFFFFFFFFFFFF AND PUSH20 0xFFFFFFFFFFFFFFFFFFFFFFFFFFFFFFFFFFFFFFFF AND CALLER PUSH20 0xFFFFFFFFFFFFFFFFFFFFFFFFFFFFFFFFFFFFFFFF AND EQ PUSH2 0x1CFF JUMPI PUSH1 0x40 MLOAD PUSH32 0x8C379A000000000000000000000000000000000000000000000000000000000 DUP2 MSTORE PUSH1 0x4 ADD PUSH2 0x1CF6 SWAP1 PUSH2 0x38BF JUMP JUMPDEST PUSH1 0x40 MLOAD DUP1 SWAP2 SUB SWAP1 REVERT JUMPDEST PUSH1 0x1 PUSH1 0xD PUSH0 DUP4 PUSH20 0xFFFFFFFFFFFFFFFFFFFFFFFFFFFFFFFFFFFFFFFF AND PUSH20 0xFFFFFFFFFFFFFFFFFFFFFFFFFFFFFFFFFFFFFFFF AND DUP2 MSTORE PUSH1 0x20 ADD SWAP1 DUP2 MSTORE PUSH1 0x20 ADD PUSH0 KECCAK256 PUSH0 PUSH2 0x100 EXP DUP2 SLOAD DUP2 PUSH1 0xFF MUL NOT AND SWAP1 DUP4 ISZERO ISZERO MUL OR SWAP1 SSTORE POP POP JUMP JUMPDEST PUSH1 0xA PUSH0 SWAP1 SLOAD SWAP1 PUSH2 0x100 EXP SWAP1 DIV PUSH20 0xFFFFFFFFFFFFFFFFFFFFFFFFFFFFFFFFFFFFFFFF AND DUP2 JUMP JUMPDEST PUSH2 0x1D84 PUSH2 0x23ED JUMP JUMPDEST PUSH0 PUSH20 0xFFFFFFFFFFFFFFFFFFFFFFFFFFFFFFFFFFFFFFFF AND DUP2 PUSH20 0xFFFFFFFFFFFFFFFFFFFFFFFFFFFFFFFFFFFFFFFF AND SUB PUSH2 0x1DF2 JUMPI PUSH1 0x40 MLOAD PUSH32 0x8C379A000000000000000000000000000000000000000000000000000000000 DUP2 MSTORE PUSH1 0x4 ADD PUSH2 0x1DE9 SWAP1 PUSH2 0x349C JUMP JUMPDEST PUSH1 0x40 MLOAD DUP1 SWAP2 SUB SWAP1 REVERT JUMPDEST DUP1 PUSH1 0x8 PUSH0 PUSH2 0x100 EXP DUP2 SLOAD DUP2 PUSH20 0xFFFFFFFFFFFFFFFFFFFFFFFFFFFFFFFFFFFFFFFF MUL NOT AND SWAP1 DUP4 PUSH20 0xFFFFFFFFFFFFFFFFFFFFFFFFFFFFFFFFFFFFFFFF AND MUL OR SWAP1 SSTORE POP PUSH32 0xCEDE453A12A109BC98CF30C47BE25A27DCD045508461CC9E9669A0185B648B89 DUP2 PUSH1 0x40 MLOAD PUSH2 0x1E61 SWAP2 SWAP1 PUSH2 0x26F7 JUMP JUMPDEST PUSH1 0x40 MLOAD DUP1 SWAP2 SUB SWAP1 LOG1 POP JUMP JUMPDEST PUSH2 0x1E74 PUSH2 0x23ED JUMP JUMPDEST PUSH0 PUSH20 0xFFFFFFFFFFFFFFFFFFFFFFFFFFFFFFFFFFFFFFFF AND DUP2 PUSH20 0xFFFFFFFFFFFFFFFFFFFFFFFFFFFFFFFFFFFFFFFF AND SUB PUSH2 0x1EE2 JUMPI PUSH1 0x40 MLOAD PUSH32 0x8C379A000000000000000000000000000000000000000000000000000000000 DUP2 MSTORE PUSH1 0x4 ADD PUSH2 0x1ED9 SWAP1 PUSH2 0x349C JUMP JUMPDEST PUSH1 0x40 MLOAD DUP1 SWAP2 SUB SWAP1 REVERT JUMPDEST DUP1 PUSH1 0xA PUSH0 PUSH2 0x100 EXP DUP2 SLOAD DUP2 PUSH20 0xFFFFFFFFFFFFFFFFFFFFFFFFFFFFFFFFFFFFFFFF MUL NOT AND SWAP1 DUP4 PUSH20 0xFFFFFFFFFFFFFFFFFFFFFFFFFFFFFFFFFFFFFFFF AND MUL OR SWAP1 SSTORE POP PUSH32 0xA01EDAA3CD8A419B7BB45B34F35E84DA238AF9490ECA1B318CB579F3179E29E4 DUP2 PUSH1 0x40 MLOAD PUSH2 0x1F51 SWAP2 SWAP1 PUSH2 0x26F7 JUMP JUMPDEST PUSH1 0x40 MLOAD DUP1 SWAP2 SUB SWAP1 LOG1 POP JUMP JUMPDEST PUSH2 0x1F64 PUSH2 0x23ED JUMP JUMPDEST DUP1 PUSH1 0x4 PUSH0 PUSH2 0x100 EXP DUP2 SLOAD DUP2 PUSH20 0xFFFFFFFFFFFFFFFFFFFFFFFFFFFFFFFFFFFFFFFF MUL NOT AND SWAP1 DUP4 PUSH20 0xFFFFFFFFFFFFFFFFFFFFFFFFFFFFFFFFFFFFFFFF AND MUL OR SWAP1 SSTORE POP POP JUMP JUMPDEST PUSH0 PUSH1 0x7 PUSH0 SWAP1 SLOAD SWAP1 PUSH2 0x100 EXP SWAP1 DIV PUSH20 0xFFFFFFFFFFFFFFFFFFFFFFFFFFFFFFFFFFFFFFFF AND PUSH20 0xFFFFFFFFFFFFFFFFFFFFFFFFFFFFFFFFFFFFFFFF AND PUSH4 0xF140B55F DUP4 PUSH1 0x40 MLOAD DUP3 PUSH4 0xFFFFFFFF AND PUSH1 0xE0 SHL DUP2 MSTORE PUSH1 0x4 ADD PUSH2 0x2002 SWAP2 SWAP1 PUSH2 0x26F7 JUMP JUMPDEST PUSH1 0x20 PUSH1 0x40 MLOAD DUP1 DUP4 SUB DUP2 DUP7 GAS STATICCALL ISZERO DUP1 ISZERO PUSH2 0x201D JUMPI RETURNDATASIZE PUSH0 DUP1 RETURNDATACOPY RETURNDATASIZE PUSH0 REVERT JUMPDEST POP POP POP POP PUSH1 0x40 MLOAD RETURNDATASIZE PUSH1 0x1F NOT PUSH1 0x1F DUP3 ADD AND DUP3 ADD DUP1 PUSH1 0x40 MSTORE POP DUP2 ADD SWAP1 PUSH2 0x2041 SWAP2 SWAP1 PUSH2 0x37EF JUMP JUMPDEST SWAP1 POP SWAP2 SWAP1 POP JUMP JUMPDEST PUSH2 0x2050 PUSH2 0x23ED JUMP JUMPDEST DUP1 PUSH1 0xC PUSH0 DUP5 PUSH20 0xFFFFFFFFFFFFFFFFFFFFFFFFFFFFFFFFFFFFFFFF AND PUSH20 0xFFFFFFFFFFFFFFFFFFFFFFFFFFFFFFFFFFFFFFFF AND DUP2 MSTORE PUSH1 0x20 ADD SWAP1 DUP2 MSTORE PUSH1 0x20 ADD PUSH0 KECCAK256 PUSH0 PUSH2 0x100 EXP DUP2 SLOAD DUP2 PUSH1 0xFF MUL NOT AND SWAP1 DUP4 ISZERO ISZERO MUL OR SWAP1 SSTORE POP POP POP JUMP JUMPDEST PUSH2 0x20B0 PUSH2 0x23ED JUMP JUMPDEST PUSH0 PUSH20 0xFFFFFFFFFFFFFFFFFFFFFFFFFFFFFFFFFFFFFFFF AND DUP2 PUSH20 0xFFFFFFFFFFFFFFFFFFFFFFFFFFFFFFFFFFFFFFFF AND SUB PUSH2 0x2120 JUMPI PUSH0 PUSH1 0x40 MLOAD PUSH32 0x1E4FBDF700000000000000000000000000000000000000000000000000000000 DUP2 MSTORE PUSH1 0x4 ADD PUSH2 0x2117 SWAP2 SWAP1 PUSH2 0x26F7 JUMP JUMPDEST PUSH1 0x40 MLOAD DUP1 SWAP2 SUB SWAP1 REVERT JUMPDEST PUSH2 0x2129 DUP2 PUSH2 0x24D5 JUMP JUMPDEST POP JUMP JUMPDEST PUSH2 0x2134 PUSH2 0x23ED JUMP JUMPDEST PUSH0 PUSH20 0xFFFFFFFFFFFFFFFFFFFFFFFFFFFFFFFFFFFFFFFF AND DUP2 PUSH20 0xFFFFFFFFFFFFFFFFFFFFFFFFFFFFFFFFFFFFFFFF AND SUB PUSH2 0x21A2 JUMPI PUSH1 0x40 MLOAD PUSH32 0x8C379A000000000000000000000000000000000000000000000000000000000 DUP2 MSTORE PUSH1 0x4 ADD PUSH2 0x2199 SWAP1 PUSH2 0x3927 JUMP JUMPDEST PUSH1 0x40 MLOAD DUP1 SWAP2 SUB SWAP1 REVERT JUMPDEST DUP1 PUSH1 0xE PUSH0 PUSH2 0x100 EXP DUP2 SLOAD DUP2 PUSH20 0xFFFFFFFFFFFFFFFFFFFFFFFFFFFFFFFFFFFFFFFF MUL NOT AND SWAP1 DUP4 PUSH20 0xFFFFFFFFFFFFFFFFFFFFFFFFFFFFFFFFFFFFFFFF AND MUL OR SWAP1 SSTORE POP PUSH32 0x60A886C8DC324AF9C6D6A1BF7369FFE7557EF345EB5717BCEFFB59BEAC879A0A DUP2 PUSH1 0x40 MLOAD PUSH2 0x2211 SWAP2 SWAP1 PUSH2 0x26F7 JUMP JUMPDEST PUSH1 0x40 MLOAD DUP1 SWAP2 SUB SWAP1 LOG1 POP JUMP JUMPDEST PUSH2 0x2224 PUSH2 0x23AC JUMP JUMPDEST PUSH1 0x5 PUSH0 SWAP1 SLOAD SWAP1 PUSH2 0x100 EXP SWAP1 DIV PUSH20 0xFFFFFFFFFFFFFFFFFFFFFFFFFFFFFFFFFFFFFFFF AND PUSH20 0xFFFFFFFFFFFFFFFFFFFFFFFFFFFFFFFFFFFFFFFF AND CALLER PUSH20 0xFFFFFFFFFFFFFFFFFFFFFFFFFFFFFFFFFFFFFFFF AND EQ PUSH2 0x22B3 JUMPI PUSH1 0x40 MLOAD PUSH32 0x8C379A000000000000000000000000000000000000000000000000000000000 DUP2 MSTORE PUSH1 0x4 ADD PUSH2 0x22AA SWAP1 PUSH2 0x38BF JUMP JUMPDEST PUSH1 0x40 MLOAD DUP1 SWAP2 SUB SWAP1 REVERT JUMPDEST PUSH1 0x2 PUSH0 DUP4 PUSH20 0xFFFFFFFFFFFFFFFFFFFFFFFFFFFFFFFFFFFFFFFF AND PUSH20 0xFFFFFFFFFFFFFFFFFFFFFFFFFFFFFFFFFFFFFFFF AND DUP2 MSTORE PUSH1 0x20 ADD SWAP1 DUP2 MSTORE PUSH1 0x20 ADD PUSH0 KECCAK256 DUP2 SWAP1 DUP1 PUSH1 0x1 DUP2 SLOAD ADD DUP1 DUP3 SSTORE DUP1 SWAP2 POP POP PUSH1 0x1 SWAP1 SUB SWAP1 PUSH0 MSTORE PUSH1 0x20 PUSH0 KECCAK256 ADD PUSH0 SWAP1 SWAP2 SWAP1 SWAP2 SWAP1 SWAP2 PUSH2 0x100 EXP DUP2 SLOAD DUP2 PUSH20 0xFFFFFFFFFFFFFFFFFFFFFFFFFFFFFFFFFFFFFFFF MUL NOT AND SWAP1 DUP4 PUSH20 0xFFFFFFFFFFFFFFFFFFFFFFFFFFFFFFFFFFFFFFFF AND MUL OR SWAP1 SSTORE POP DUP1 PUSH20 0xFFFFFFFFFFFFFFFFFFFFFFFFFFFFFFFFFFFFFFFF AND DUP3 PUSH20 0xFFFFFFFFFFFFFFFFFFFFFFFFFFFFFFFFFFFFFFFF AND PUSH32 0x4CDA7C30666CE0C5304BA2D323CDEE5F647BAAC385D8E0CB2F706641C95043AF PUSH1 0x40 MLOAD PUSH1 0x40 MLOAD DUP1 SWAP2 SUB SWAP1 LOG3 POP POP JUMP JUMPDEST PUSH2 0x23B4 PUSH2 0x140A JUMP JUMPDEST ISZERO PUSH2 0x23EB JUMPI PUSH1 0x40 MLOAD PUSH32 0xD93C066500000000000000000000000000000000000000000000000000000000 DUP2 MSTORE PUSH1 0x4 ADD PUSH1 0x40 MLOAD DUP1 SWAP2 SUB SWAP1 REVERT JUMPDEST JUMP JUMPDEST PUSH2 0x23F5 PUSH2 0x25F8 JUMP JUMPDEST PUSH20 0xFFFFFFFFFFFFFFFFFFFFFFFFFFFFFFFFFFFFFFFF AND PUSH2 0x2413 PUSH2 0x18B6 JUMP JUMPDEST PUSH20 0xFFFFFFFFFFFFFFFFFFFFFFFFFFFFFFFFFFFFFFFF AND EQ PUSH2 0x2472 JUMPI PUSH2 0x2436 PUSH2 0x25F8 JUMP JUMPDEST PUSH1 0x40 MLOAD PUSH32 0x118CDAA700000000000000000000000000000000000000000000000000000000 DUP2 MSTORE PUSH1 0x4 ADD PUSH2 0x2469 SWAP2 SWAP1 PUSH2 0x26F7 JUMP JUMPDEST PUSH1 0x40 MLOAD DUP1 SWAP2 SUB SWAP1 REVERT JUMPDEST JUMP JUMPDEST PUSH2 0x247C PUSH2 0x25FF JUMP JUMPDEST PUSH0 DUP1 PUSH1 0x14 PUSH2 0x100 EXP DUP2 SLOAD DUP2 PUSH1 0xFF MUL NOT AND SWAP1 DUP4 ISZERO ISZERO MUL OR SWAP1 SSTORE POP PUSH32 0x5DB9EE0A495BF2E6FF9C91A7834C1BA4FDD244A5E8AA4E537BD38AEAE4B073AA PUSH2 0x24BE PUSH2 0x25F8 JUMP JUMPDEST PUSH1 0x40 MLOAD PUSH2 0x24CB SWAP2 SWAP1 PUSH2 0x26F7 JUMP JUMPDEST PUSH1 0x40 MLOAD DUP1 SWAP2 SUB SWAP1 LOG1 JUMP JUMPDEST PUSH0 DUP1 PUSH0 SWAP1 SLOAD SWAP1 PUSH2 0x100 EXP SWAP1 DIV PUSH20 0xFFFFFFFFFFFFFFFFFFFFFFFFFFFFFFFFFFFFFFFF AND SWAP1 POP DUP2 PUSH0 DUP1 PUSH2 0x100 EXP DUP2 SLOAD DUP2 PUSH20 0xFFFFFFFFFFFFFFFFFFFFFFFFFFFFFFFFFFFFFFFF MUL NOT AND SWAP1 DUP4 PUSH20 0xFFFFFFFFFFFFFFFFFFFFFFFFFFFFFFFFFFFFFFFF AND MUL OR SWAP1 SSTORE POP DUP2 PUSH20 0xFFFFFFFFFFFFFFFFFFFFFFFFFFFFFFFFFFFFFFFF AND DUP2 PUSH20 0xFFFFFFFFFFFFFFFFFFFFFFFFFFFFFFFFFFFFFFFF AND PUSH32 0x8BE0079C531659141344CD1FD0A4F28419497F9722A3DAAFE3B4186F6B6457E0 PUSH1 0x40 MLOAD PUSH1 0x40 MLOAD DUP1 SWAP2 SUB SWAP1 LOG3 POP POP JUMP JUMPDEST PUSH2 0x259E PUSH2 0x23AC JUMP JUMPDEST PUSH1 0x1 PUSH0 PUSH1 0x14 PUSH2 0x100 EXP DUP2 SLOAD DUP2 PUSH1 0xFF MUL NOT AND SWAP1 DUP4 ISZERO ISZERO MUL OR SWAP1 SSTORE POP PUSH32 0x62E78CEA01BEE320CD4E420270B5EA74000D11B0C9F74754EBDBFC544B05A258 PUSH2 0x25E1 PUSH2 0x25F8 JUMP JUMPDEST PUSH1 0x40 MLOAD PUSH2 0x25EE SWAP2 SWAP1 PUSH2 0x26F7 JUMP JUMPDEST PUSH1 0x40 MLOAD DUP1 SWAP2 SUB SWAP1 LOG1 JUMP JUMPDEST PUSH0 CALLER SWAP1 POP SWAP1 JUMP JUMPDEST PUSH2 0x2607 PUSH2 0x140A JUMP JUMPDEST PUSH2 0x263D JUMPI PUSH1 0x40 MLOAD PUSH32 0x8DFC202B00000000000000000000000000000000000000000000000000000000 DUP2 MSTORE PUSH1 0x4 ADD PUSH1 0x40 MLOAD DUP1 SWAP2 SUB SWAP1 REVERT JUMPDEST JUMP JUMPDEST PUSH0 PUSH1 0x40 MLOAD SWAP1 POP SWAP1 JUMP JUMPDEST PUSH0 DUP1 REVERT JUMPDEST PUSH0 DUP1 REVERT JUMPDEST PUSH0 PUSH20 0xFFFFFFFFFFFFFFFFFFFFFFFFFFFFFFFFFFFFFFFF DUP3 AND SWAP1 POP SWAP2 SWAP1 POP JUMP JUMPDEST PUSH0 PUSH2 0x2679 DUP3 PUSH2 0x2650 JUMP JUMPDEST SWAP1 POP SWAP2 SWAP1 POP JUMP JUMPDEST PUSH2 0x2689 DUP2 PUSH2 0x266F JUMP JUMPDEST DUP2 EQ PUSH2 0x2693 JUMPI PUSH0 DUP1 REVERT JUMPDEST POP JUMP JUMPDEST PUSH0 DUP2 CALLDATALOAD SWAP1 POP PUSH2 0x26A4 DUP2 PUSH2 0x2680 JUMP JUMPDEST SWAP3 SWAP2 POP POP JUMP JUMPDEST PUSH0 DUP1 PUSH1 0x40 DUP4 DUP6 SUB SLT ISZERO PUSH2 0x26C0 JUMPI PUSH2 0x26BF PUSH2 0x2648 JUMP JUMPDEST JUMPDEST PUSH0 PUSH2 0x26CD DUP6 DUP3 DUP7 ADD PUSH2 0x2696 JUMP JUMPDEST SWAP3 POP POP PUSH1 0x20 PUSH2 0x26DE DUP6 DUP3 DUP7 ADD PUSH2 0x2696 JUMP JUMPDEST SWAP2 POP POP SWAP3 POP SWAP3 SWAP1 POP JUMP JUMPDEST PUSH2 0x26F1 DUP2 PUSH2 0x266F JUMP JUMPDEST DUP3 MSTORE POP POP JUMP JUMPDEST PUSH0 PUSH1 0x20 DUP3 ADD SWAP1 POP PUSH2 0x270A PUSH0 DUP4 ADD DUP5 PUSH2 0x26E8 JUMP JUMPDEST SWAP3 SWAP2 POP POP JUMP JUMPDEST PUSH0 DUP2 SWAP1 POP SWAP2 SWAP1 POP JUMP JUMPDEST PUSH0 PUSH2 0x2733 PUSH2 0x272E PUSH2 0x2729 DUP5 PUSH2 0x2650 JUMP JUMPDEST PUSH2 0x2710 JUMP JUMPDEST PUSH2 0x2650 JUMP JUMPDEST SWAP1 POP SWAP2 SWAP1 POP JUMP JUMPDEST PUSH0 PUSH2 0x2744 DUP3 PUSH2 0x2719 JUMP JUMPDEST SWAP1 POP SWAP2 SWAP1 POP JUMP JUMPDEST PUSH0 PUSH2 0x2755 DUP3 PUSH2 0x273A JUMP JUMPDEST SWAP1 POP SWAP2 SWAP1 POP JUMP JUMPDEST PUSH2 0x2765 DUP2 PUSH2 0x274B JUMP JUMPDEST DUP3 MSTORE POP POP JUMP JUMPDEST PUSH0 PUSH1 0x20 DUP3 ADD SWAP1 POP PUSH2 0x277E PUSH0 DUP4 ADD DUP5 PUSH2 0x275C JUMP JUMPDEST SWAP3 SWAP2 POP POP JUMP JUMPDEST PUSH0 PUSH1 0x20 DUP3 DUP5 SUB SLT ISZERO PUSH2 0x2799 JUMPI PUSH2 0x2798 PUSH2 0x2648 JUMP JUMPDEST JUMPDEST PUSH0 PUSH2 0x27A6 DUP5 DUP3 DUP6 ADD PUSH2 0x2696 JUMP JUMPDEST SWAP2 POP POP SWAP3 SWAP2 POP POP JUMP JUMPDEST PUSH0 PUSH2 0x27B9 DUP3 PUSH2 0x273A JUMP JUMPDEST SWAP1 POP SWAP2 SWAP1 POP JUMP JUMPDEST PUSH2 0x27C9 DUP2 PUSH2 0x27AF JUMP JUMPDEST DUP3 MSTORE POP POP JUMP JUMPDEST PUSH0 PUSH1 0x20 DUP3 ADD SWAP1 POP PUSH2 0x27E2 PUSH0 DUP4 ADD DUP5 PUSH2 0x27C0 JUMP JUMPDEST SWAP3 SWAP2 POP POP JUMP JUMPDEST PUSH0 PUSH2 0x27F2 DUP3 PUSH2 0x273A JUMP JUMPDEST SWAP1 POP SWAP2 SWAP1 POP JUMP JUMPDEST PUSH2 0x2802 DUP2 PUSH2 0x27E8 JUMP JUMPDEST DUP3 MSTORE POP POP JUMP JUMPDEST PUSH0 PUSH1 0x20 DUP3 ADD SWAP1 POP PUSH2 0x281B PUSH0 DUP4 ADD DUP5 PUSH2 0x27F9 JUMP JUMPDEST SWAP3 SWAP2 POP POP JUMP JUMPDEST PUSH0 DUP1 REVERT JUMPDEST PUSH0 PUSH1 0x1F NOT PUSH1 0x1F DUP4 ADD AND SWAP1 POP SWAP2 SWAP1 POP JUMP JUMPDEST PUSH32 0x4E487B7100000000000000000000000000000000000000000000000000000000 PUSH0 MSTORE PUSH1 0x41 PUSH1 0x4 MSTORE PUSH1 0x24 PUSH0 REVERT JUMPDEST PUSH2 0x286B DUP3 PUSH2 0x2825 JUMP JUMPDEST DUP2 ADD DUP2 DUP2 LT PUSH8 0xFFFFFFFFFFFFFFFF DUP3 GT OR ISZERO PUSH2 0x288A JUMPI PUSH2 0x2889 PUSH2 0x2835 JUMP JUMPDEST JUMPDEST DUP1 PUSH1 0x40 MSTORE POP POP POP JUMP JUMPDEST PUSH0 PUSH2 0x289C PUSH2 0x263F JUMP JUMPDEST SWAP1 POP PUSH2 0x28A8 DUP3 DUP3 PUSH2 0x2862 JUMP JUMPDEST SWAP2 SWAP1 POP JUMP JUMPDEST PUSH0 DUP1 REVERT JUMPDEST PUSH0 DUP1 REVERT JUMPDEST PUSH0 DUP1 REVERT JUMPDEST PUSH0 PUSH8 0xFFFFFFFFFFFFFFFF DUP3 GT ISZERO PUSH2 0x28D3 JUMPI PUSH2 0x28D2 PUSH2 0x2835 JUMP JUMPDEST JUMPDEST PUSH2 0x28DC DUP3 PUSH2 0x2825 JUMP JUMPDEST SWAP1 POP PUSH1 0x20 DUP2 ADD SWAP1 POP SWAP2 SWAP1 POP JUMP JUMPDEST DUP3 DUP2 DUP4 CALLDATACOPY PUSH0 DUP4 DUP4 ADD MSTORE POP POP POP JUMP JUMPDEST PUSH0 PUSH2 0x2909 PUSH2 0x2904 DUP5 PUSH2 0x28B9 JUMP JUMPDEST PUSH2 0x2893 JUMP JUMPDEST SWAP1 POP DUP3 DUP2 MSTORE PUSH1 0x20 DUP2 ADD DUP5 DUP5 DUP5 ADD GT ISZERO PUSH2 0x2925 JUMPI PUSH2 0x2924 PUSH2 0x28B5 JUMP JUMPDEST JUMPDEST PUSH2 0x2930 DUP5 DUP3 DUP6 PUSH2 0x28E9 JUMP JUMPDEST POP SWAP4 SWAP3 POP POP POP JUMP JUMPDEST PUSH0 DUP3 PUSH1 0x1F DUP4 ADD SLT PUSH2 0x294C JUMPI PUSH2 0x294B PUSH2 0x28B1 JUMP JUMPDEST JUMPDEST DUP2 CALLDATALOAD PUSH2 0x295C DUP5 DUP3 PUSH1 0x20 DUP7 ADD PUSH2 0x28F7 JUMP JUMPDEST SWAP2 POP POP SWAP3 SWAP2 POP POP JUMP JUMPDEST PUSH0 PUSH1 0xC0 DUP3 DUP5 SUB SLT ISZERO PUSH2 0x297A JUMPI PUSH2 0x2979 PUSH2 0x2821 JUMP JUMPDEST JUMPDEST PUSH2 0x2984 PUSH1 0xC0 PUSH2 0x2893 JUMP JUMPDEST SWAP1 POP PUSH0 DUP3 ADD CALLDATALOAD PUSH8 0xFFFFFFFFFFFFFFFF DUP2 GT ISZERO PUSH2 0x29A3 JUMPI PUSH2 0x29A2 PUSH2 0x28AD JUMP JUMPDEST JUMPDEST PUSH2 0x29AF DUP5 DUP3 DUP6 ADD PUSH2 0x2938 JUMP JUMPDEST PUSH0 DUP4 ADD MSTORE POP PUSH1 0x20 DUP3 ADD CALLDATALOAD PUSH8 0xFFFFFFFFFFFFFFFF DUP2 GT ISZERO PUSH2 0x29D2 JUMPI PUSH2 0x29D1 PUSH2 0x28AD JUMP JUMPDEST JUMPDEST PUSH2 0x29DE DUP5 DUP3 DUP6 ADD PUSH2 0x2938 JUMP JUMPDEST PUSH1 0x20 DUP4 ADD MSTORE POP PUSH1 0x40 DUP3 ADD CALLDATALOAD PUSH8 0xFFFFFFFFFFFFFFFF DUP2 GT ISZERO PUSH2 0x2A02 JUMPI PUSH2 0x2A01 PUSH2 0x28AD JUMP JUMPDEST JUMPDEST PUSH2 0x2A0E DUP5 DUP3 DUP6 ADD PUSH2 0x2938 JUMP JUMPDEST PUSH1 0x40 DUP4 ADD MSTORE POP PUSH1 0x60 DUP3 ADD CALLDATALOAD PUSH8 0xFFFFFFFFFFFFFFFF DUP2 GT ISZERO PUSH2 0x2A32 JUMPI PUSH2 0x2A31 PUSH2 0x28AD JUMP JUMPDEST JUMPDEST PUSH2 0x2A3E DUP5 DUP3 DUP6 ADD PUSH2 0x2938 JUMP JUMPDEST PUSH1 0x60 DUP4 ADD MSTORE POP PUSH1 0x80 DUP3 ADD CALLDATALOAD PUSH8 0xFFFFFFFFFFFFFFFF DUP2 GT ISZERO PUSH2 0x2A62 JUMPI PUSH2 0x2A61 PUSH2 0x28AD JUMP JUMPDEST JUMPDEST PUSH2 0x2A6E DUP5 DUP3 DUP6 ADD PUSH2 0x2938 JUMP JUMPDEST PUSH1 0x80 DUP4 ADD MSTORE POP PUSH1 0xA0 DUP3 ADD CALLDATALOAD PUSH8 0xFFFFFFFFFFFFFFFF DUP2 GT ISZERO PUSH2 0x2A92 JUMPI PUSH2 0x2A91 PUSH2 0x28AD JUMP JUMPDEST JUMPDEST PUSH2 0x2A9E DUP5 DUP3 DUP6 ADD PUSH2 0x2938 JUMP JUMPDEST PUSH1 0xA0 DUP4 ADD MSTORE POP SWAP3 SWAP2 POP POP JUMP JUMPDEST PUSH0 DUP2 SWAP1 POP SWAP2 SWAP1 POP JUMP JUMPDEST PUSH2 0x2ABC DUP2 PUSH2 0x2AAA JUMP JUMPDEST DUP2 EQ PUSH2 0x2AC6 JUMPI PUSH0 DUP1 REVERT JUMPDEST POP JUMP JUMPDEST PUSH0 DUP2 CALLDATALOAD SWAP1 POP PUSH2 0x2AD7 DUP2 PUSH2 0x2AB3 JUMP JUMPDEST SWAP3 SWAP2 POP POP JUMP JUMPDEST PUSH0 DUP1 PUSH0 PUSH1 0x60 DUP5 DUP7 SUB SLT ISZERO PUSH2 0x2AF4 JUMPI PUSH2 0x2AF3 PUSH2 0x2648 JUMP JUMPDEST JUMPDEST PUSH0 DUP5 ADD CALLDATALOAD PUSH8 0xFFFFFFFFFFFFFFFF DUP2 GT ISZERO PUSH2 0x2B11 JUMPI PUSH2 0x2B10 PUSH2 0x264C JUMP JUMPDEST JUMPDEST PUSH2 0x2B1D DUP7 DUP3 DUP8 ADD PUSH2 0x2965 JUMP JUMPDEST SWAP4 POP POP PUSH1 0x20 PUSH2 0x2B2E DUP7 DUP3 DUP8 ADD PUSH2 0x2AC9 JUMP JUMPDEST SWAP3 POP POP PUSH1 0x40 PUSH2 0x2B3F DUP7 DUP3 DUP8 ADD PUSH2 0x2696 JUMP JUMPDEST SWAP2 POP POP SWAP3 POP SWAP3 POP SWAP3 JUMP JUMPDEST PUSH0 DUP2 MLOAD SWAP1 POP SWAP2 SWAP1 POP JUMP JUMPDEST PUSH0 DUP3 DUP3 MSTORE PUSH1 0x20 DUP3 ADD SWAP1 POP SWAP3 SWAP2 POP POP JUMP JUMPDEST DUP3 DUP2 DUP4 MCOPY PUSH0 DUP4 DUP4 ADD MSTORE POP POP POP JUMP JUMPDEST PUSH0 PUSH2 0x2B7B DUP3 PUSH2 0x2B49 JUMP JUMPDEST PUSH2 0x2B85 DUP2 DUP6 PUSH2 0x2B53 JUMP JUMPDEST SWAP4 POP PUSH2 0x2B95 DUP2 DUP6 PUSH1 0x20 DUP7 ADD PUSH2 0x2B63 JUMP JUMPDEST PUSH2 0x2B9E DUP2 PUSH2 0x2825 JUMP JUMPDEST DUP5 ADD SWAP2 POP POP SWAP3 SWAP2 POP POP JUMP JUMPDEST PUSH0 PUSH1 0x20 DUP3 ADD SWAP1 POP DUP2 DUP2 SUB PUSH0 DUP4 ADD MSTORE PUSH2 0x2BC1 DUP2 DUP5 PUSH2 0x2B71 JUMP JUMPDEST SWAP1 POP SWAP3 SWAP2 POP POP JUMP JUMPDEST PUSH0 PUSH2 0x2BD3 DUP3 PUSH2 0x273A JUMP JUMPDEST SWAP1 POP SWAP2 SWAP1 POP JUMP JUMPDEST PUSH2 0x2BE3 DUP2 PUSH2 0x2BC9 JUMP JUMPDEST DUP3 MSTORE POP POP JUMP JUMPDEST PUSH0 PUSH1 0x20 DUP3 ADD SWAP1 POP PUSH2 0x2BFC PUSH0 DUP4 ADD DUP5 PUSH2 0x2BDA JUMP JUMPDEST SWAP3 SWAP2 POP POP JUMP JUMPDEST PUSH0 DUP2 MLOAD SWAP1 POP SWAP2 SWAP1 POP JUMP JUMPDEST PUSH0 DUP3 DUP3 MSTORE PUSH1 0x20 DUP3 ADD SWAP1 POP SWAP3 SWAP2 POP POP JUMP JUMPDEST PUSH0 DUP2 SWAP1 POP PUSH1 0x20 DUP3 ADD SWAP1 POP SWAP2 SWAP1 POP JUMP JUMPDEST PUSH2 0x2C34 DUP2 PUSH2 0x266F JUMP JUMPDEST DUP3 MSTORE POP POP JUMP JUMPDEST PUSH0 PUSH2 0x2C45 DUP4 DUP4 PUSH2 0x2C2B JUMP JUMPDEST PUSH1 0x20 DUP4 ADD SWAP1 POP SWAP3 SWAP2 POP POP JUMP JUMPDEST PUSH0 PUSH1 0x20 DUP3 ADD SWAP1 POP SWAP2 SWAP1 POP JUMP JUMPDEST PUSH0 PUSH2 0x2C67 DUP3 PUSH2 0x2C02 JUMP JUMPDEST PUSH2 0x2C71 DUP2 DUP6 PUSH2 0x2C0C JUMP JUMPDEST SWAP4 POP PUSH2 0x2C7C DUP4 PUSH2 0x2C1C JUMP JUMPDEST DUP1 PUSH0 JUMPDEST DUP4 DUP2 LT ISZERO PUSH2 0x2CAC JUMPI DUP2 MLOAD PUSH2 0x2C93 DUP9 DUP3 PUSH2 0x2C3A JUMP JUMPDEST SWAP8 POP PUSH2 0x2C9E DUP4 PUSH2 0x2C51 JUMP JUMPDEST SWAP3 POP POP PUSH1 0x1 DUP2 ADD SWAP1 POP PUSH2 0x2C7F JUMP JUMPDEST POP DUP6 SWAP4 POP POP POP POP SWAP3 SWAP2 POP POP JUMP JUMPDEST PUSH0 PUSH1 0x20 DUP3 ADD SWAP1 POP DUP2 DUP2 SUB PUSH0 DUP4 ADD MSTORE PUSH2 0x2CD1 DUP2 DUP5 PUSH2 0x2C5D JUMP JUMPDEST SWAP1 POP SWAP3 SWAP2 POP POP JUMP JUMPDEST PUSH0 PUSH2 0x2CE3 DUP3 PUSH2 0x273A JUMP JUMPDEST SWAP1 POP SWAP2 SWAP1 POP JUMP JUMPDEST PUSH2 0x2CF3 DUP2 PUSH2 0x2CD9 JUMP JUMPDEST DUP3 MSTORE POP POP JUMP JUMPDEST PUSH0 PUSH1 0x20 DUP3 ADD SWAP1 POP PUSH2 0x2D0C PUSH0 DUP4 ADD DUP5 PUSH2 0x2CEA JUMP JUMPDEST SWAP3 SWAP2 POP POP JUMP JUMPDEST PUSH0 DUP1 PUSH1 0x40 DUP4 DUP6 SUB SLT ISZERO PUSH2 0x2D28 JUMPI PUSH2 0x2D27 PUSH2 0x2648 JUMP JUMPDEST JUMPDEST PUSH0 PUSH2 0x2D35 DUP6 DUP3 DUP7 ADD PUSH2 0x2696 JUMP JUMPDEST SWAP3 POP POP PUSH1 0x20 PUSH2 0x2D46 DUP6 DUP3 DUP7 ADD PUSH2 0x2AC9 JUMP JUMPDEST SWAP2 POP POP SWAP3 POP SWAP3 SWAP1 POP JUMP JUMPDEST PUSH0 PUSH1 0x20 DUP3 DUP5 SUB SLT ISZERO PUSH2 0x2D65 JUMPI PUSH2 0x2D64 PUSH2 0x2648 JUMP JUMPDEST JUMPDEST PUSH0 PUSH2 0x2D72 DUP5 DUP3 DUP6 ADD PUSH2 0x2AC9 JUMP JUMPDEST SWAP2 POP POP SWAP3 SWAP2 POP POP JUMP JUMPDEST PUSH0 PUSH1 0x20 DUP3 DUP5 SUB SLT ISZERO PUSH2 0x2D90 JUMPI PUSH2 0x2D8F PUSH2 0x2648 JUMP JUMPDEST JUMPDEST PUSH0 DUP3 ADD CALLDATALOAD PUSH8 0xFFFFFFFFFFFFFFFF DUP2 GT ISZERO PUSH2 0x2DAD JUMPI PUSH2 0x2DAC PUSH2 0x264C JUMP JUMPDEST JUMPDEST PUSH2 0x2DB9 DUP5 DUP3 DUP6 ADD PUSH2 0x2938 JUMP JUMPDEST SWAP2 POP POP SWAP3 SWAP2 POP POP JUMP JUMPDEST PUSH0 DUP2 ISZERO ISZERO SWAP1 POP SWAP2 SWAP1 POP JUMP JUMPDEST PUSH2 0x2DD6 DUP2 PUSH2 0x2DC2 JUMP JUMPDEST DUP3 MSTORE POP POP JUMP JUMPDEST PUSH0 PUSH1 0x20 DUP3 ADD SWAP1 POP PUSH2 0x2DEF PUSH0 DUP4 ADD DUP5 PUSH2 0x2DCD JUMP JUMPDEST SWAP3 SWAP2 POP POP JUMP JUMPDEST PUSH0 PUSH2 0x2DFF DUP3 PUSH2 0x273A JUMP JUMPDEST SWAP1 POP SWAP2 SWAP1 POP JUMP JUMPDEST PUSH2 0x2E0F DUP2 PUSH2 0x2DF5 JUMP JUMPDEST DUP3 MSTORE POP POP JUMP JUMPDEST PUSH0 PUSH1 0x20 DUP3 ADD SWAP1 POP PUSH2 0x2E28 PUSH0 DUP4 ADD DUP5 PUSH2 0x2E06 JUMP JUMPDEST SWAP3 SWAP2 POP POP JUMP JUMPDEST PUSH2 0x2E37 DUP2 PUSH2 0x2AAA JUMP JUMPDEST DUP3 MSTORE POP POP JUMP JUMPDEST PUSH0 PUSH1 0x20 DUP3 ADD SWAP1 POP PUSH2 0x2E50 PUSH0 DUP4 ADD DUP5 PUSH2 0x2E2E JUMP JUMPDEST SWAP3 SWAP2 POP POP JUMP JUMPDEST PUSH0 PUSH2 0x2E60 DUP3 PUSH2 0x273A JUMP JUMPDEST SWAP1 POP SWAP2 SWAP1 POP JUMP JUMPDEST PUSH2 0x2E70 DUP2 PUSH2 0x2E56 JUMP JUMPDEST DUP3 MSTORE POP POP JUMP JUMPDEST PUSH0 PUSH1 0x20 DUP3 ADD SWAP1 POP PUSH2 0x2E89 PUSH0 DUP4 ADD DUP5 PUSH2 0x2E67 JUMP JUMPDEST SWAP3 SWAP2 POP POP JUMP JUMPDEST PUSH0 PUSH1 0x20 DUP3 DUP5 SUB SLT ISZERO PUSH2 0x2EA4 JUMPI PUSH2 0x2EA3 PUSH2 0x2648 JUMP JUMPDEST JUMPDEST PUSH0 DUP3 ADD CALLDATALOAD PUSH8 0xFFFFFFFFFFFFFFFF DUP2 GT ISZERO PUSH2 0x2EC1 JUMPI PUSH2 0x2EC0 PUSH2 0x264C JUMP JUMPDEST JUMPDEST PUSH2 0x2ECD DUP5 DUP3 DUP6 ADD PUSH2 0x2965 JUMP JUMPDEST SWAP2 POP POP SWAP3 SWAP2 POP POP JUMP JUMPDEST PUSH0 PUSH2 0x2EE0 DUP3 PUSH2 0x273A JUMP JUMPDEST SWAP1 POP SWAP2 SWAP1 POP JUMP JUMPDEST PUSH2 0x2EF0 DUP2 PUSH2 0x2ED6 JUMP JUMPDEST DUP3 MSTORE POP POP JUMP JUMPDEST PUSH0 PUSH1 0x20 DUP3 ADD SWAP1 POP PUSH2 0x2F09 PUSH0 DUP4 ADD DUP5 PUSH2 0x2EE7 JUMP JUMPDEST SWAP3 SWAP2 POP POP JUMP JUMPDEST PUSH2 0x2F18 DUP2 PUSH2 0x2DC2 JUMP JUMPDEST DUP2 EQ PUSH2 0x2F22 JUMPI PUSH0 DUP1 REVERT JUMPDEST POP JUMP JUMPDEST PUSH0 DUP2 CALLDATALOAD SWAP1 POP PUSH2 0x2F33 DUP2 PUSH2 0x2F0F JUMP JUMPDEST SWAP3 SWAP2 POP POP JUMP JUMPDEST PUSH0 DUP1 PUSH1 0x40 DUP4 DUP6 SUB SLT ISZERO PUSH2 0x2F4F JUMPI PUSH2 0x2F4E PUSH2 0x2648 JUMP JUMPDEST JUMPDEST PUSH0 PUSH2 0x2F5C DUP6 DUP3 DUP7 ADD PUSH2 0x2696 JUMP JUMPDEST SWAP3 POP POP PUSH1 0x20 PUSH2 0x2F6D DUP6 DUP3 DUP7 ADD PUSH2 0x2F25 JUMP JUMPDEST SWAP2 POP POP SWAP3 POP SWAP3 SWAP1 POP JUMP JUMPDEST PUSH32 0x4F6E6C7920666163746F72792063616E2073657420746F6B656E206D61707069 PUSH0 DUP3 ADD MSTORE PUSH32 0x6E67000000000000000000000000000000000000000000000000000000000000 PUSH1 0x20 DUP3 ADD MSTORE POP JUMP JUMPDEST PUSH0 PUSH2 0x2FD1 PUSH1 0x22 DUP4 PUSH2 0x2B53 JUMP JUMPDEST SWAP2 POP PUSH2 0x2FDC DUP3 PUSH2 0x2F77 JUMP JUMPDEST PUSH1 0x40 DUP3 ADD SWAP1 POP SWAP2 SWAP1 POP JUMP JUMPDEST PUSH0 PUSH1 0x20 DUP3 ADD SWAP1 POP DUP2 DUP2 SUB PUSH0 DUP4 ADD MSTORE PUSH2 0x2FFE DUP2 PUSH2 0x2FC5 JUMP JUMPDEST SWAP1 POP SWAP2 SWAP1 POP JUMP JUMPDEST PUSH32 0x496E76616C696420666163746F72792061646472657373000000000000000000 PUSH0 DUP3 ADD MSTORE POP JUMP JUMPDEST PUSH0 PUSH2 0x3039 PUSH1 0x17 DUP4 PUSH2 0x2B53 JUMP JUMPDEST SWAP2 POP PUSH2 0x3044 DUP3 PUSH2 0x3005 JUMP JUMPDEST PUSH1 0x20 DUP3 ADD SWAP1 POP SWAP2 SWAP1 POP JUMP JUMPDEST PUSH0 PUSH1 0x20 DUP3 ADD SWAP1 POP DUP2 DUP2 SUB PUSH0 DUP4 ADD MSTORE PUSH2 0x3066 DUP2 PUSH2 0x302D JUMP JUMPDEST SWAP1 POP SWAP2 SWAP1 POP JUMP JUMPDEST PUSH32 0x4F6E6C79206D65746164617461206D6F64756C652063616E2072656E64657200 PUSH0 DUP3 ADD MSTORE POP JUMP JUMPDEST PUSH0 PUSH2 0x30A1 PUSH1 0x1F DUP4 PUSH2 0x2B53 JUMP JUMPDEST SWAP2 POP PUSH2 0x30AC DUP3 PUSH2 0x306D JUMP JUMPDEST PUSH1 0x20 DUP3 ADD SWAP1 POP SWAP2 SWAP1 POP JUMP JUMPDEST PUSH0 PUSH1 0x20 DUP3 ADD SWAP1 POP DUP2 DUP2 SUB PUSH0 DUP4 ADD MSTORE PUSH2 0x30CE DUP2 PUSH2 0x3095 JUMP JUMPDEST SWAP1 POP SWAP2 SWAP1 POP JUMP JUMPDEST PUSH0 DUP3 DUP3 MSTORE PUSH1 0x20 DUP3 ADD SWAP1 POP SWAP3 SWAP2 POP POP JUMP JUMPDEST PUSH0 PUSH2 0x30EF DUP3 PUSH2 0x2B49 JUMP JUMPDEST PUSH2 0x30F9 DUP2 DUP6 PUSH2 0x30D5 JUMP JUMPDEST SWAP4 POP PUSH2 0x3109 DUP2 DUP6 PUSH1 0x20 DUP7 ADD PUSH2 0x2B63 JUMP JUMPDEST PUSH2 0x3112 DUP2 PUSH2 0x2825 JUMP JUMPDEST DUP5 ADD SWAP2 POP POP SWAP3 SWAP2 POP POP JUMP JUMPDEST PUSH0 PUSH1 0xC0 DUP4 ADD PUSH0 DUP4 ADD MLOAD DUP5 DUP3 SUB PUSH0 DUP7 ADD MSTORE PUSH2 0x3137 DUP3 DUP3 PUSH2 0x30E5 JUMP JUMPDEST SWAP2 POP POP PUSH1 0x20 DUP4 ADD MLOAD DUP5 DUP3 SUB PUSH1 0x20 DUP7 ADD MSTORE PUSH2 0x3151 DUP3 DUP3 PUSH2 0x30E5 JUMP JUMPDEST SWAP2 POP POP PUSH1 0x40 DUP4 ADD MLOAD DUP5 DUP3 SUB PUSH1 0x40 DUP7 ADD MSTORE PUSH2 0x316B DUP3 DUP3 PUSH2 0x30E5 JUMP JUMPDEST SWAP2 POP POP PUSH1 0x60 DUP4 ADD MLOAD DUP5 DUP3 SUB PUSH1 0x60 DUP7 ADD MSTORE PUSH2 0x3185 DUP3 DUP3 PUSH2 0x30E5 JUMP JUMPDEST SWAP2 POP POP PUSH1 0x80 DUP4 ADD MLOAD DUP5 DUP3 SUB PUSH1 0x80 DUP7 ADD MSTORE PUSH2 0x319F DUP3 DUP3 PUSH2 0x30E5 JUMP JUMPDEST SWAP2 POP POP PUSH1 0xA0 DUP4 ADD MLOAD DUP5 DUP3 SUB PUSH1 0xA0 DUP7 ADD MSTORE PUSH2 0x31B9 DUP3 DUP3 PUSH2 0x30E5 JUMP JUMPDEST SWAP2 POP POP DUP1 SWAP2 POP POP SWAP3 SWAP2 POP POP JUMP JUMPDEST PUSH32 0x4E487B7100000000000000000000000000000000000000000000000000000000 PUSH0 MSTORE PUSH1 0x22 PUSH1 0x4 MSTORE PUSH1 0x24 PUSH0 REVERT JUMPDEST PUSH0 PUSH1 0x2 DUP3 DIV SWAP1 POP PUSH1 0x1 DUP3 AND DUP1 PUSH2 0x320A JUMPI PUSH1 0x7F DUP3 AND SWAP2 POP JUMPDEST PUSH1 0x20 DUP3 LT DUP2 SUB PUSH2 0x321D JUMPI PUSH2 0x321C PUSH2 0x31C6 JUMP JUMPDEST JUMPDEST POP SWAP2 SWAP1 POP JUMP JUMPDEST PUSH0 DUP2 SWAP1 POP DUP2 PUSH0 MSTORE PUSH1 0x20 PUSH0 KECCAK256 SWAP1 POP SWAP2 SWAP1 POP JUMP JUMPDEST PUSH0 DUP2 SLOAD PUSH2 0x3241 DUP2 PUSH2 0x31F3 JUMP JUMPDEST PUSH2 0x324B DUP2 DUP7 PUSH2 0x2B53 JUMP JUMPDEST SWAP5 POP PUSH1 0x1 DUP3 AND PUSH0 DUP2 EQ PUSH2 0x3265 JUMPI PUSH1 0x1 DUP2 EQ PUSH2 0x327B JUMPI PUSH2 0x32AD JUMP JUMPDEST PUSH1 0xFF NOT DUP4 AND DUP7 MSTORE DUP2 ISZERO ISZERO PUSH1 0x20 MUL DUP7 ADD SWAP4 POP PUSH2 0x32AD JUMP JUMPDEST PUSH2 0x3284 DUP6 PUSH2 0x3223 JUMP JUMPDEST PUSH0 JUMPDEST DUP4 DUP2 LT ISZERO PUSH2 0x32A5 JUMPI DUP2 SLOAD DUP2 DUP10 ADD MSTORE PUSH1 0x1 DUP3 ADD SWAP2 POP PUSH1 0x20 DUP2 ADD SWAP1 POP PUSH2 0x3286 JUMP JUMPDEST DUP1 DUP9 ADD SWAP6 POP POP POP JUMPDEST POP POP POP SWAP3 SWAP2 POP POP JUMP JUMPDEST PUSH0 PUSH2 0x32C0 DUP3 PUSH2 0x273A JUMP JUMPDEST SWAP1 POP SWAP2 SWAP1 POP JUMP JUMPDEST PUSH2 0x32D0 DUP2 PUSH2 0x32B6 JUMP JUMPDEST DUP3 MSTORE POP POP JUMP JUMPDEST PUSH0 PUSH1 0xA0 DUP3 ADD SWAP1 POP DUP2 DUP2 SUB PUSH0 DUP4 ADD MSTORE PUSH2 0x32EE DUP2 DUP9 PUSH2 0x311D JUMP JUMPDEST SWAP1 POP PUSH2 0x32FD PUSH1 0x20 DUP4 ADD DUP8 PUSH2 0x2E2E JUMP JUMPDEST PUSH2 0x330A PUSH1 0x40 DUP4 ADD DUP7 PUSH2 0x26E8 JUMP JUMPDEST DUP2 DUP2 SUB PUSH1 0x60 DUP4 ADD MSTORE PUSH2 0x331C DUP2 DUP6 PUSH2 0x3235 JUMP JUMPDEST SWAP1 POP PUSH2 0x332B PUSH1 0x80 DUP4 ADD DUP5 PUSH2 0x32C7 JUMP JUMPDEST SWAP7 SWAP6 POP POP POP POP POP POP JUMP JUMPDEST PUSH0 PUSH2 0x3347 PUSH2 0x3342 DUP5 PUSH2 0x28B9 JUMP JUMPDEST PUSH2 0x2893 JUMP JUMPDEST SWAP1 POP DUP3 DUP2 MSTORE PUSH1 0x20 DUP2 ADD DUP5 DUP5 DUP5 ADD GT ISZERO PUSH2 0x3363 JUMPI PUSH2 0x3362 PUSH2 0x28B5 JUMP JUMPDEST JUMPDEST PUSH2 0x336E DUP5 DUP3 DUP6 PUSH2 0x2B63 JUMP JUMPDEST POP SWAP4 SWAP3 POP POP POP JUMP JUMPDEST PUSH0 DUP3 PUSH1 0x1F DUP4 ADD SLT PUSH2 0x338A JUMPI PUSH2 0x3389 PUSH2 0x28B1 JUMP JUMPDEST JUMPDEST DUP2 MLOAD PUSH2 0x339A DUP5 DUP3 PUSH1 0x20 DUP7 ADD PUSH2 0x3335 JUMP JUMPDEST SWAP2 POP POP SWAP3 SWAP2 POP POP JUMP JUMPDEST PUSH0 PUSH1 0x20 DUP3 DUP5 SUB SLT ISZERO PUSH2 0x33B8 JUMPI PUSH2 0x33B7 PUSH2 0x2648 JUMP JUMPDEST JUMPDEST PUSH0 DUP3 ADD MLOAD PUSH8 0xFFFFFFFFFFFFFFFF DUP2 GT ISZERO PUSH2 0x33D5 JUMPI PUSH2 0x33D4 PUSH2 0x264C JUMP JUMPDEST JUMPDEST PUSH2 0x33E1 DUP5 DUP3 DUP6 ADD PUSH2 0x3376 JUMP JUMPDEST SWAP2 POP POP SWAP3 SWAP2 POP POP JUMP JUMPDEST PUSH32 0x4E6F7420617574686F72697A6564000000000000000000000000000000000000 PUSH0 DUP3 ADD MSTORE POP JUMP JUMPDEST PUSH0 PUSH2 0x341E PUSH1 0xE DUP4 PUSH2 0x2B53 JUMP JUMPDEST SWAP2 POP PUSH2 0x3429 DUP3 PUSH2 0x33EA JUMP JUMPDEST PUSH1 0x20 DUP3 ADD SWAP1 POP SWAP2 SWAP1 POP JUMP JUMPDEST PUSH0 PUSH1 0x20 DUP3 ADD SWAP1 POP DUP2 DUP2 SUB PUSH0 DUP4 ADD MSTORE PUSH2 0x344B DUP2 PUSH2 0x3412 JUMP JUMPDEST SWAP1 POP SWAP2 SWAP1 POP JUMP JUMPDEST PUSH32 0x496E76616C696420616464726573730000000000000000000000000000000000 PUSH0 DUP3 ADD MSTORE POP JUMP JUMPDEST PUSH0 PUSH2 0x3486 PUSH1 0xF DUP4 PUSH2 0x2B53 JUMP JUMPDEST SWAP2 POP PUSH2 0x3491 DUP3 PUSH2 0x3452 JUMP JUMPDEST PUSH1 0x20 DUP3 ADD SWAP1 POP SWAP2 SWAP1 POP JUMP JUMPDEST PUSH0 PUSH1 0x20 DUP3 ADD SWAP1 POP DUP2 DUP2 SUB PUSH0 DUP4 ADD MSTORE PUSH2 0x34B3 DUP2 PUSH2 0x347A JUMP JUMPDEST SWAP1 POP SWAP2 SWAP1 POP JUMP JUMPDEST PUSH32 0x4475726174696F6E206D7573742062652067726561746572207468616E203000 PUSH0 DUP3 ADD MSTORE POP JUMP JUMPDEST PUSH0 PUSH2 0x34EE PUSH1 0x1F DUP4 PUSH2 0x2B53 JUMP JUMPDEST SWAP2 POP PUSH2 0x34F9 DUP3 PUSH2 0x34BA JUMP JUMPDEST PUSH1 0x20 DUP3 ADD SWAP1 POP SWAP2 SWAP1 POP JUMP JUMPDEST PUSH0 PUSH1 0x20 DUP3 ADD SWAP1 POP DUP2 DUP2 SUB PUSH0 DUP4 ADD MSTORE PUSH2 0x351B DUP2 PUSH2 0x34E2 JUMP JUMPDEST SWAP1 POP SWAP2 SWAP1 POP JUMP JUMPDEST PUSH0 PUSH1 0x20 PUSH1 0x1F DUP4 ADD DIV SWAP1 POP SWAP2 SWAP1 POP JUMP JUMPDEST PUSH0 DUP3 DUP3 SHL SWAP1 POP SWAP3 SWAP2 POP POP JUMP JUMPDEST PUSH0 PUSH1 0x8 DUP4 MUL PUSH2 0x356C PUSH32 0xFFFFFFFFFFFFFFFFFFFFFFFFFFFFFFFFFFFFFFFFFFFFFFFFFFFFFFFFFFFFFFFF DUP3 PUSH2 0x3531 JUMP JUMPDEST PUSH2 0x3576 DUP7 DUP4 PUSH2 0x3531 JUMP JUMPDEST SWAP6 POP DUP1 NOT DUP5 AND SWAP4 POP DUP1 DUP7 AND DUP5 OR SWAP3 POP POP POP SWAP4 SWAP3 POP POP POP JUMP JUMPDEST PUSH0 PUSH2 0x35A8 PUSH2 0x35A3 PUSH2 0x359E DUP5 PUSH2 0x2AAA JUMP JUMPDEST PUSH2 0x2710 JUMP JUMPDEST PUSH2 0x2AAA JUMP JUMPDEST SWAP1 POP SWAP2 SWAP1 POP JUMP JUMPDEST PUSH0 DUP2 SWAP1 POP SWAP2 SWAP1 POP JUMP JUMPDEST PUSH2 0x35C1 DUP4 PUSH2 0x358E JUMP JUMPDEST PUSH2 0x35D5 PUSH2 0x35CD DUP3 PUSH2 0x35AF JUMP JUMPDEST DUP5 DUP5 SLOAD PUSH2 0x353D JUMP JUMPDEST DUP3 SSTORE POP POP POP POP JUMP JUMPDEST PUSH0 SWAP1 JUMP JUMPDEST PUSH2 0x35E9 PUSH2 0x35DD JUMP JUMPDEST PUSH2 0x35F4 DUP2 DUP5 DUP5 PUSH2 0x35B8 JUMP JUMPDEST POP POP POP JUMP JUMPDEST JUMPDEST DUP2 DUP2 LT ISZERO PUSH2 0x3617 JUMPI PUSH2 0x360C PUSH0 DUP3 PUSH2 0x35E1 JUMP JUMPDEST PUSH1 0x1 DUP2 ADD SWAP1 POP PUSH2 0x35FA JUMP JUMPDEST POP POP JUMP JUMPDEST PUSH1 0x1F DUP3 GT ISZERO PUSH2 0x365C JUMPI PUSH2 0x362D DUP2 PUSH2 0x3223 JUMP JUMPDEST PUSH2 0x3636 DUP5 PUSH2 0x3522 JUMP JUMPDEST DUP2 ADD PUSH1 0x20 DUP6 LT ISZERO PUSH2 0x3645 JUMPI DUP2 SWAP1 POP JUMPDEST PUSH2 0x3659 PUSH2 0x3651 DUP6 PUSH2 0x3522 JUMP JUMPDEST DUP4 ADD DUP3 PUSH2 0x35F9 JUMP JUMPDEST POP POP JUMPDEST POP POP POP JUMP JUMPDEST PUSH0 DUP3 DUP3 SHR SWAP1 POP SWAP3 SWAP2 POP POP JUMP JUMPDEST PUSH0 PUSH2 0x367C PUSH0 NOT DUP5 PUSH1 0x8 MUL PUSH2 0x3661 JUMP JUMPDEST NOT DUP1 DUP4 AND SWAP2 POP POP SWAP3 SWAP2 POP POP JUMP JUMPDEST PUSH0 PUSH2 0x3694 DUP4 DUP4 PUSH2 0x366D JUMP JUMPDEST SWAP2 POP DUP3 PUSH1 0x2 MUL DUP3 OR SWAP1 POP SWAP3 SWAP2 POP POP JUMP JUMPDEST PUSH2 0x36AD DUP3 PUSH2 0x2B49 JUMP JUMPDEST PUSH8 0xFFFFFFFFFFFFFFFF DUP2 GT ISZERO PUSH2 0x36C6 JUMPI PUSH2 0x36C5 PUSH2 0x2835 JUMP JUMPDEST JUMPDEST PUSH2 0x36D0 DUP3 SLOAD PUSH2 0x31F3 JUMP JUMPDEST PUSH2 0x36DB DUP3 DUP3 DUP6 PUSH2 0x361B JUMP JUMPDEST PUSH0 PUSH1 0x20 SWAP1 POP PUSH1 0x1F DUP4 GT PUSH1 0x1 DUP2 EQ PUSH2 0x370C JUMPI PUSH0 DUP5 ISZERO PUSH2 0x36FA JUMPI DUP3 DUP8 ADD MLOAD SWAP1 POP JUMPDEST PUSH2 0x3704 DUP6 DUP3 PUSH2 0x3689 JUMP JUMPDEST DUP7 SSTORE POP PUSH2 0x376B JUMP JUMPDEST PUSH1 0x1F NOT DUP5 AND PUSH2 0x371A DUP7 PUSH2 0x3223 JUMP JUMPDEST PUSH0 JUMPDEST DUP3 DUP2 LT ISZERO PUSH2 0x3741 JUMPI DUP5 DUP10 ADD MLOAD DUP3 SSTORE PUSH1 0x1 DUP3 ADD SWAP2 POP PUSH1 0x20 DUP6 ADD SWAP5 POP PUSH1 0x20 DUP2 ADD SWAP1 POP PUSH2 0x371C JUMP JUMPDEST DUP7 DUP4 LT ISZERO PUSH2 0x375E JUMPI DUP5 DUP10 ADD MLOAD PUSH2 0x375A PUSH1 0x1F DUP10 AND DUP3 PUSH2 0x366D JUMP JUMPDEST DUP4 SSTORE POP JUMPDEST PUSH1 0x1 PUSH1 0x2 DUP9 MUL ADD DUP9 SSTORE POP POP POP JUMPDEST POP POP POP POP POP POP JUMP JUMPDEST PUSH32 0x496E76616C69642072656769737472794D6F64756C6520616464726573730000 PUSH0 DUP3 ADD MSTORE POP JUMP JUMPDEST PUSH0 PUSH2 0x37A7 PUSH1 0x1E DUP4 PUSH2 0x2B53 JUMP JUMPDEST SWAP2 POP PUSH2 0x37B2 DUP3 PUSH2 0x3773 JUMP JUMPDEST PUSH1 0x20 DUP3 ADD SWAP1 POP SWAP2 SWAP1 POP JUMP JUMPDEST PUSH0 PUSH1 0x20 DUP3 ADD SWAP1 POP DUP2 DUP2 SUB PUSH0 DUP4 ADD MSTORE PUSH2 0x37D4 DUP2 PUSH2 0x379B JUMP JUMPDEST SWAP1 POP SWAP2 SWAP1 POP JUMP JUMPDEST PUSH0 DUP2 MLOAD SWAP1 POP PUSH2 0x37E9 DUP2 PUSH2 0x2F0F JUMP JUMPDEST SWAP3 SWAP2 POP POP JUMP JUMPDEST PUSH0 PUSH1 0x20 DUP3 DUP5 SUB SLT ISZERO PUSH2 0x3804 JUMPI PUSH2 0x3803 PUSH2 0x2648 JUMP JUMPDEST JUMPDEST PUSH0 PUSH2 0x3811 DUP5 DUP3 DUP6 ADD PUSH2 0x37DB JUMP JUMPDEST SWAP2 POP POP SWAP3 SWAP2 POP POP JUMP JUMPDEST PUSH0 PUSH1 0x40 DUP3 ADD SWAP1 POP DUP2 DUP2 SUB PUSH0 DUP4 ADD MSTORE PUSH2 0x3832 DUP2 DUP6 PUSH2 0x311D JUMP JUMPDEST SWAP1 POP DUP2 DUP2 SUB PUSH1 0x20 DUP4 ADD MSTORE PUSH2 0x3846 DUP2 DUP5 PUSH2 0x3235 JUMP JUMPDEST SWAP1 POP SWAP4 SWAP3 POP POP POP JUMP JUMPDEST PUSH32 0x4F6E6C7920666163746F72792063616E20616464207772617070656420736F6E PUSH0 DUP3 ADD MSTORE PUSH32 0x6700000000000000000000000000000000000000000000000000000000000000 PUSH1 0x20 DUP3 ADD MSTORE POP JUMP JUMPDEST PUSH0 PUSH2 0x38A9 PUSH1 0x21 DUP4 PUSH2 0x2B53 JUMP JUMPDEST SWAP2 POP PUSH2 0x38B4 DUP3 PUSH2 0x384F JUMP JUMPDEST PUSH1 0x40 DUP3 ADD SWAP1 POP SWAP2 SWAP1 POP JUMP JUMPDEST PUSH0 PUSH1 0x20 DUP3 ADD SWAP1 POP DUP2 DUP2 SUB PUSH0 DUP4 ADD MSTORE PUSH2 0x38D6 DUP2 PUSH2 0x389D JUMP JUMPDEST SWAP1 POP SWAP2 SWAP1 POP JUMP JUMPDEST PUSH32 0x496E76616C69642072656E646572657220616464726573730000000000000000 PUSH0 DUP3 ADD MSTORE POP JUMP JUMPDEST PUSH0 PUSH2 0x3911 PUSH1 0x18 DUP4 PUSH2 0x2B53 JUMP JUMPDEST SWAP2 POP PUSH2 0x391C DUP3 PUSH2 0x38DD JUMP JUMPDEST PUSH1 0x20 DUP3 ADD SWAP1 POP SWAP2 SWAP1 POP JUMP JUMPDEST PUSH0 PUSH1 0x20 DUP3 ADD SWAP1 POP DUP2 DUP2 SUB PUSH0 DUP4 ADD MSTORE PUSH2 0x393E DUP2 PUSH2 0x3905 JUMP JUMPDEST SWAP1 POP SWAP2 SWAP1 POP JUMP INVALID LOG2 PUSH5 0x6970667358 0x22 SLT KECCAK256 0xB8 PUSH30 0xB4203F237084AAAB995781933B70A77B430869D25A37C034BB7004DE9A6D PUSH5 0x736F6C6343 STOP ADDMOD BYTE STOP CALLER "
		},
		"gasEstimates": {
			"creation": {
				"codeDepositCost": "2943000",
				"executionCost": "infinite",
				"totalCost": "infinite"
			},
			"external": {
				"authorizedContracts(address)": "2922",
				"baseURI()": "infinite",
				"distributorWalletFactory()": "infinite",
				"erc20whitelist()": "infinite",
				"getBaseURI()": "infinite",
				"getLegalContractMetadata()": "2649",
				"getMetadataModule()": "2584",
				"getOwnerWrappedSongs(address)": "infinite",
				"getRegistryModule()": "2582",
				"getStablecoinFeeReceiver()": "2582",
				"isAuthorizedContract(address)": "2959",
				"isTokenWhitelisted(address)": "infinite",
				"isValidToCreateWrappedSong(address)": "infinite",
				"isWSTokenFromProtocol(address)": "3003",
				"legalContractMetadata()": "infinite",
				"maxSaleDuration()": "2537",
				"metadataModule()": "infinite",
				"metadataRenderer()": "infinite",
				"owner()": "2582",
				"ownerWrappedSongs(address,uint256)": "infinite",
				"pause()": "infinite",
				"paused()": "2592",
				"registryModule()": "infinite",
				"removeTokenFromWhitelist(address)": "infinite",
				"renderContractURI((string,string,string,string,string,string))": "infinite",
				"renderTokenURI((string,string,string,string,string,string),uint256,address)": "infinite",
				"renounceOwnership()": "infinite",
				"setAuthorizedContract(address,bool)": "infinite",
				"setBaseURI(string)": "infinite",
				"setDistributorWalletFactory(address)": "infinite",
				"setERC20Whitelist(address)": "infinite",
				"setLegalContractMetadata(address)": "infinite",
				"setMaxSaleDuration(uint256)": "infinite",
				"setMetadataModule(address)": "infinite",
				"setMetadataRenderer(address)": "infinite",
				"setOwnerWrappedSong(address,address)": "infinite",
				"setRegistryModule(address)": "infinite",
				"setSmartAccountToWSToken(address,address)": "infinite",
				"setStablecoinFeeReceiver(address)": "infinite",
				"setWSTokenFromProtocol(address)": "27083",
				"setWhitelistingManager(address)": "infinite",
				"setWrappedSongFactory(address)": "infinite",
				"smartAccountToWSToken(address)": "infinite",
				"stablecoinFeeReceiver()": "2598",
				"transferOwnership(address)": "infinite",
				"unpause()": "infinite",
				"whitelistToken(address)": "infinite",
				"whitelistingManager()": "infinite",
				"wrappedSongFactory()": "infinite",
				"wrappedSongFactoryAddress()": "2671"
			}
		},
		"methodIdentifiers": {
			"authorizedContracts(address)": "d5b9221b",
			"baseURI()": "6c0360eb",
			"distributorWalletFactory()": "0c5d8da1",
			"erc20whitelist()": "09da4e51",
			"getBaseURI()": "714c5398",
			"getLegalContractMetadata()": "77191a6e",
			"getMetadataModule()": "088b9554",
			"getOwnerWrappedSongs(address)": "37d7d542",
			"getRegistryModule()": "ce1a52d2",
			"getStablecoinFeeReceiver()": "62f0bdde",
			"isAuthorizedContract(address)": "66d0ead3",
			"isTokenWhitelisted(address)": "b5af090f",
			"isValidToCreateWrappedSong(address)": "f140b55f",
			"isWSTokenFromProtocol(address)": "6cf563a4",
			"legalContractMetadata()": "dbd15d53",
			"maxSaleDuration()": "723ff2a2",
			"metadataModule()": "3684d100",
			"metadataRenderer()": "70319970",
			"owner()": "8da5cb5b",
			"ownerWrappedSongs(address,uint256)": "4da6840a",
			"pause()": "8456cb59",
			"paused()": "5c975abb",
			"registryModule()": "3cd7bc95",
			"removeTokenFromWhitelist(address)": "306275be",
			"renderContractURI((string,string,string,string,string,string))": "c7acd8fb",
			"renderTokenURI((string,string,string,string,string,string),uint256,address)": "2fda23b7",
			"renounceOwnership()": "715018a6",
			"setAuthorizedContract(address,bool)": "f2fa7392",
			"setBaseURI(string)": "55f804b3",
			"setDistributorWalletFactory(address)": "358d96ab",
			"setERC20Whitelist(address)": "e4829369",
			"setLegalContractMetadata(address)": "ec691a59",
			"setMaxSaleDuration(uint256)": "533761fe",
			"setMetadataModule(address)": "a4198fa2",
			"setMetadataRenderer(address)": "fd4fe8a8",
			"setOwnerWrappedSong(address,address)": "ff4884f8",
			"setRegistryModule(address)": "5fd61020",
			"setSmartAccountToWSToken(address,address)": "0008ac83",
			"setStablecoinFeeReceiver(address)": "eefeb7bc",
			"setWSTokenFromProtocol(address)": "d9ce7b95",
			"setWhitelistingManager(address)": "a951583b",
			"setWrappedSongFactory(address)": "2fb92c5a",
			"smartAccountToWSToken(address)": "0b1b745e",
			"stablecoinFeeReceiver()": "46d5397c",
			"transferOwnership(address)": "f2fde38b",
			"unpause()": "3f4ba83a",
			"whitelistToken(address)": "6247f6f2",
			"whitelistingManager()": "ac581b3a",
			"wrappedSongFactory()": "1c8370cb",
			"wrappedSongFactoryAddress()": "81b539b8"
		}
	},
	"abi": [
		{
			"inputs": [
				{
					"internalType": "address",
					"name": "_distributorWalletFactory",
					"type": "address"
				},
				{
					"internalType": "address",
					"name": "_whitelistingManager",
					"type": "address"
				},
				{
					"internalType": "address",
					"name": "_erc20whitelist",
					"type": "address"
				},
				{
					"internalType": "address",
					"name": "_metadataModule",
					"type": "address"
				},
				{
					"internalType": "address",
					"name": "_legalContractMetadata",
					"type": "address"
				}
			],
			"stateMutability": "nonpayable",
			"type": "constructor"
		},
		{
			"inputs": [],
			"name": "EnforcedPause",
			"type": "error"
		},
		{
			"inputs": [],
			"name": "ExpectedPause",
			"type": "error"
		},
		{
			"inputs": [
				{
					"internalType": "address",
					"name": "owner",
					"type": "address"
				}
			],
			"name": "OwnableInvalidOwner",
			"type": "error"
		},
		{
			"inputs": [
				{
					"internalType": "address",
					"name": "account",
					"type": "address"
				}
			],
			"name": "OwnableUnauthorizedAccount",
			"type": "error"
		},
		{
			"inputs": [],
			"name": "ReentrancyGuardReentrantCall",
			"type": "error"
		},
		{
			"anonymous": false,
			"inputs": [
				{
					"indexed": false,
					"internalType": "uint256",
					"name": "newFee",
					"type": "uint256"
				}
			],
			"name": "DistributorCreationFeeUpdated",
			"type": "event"
		},
		{
			"anonymous": false,
			"inputs": [
				{
					"indexed": false,
					"internalType": "address",
					"name": "newFactory",
					"type": "address"
				}
			],
			"name": "DistributorWalletFactoryUpdated",
			"type": "event"
		},
		{
			"anonymous": false,
			"inputs": [
				{
					"indexed": false,
					"internalType": "address",
					"name": "newWhitelist",
					"type": "address"
				}
			],
			"name": "ERC20WhitelistUpdated",
			"type": "event"
		},
		{
			"anonymous": false,
			"inputs": [
				{
					"indexed": true,
					"internalType": "address",
					"name": "wrappedSong",
					"type": "address"
				},
				{
					"indexed": false,
					"internalType": "string",
					"name": "registryType",
					"type": "string"
				},
				{
					"indexed": false,
					"internalType": "string",
					"name": "value",
					"type": "string"
				}
			],
			"name": "IdentityRegistryUpdated",
			"type": "event"
		},
		{
			"anonymous": false,
			"inputs": [
				{
					"indexed": false,
					"internalType": "address",
					"name": "newContract",
					"type": "address"
				}
			],
			"name": "LegalContractMetadataUpdated",
			"type": "event"
		},
		{
			"anonymous": false,
			"inputs": [
				{
					"indexed": false,
					"internalType": "uint256",
					"name": "newDuration",
					"type": "uint256"
				}
			],
			"name": "MaxSaleDurationUpdated",
			"type": "event"
		},
		{
			"anonymous": false,
			"inputs": [
				{
					"indexed": false,
					"internalType": "address",
					"name": "newModule",
					"type": "address"
				}
			],
			"name": "MetadataModuleUpdated",
			"type": "event"
		},
		{
			"anonymous": false,
			"inputs": [
				{
					"indexed": false,
					"internalType": "address",
					"name": "newRenderer",
					"type": "address"
				}
			],
			"name": "MetadataRendererUpdated",
			"type": "event"
		},
		{
			"anonymous": false,
			"inputs": [
				{
					"indexed": true,
					"internalType": "address",
					"name": "wrappedSong",
					"type": "address"
				},
				{
					"indexed": true,
					"internalType": "uint256",
					"name": "tokenId",
					"type": "uint256"
				},
				{
					"indexed": false,
					"internalType": "string",
					"name": "newMetadata",
					"type": "string"
				}
			],
			"name": "MetadataUpdateRequested",
			"type": "event"
		},
		{
			"anonymous": false,
			"inputs": [
				{
					"indexed": true,
					"internalType": "address",
					"name": "wrappedSong",
					"type": "address"
				},
				{
					"indexed": true,
					"internalType": "uint256",
					"name": "tokenId",
					"type": "uint256"
				},
				{
					"indexed": false,
					"internalType": "string",
					"name": "newMetadata",
					"type": "string"
				}
			],
			"name": "MetadataUpdated",
			"type": "event"
		},
		{
			"anonymous": false,
			"inputs": [
				{
					"indexed": true,
					"internalType": "address",
					"name": "owner",
					"type": "address"
				},
				{
					"indexed": true,
					"internalType": "address",
					"name": "wrappedSong",
					"type": "address"
				}
			],
			"name": "OwnerWrappedSongAdded",
			"type": "event"
		},
		{
			"anonymous": false,
			"inputs": [
				{
					"indexed": true,
					"internalType": "address",
					"name": "previousOwner",
					"type": "address"
				},
				{
					"indexed": true,
					"internalType": "address",
					"name": "newOwner",
					"type": "address"
				}
			],
			"name": "OwnershipTransferred",
			"type": "event"
		},
		{
			"anonymous": false,
			"inputs": [
				{
					"indexed": false,
					"internalType": "address",
					"name": "account",
					"type": "address"
				}
			],
			"name": "Paused",
			"type": "event"
		},
		{
			"anonymous": false,
			"inputs": [
				{
					"indexed": false,
					"internalType": "bool",
					"name": "isPaused",
					"type": "bool"
				}
			],
			"name": "Paused",
			"type": "event"
		},
		{
			"anonymous": false,
			"inputs": [
				{
					"indexed": false,
					"internalType": "bool",
					"name": "newPayInStablecoin",
					"type": "bool"
				}
			],
			"name": "PayInStablecoinUpdated",
			"type": "event"
		},
		{
			"anonymous": false,
			"inputs": [
				{
					"indexed": false,
					"internalType": "uint256",
					"name": "newFee",
					"type": "uint256"
				}
			],
			"name": "ReleaseFeeUpdated",
			"type": "event"
		},
		{
			"anonymous": false,
			"inputs": [
				{
					"indexed": false,
					"internalType": "bool",
					"name": "enabled",
					"type": "bool"
				}
			],
			"name": "ReleasesEnabledChanged",
			"type": "event"
		},
		{
			"anonymous": false,
			"inputs": [
				{
					"indexed": false,
					"internalType": "uint256",
					"name": "newDays",
					"type": "uint256"
				}
			],
			"name": "ReviewPeriodDaysUpdated",
			"type": "event"
		},
		{
			"anonymous": false,
			"inputs": [
				{
					"indexed": true,
					"internalType": "address",
					"name": "smartAccount",
					"type": "address"
				},
				{
					"indexed": true,
					"internalType": "address",
					"name": "wsToken",
					"type": "address"
				}
			],
			"name": "SmartAccountToWSTokenMapped",
			"type": "event"
		},
		{
			"anonymous": false,
			"inputs": [
				{
					"indexed": false,
					"internalType": "uint256",
					"name": "newCreationFee",
					"type": "uint256"
				},
				{
					"indexed": false,
					"internalType": "uint256",
					"name": "newReleaseFee",
					"type": "uint256"
				}
			],
			"name": "StableFeesUpdated",
			"type": "event"
		},
		{
			"anonymous": false,
			"inputs": [
				{
					"indexed": false,
					"internalType": "address",
					"name": "account",
					"type": "address"
				}
			],
			"name": "Unpaused",
			"type": "event"
		},
		{
			"anonymous": false,
			"inputs": [
				{
					"indexed": false,
					"internalType": "uint256",
					"name": "newFee",
					"type": "uint256"
				}
			],
			"name": "UpdateMetadataFeeUpdated",
			"type": "event"
		},
		{
			"anonymous": false,
			"inputs": [
				{
					"indexed": false,
					"internalType": "address",
					"name": "newManager",
					"type": "address"
				}
			],
			"name": "WhitelistingManagerUpdated",
			"type": "event"
		},
		{
			"anonymous": false,
			"inputs": [
				{
					"indexed": false,
					"internalType": "uint256",
					"name": "newPercentage",
					"type": "uint256"
				}
			],
			"name": "WithdrawalFeePercentageUpdated",
			"type": "event"
		},
		{
			"anonymous": false,
			"inputs": [
				{
					"indexed": true,
					"internalType": "address",
					"name": "wrappedSong",
					"type": "address"
				},
				{
					"indexed": false,
					"internalType": "bool",
					"name": "isAuthentic",
					"type": "bool"
				}
			],
			"name": "WrappedSongAuthenticitySet",
			"type": "event"
		},
		{
			"anonymous": false,
			"inputs": [
				{
					"indexed": false,
					"internalType": "uint256",
					"name": "newFee",
					"type": "uint256"
				}
			],
			"name": "WrappedSongCreationFeeUpdated",
			"type": "event"
		},
		{
			"inputs": [
				{
					"internalType": "address",
					"name": "",
					"type": "address"
				}
			],
			"name": "authorizedContracts",
			"outputs": [
				{
					"internalType": "bool",
					"name": "",
					"type": "bool"
				}
			],
			"stateMutability": "view",
			"type": "function"
		},
		{
			"inputs": [],
			"name": "baseURI",
			"outputs": [
				{
					"internalType": "string",
					"name": "",
					"type": "string"
				}
			],
			"stateMutability": "view",
			"type": "function"
		},
		{
			"inputs": [],
			"name": "distributorWalletFactory",
			"outputs": [
				{
					"internalType": "contract IDistributorWalletFactory",
					"name": "",
					"type": "address"
				}
			],
			"stateMutability": "view",
			"type": "function"
		},
		{
			"inputs": [],
			"name": "erc20whitelist",
			"outputs": [
				{
					"internalType": "contract IERC20Whitelist",
					"name": "",
					"type": "address"
				}
			],
			"stateMutability": "view",
			"type": "function"
		},
		{
			"inputs": [],
			"name": "getBaseURI",
			"outputs": [
				{
					"internalType": "string",
					"name": "",
					"type": "string"
				}
			],
			"stateMutability": "view",
			"type": "function"
		},
		{
			"inputs": [],
			"name": "getLegalContractMetadata",
			"outputs": [
				{
					"internalType": "address",
					"name": "",
					"type": "address"
				}
			],
			"stateMutability": "view",
			"type": "function"
		},
		{
			"inputs": [],
			"name": "getMetadataModule",
			"outputs": [
				{
					"internalType": "address",
					"name": "",
					"type": "address"
				}
			],
			"stateMutability": "view",
			"type": "function"
		},
		{
			"inputs": [
				{
					"internalType": "address",
					"name": "owner",
					"type": "address"
				}
			],
			"name": "getOwnerWrappedSongs",
			"outputs": [
				{
					"internalType": "address[]",
					"name": "",
					"type": "address[]"
				}
			],
			"stateMutability": "view",
			"type": "function"
		},
		{
			"inputs": [],
			"name": "getRegistryModule",
			"outputs": [
				{
					"internalType": "address",
					"name": "",
					"type": "address"
				}
			],
			"stateMutability": "view",
			"type": "function"
		},
		{
			"inputs": [],
			"name": "getStablecoinFeeReceiver",
			"outputs": [
				{
					"internalType": "address",
					"name": "",
					"type": "address"
				}
			],
			"stateMutability": "view",
			"type": "function"
		},
		{
			"inputs": [
				{
					"internalType": "address",
					"name": "_contractAddress",
					"type": "address"
				}
			],
			"name": "isAuthorizedContract",
			"outputs": [
				{
					"internalType": "bool",
					"name": "",
					"type": "bool"
				}
			],
			"stateMutability": "view",
			"type": "function"
		},
		{
			"inputs": [
				{
					"internalType": "address",
					"name": "token",
					"type": "address"
				}
			],
			"name": "isTokenWhitelisted",
			"outputs": [
				{
					"internalType": "bool",
					"name": "",
					"type": "bool"
				}
			],
			"stateMutability": "view",
			"type": "function"
		},
		{
			"inputs": [
				{
					"internalType": "address",
					"name": "creator",
					"type": "address"
				}
			],
			"name": "isValidToCreateWrappedSong",
			"outputs": [
				{
					"internalType": "bool",
					"name": "",
					"type": "bool"
				}
			],
			"stateMutability": "view",
			"type": "function"
		},
		{
			"inputs": [
				{
					"internalType": "address",
					"name": "wsTokenManagement",
					"type": "address"
				}
			],
			"name": "isWSTokenFromProtocol",
			"outputs": [
				{
					"internalType": "bool",
					"name": "",
					"type": "bool"
				}
			],
			"stateMutability": "view",
			"type": "function"
		},
		{
			"inputs": [],
			"name": "legalContractMetadata",
			"outputs": [
				{
					"internalType": "contract ILegalContractMetadata",
					"name": "",
					"type": "address"
				}
			],
			"stateMutability": "view",
			"type": "function"
		},
		{
			"inputs": [],
			"name": "maxSaleDuration",
			"outputs": [
				{
					"internalType": "uint256",
					"name": "",
					"type": "uint256"
				}
			],
			"stateMutability": "view",
			"type": "function"
		},
		{
			"inputs": [],
			"name": "metadataModule",
			"outputs": [
				{
					"internalType": "contract IMetadataModule",
					"name": "",
					"type": "address"
				}
			],
			"stateMutability": "view",
			"type": "function"
		},
		{
			"inputs": [],
			"name": "metadataRenderer",
			"outputs": [
				{
					"internalType": "contract IMetadataRenderer",
					"name": "",
					"type": "address"
				}
			],
			"stateMutability": "view",
			"type": "function"
		},
		{
			"inputs": [],
			"name": "owner",
			"outputs": [
				{
					"internalType": "address",
					"name": "",
					"type": "address"
				}
			],
			"stateMutability": "view",
			"type": "function"
		},
		{
			"inputs": [
				{
					"internalType": "address",
					"name": "",
					"type": "address"
				},
				{
					"internalType": "uint256",
					"name": "",
					"type": "uint256"
				}
			],
			"name": "ownerWrappedSongs",
			"outputs": [
				{
					"internalType": "address",
					"name": "",
					"type": "address"
				}
			],
			"stateMutability": "view",
			"type": "function"
		},
		{
			"inputs": [],
			"name": "pause",
			"outputs": [],
			"stateMutability": "nonpayable",
			"type": "function"
		},
		{
			"inputs": [],
			"name": "paused",
			"outputs": [
				{
					"internalType": "bool",
					"name": "",
					"type": "bool"
				}
			],
			"stateMutability": "view",
			"type": "function"
		},
		{
			"inputs": [],
			"name": "registryModule",
			"outputs": [
				{
					"internalType": "contract IRegistryModule",
					"name": "",
					"type": "address"
				}
			],
			"stateMutability": "view",
			"type": "function"
		},
		{
			"inputs": [
				{
					"internalType": "address",
					"name": "token",
					"type": "address"
				}
			],
			"name": "removeTokenFromWhitelist",
			"outputs": [],
			"stateMutability": "nonpayable",
			"type": "function"
		},
		{
			"inputs": [
				{
					"components": [
						{
							"internalType": "string",
							"name": "name",
							"type": "string"
						},
						{
							"internalType": "string",
							"name": "description",
							"type": "string"
						},
						{
							"internalType": "string",
							"name": "image",
							"type": "string"
						},
						{
							"internalType": "string",
							"name": "externalUrl",
							"type": "string"
						},
						{
							"internalType": "string",
							"name": "animationUrl",
							"type": "string"
						},
						{
							"internalType": "string",
							"name": "attributesIpfsHash",
							"type": "string"
						}
					],
					"internalType": "struct IMetadataModule.Metadata",
					"name": "metadata",
					"type": "tuple"
				}
			],
			"name": "renderContractURI",
			"outputs": [
				{
					"internalType": "string",
					"name": "",
					"type": "string"
				}
			],
			"stateMutability": "view",
			"type": "function"
		},
		{
			"inputs": [
				{
					"components": [
						{
							"internalType": "string",
							"name": "name",
							"type": "string"
						},
						{
							"internalType": "string",
							"name": "description",
							"type": "string"
						},
						{
							"internalType": "string",
							"name": "image",
							"type": "string"
						},
						{
							"internalType": "string",
							"name": "externalUrl",
							"type": "string"
						},
						{
							"internalType": "string",
							"name": "animationUrl",
							"type": "string"
						},
						{
							"internalType": "string",
							"name": "attributesIpfsHash",
							"type": "string"
						}
					],
					"internalType": "struct IMetadataModule.Metadata",
					"name": "metadata",
					"type": "tuple"
				},
				{
					"internalType": "uint256",
					"name": "tokenId",
					"type": "uint256"
				},
				{
					"internalType": "address",
					"name": "wrappedSong",
					"type": "address"
				}
			],
			"name": "renderTokenURI",
			"outputs": [
				{
					"internalType": "string",
					"name": "",
					"type": "string"
				}
			],
			"stateMutability": "view",
			"type": "function"
		},
		{
			"inputs": [],
			"name": "renounceOwnership",
			"outputs": [],
			"stateMutability": "nonpayable",
			"type": "function"
		},
		{
			"inputs": [
				{
					"internalType": "address",
					"name": "_contractAddress",
					"type": "address"
				},
				{
					"internalType": "bool",
					"name": "_isAuthorized",
					"type": "bool"
				}
			],
			"name": "setAuthorizedContract",
			"outputs": [],
			"stateMutability": "nonpayable",
			"type": "function"
		},
		{
			"inputs": [
				{
					"internalType": "string",
					"name": "_baseURI",
					"type": "string"
				}
			],
			"name": "setBaseURI",
			"outputs": [],
			"stateMutability": "nonpayable",
			"type": "function"
		},
		{
			"inputs": [
				{
					"internalType": "address",
					"name": "_newFactory",
					"type": "address"
				}
			],
			"name": "setDistributorWalletFactory",
			"outputs": [],
			"stateMutability": "nonpayable",
			"type": "function"
		},
		{
			"inputs": [
				{
					"internalType": "address",
					"name": "_erc20whitelist",
					"type": "address"
				}
			],
			"name": "setERC20Whitelist",
			"outputs": [],
			"stateMutability": "nonpayable",
			"type": "function"
		},
		{
			"inputs": [
				{
					"internalType": "address",
					"name": "_legalContractMetadata",
					"type": "address"
				}
			],
			"name": "setLegalContractMetadata",
			"outputs": [],
			"stateMutability": "nonpayable",
			"type": "function"
		},
		{
			"inputs": [
				{
					"internalType": "uint256",
					"name": "_duration",
					"type": "uint256"
				}
			],
			"name": "setMaxSaleDuration",
			"outputs": [],
			"stateMutability": "nonpayable",
			"type": "function"
		},
		{
			"inputs": [
				{
					"internalType": "address",
					"name": "_metadataModule",
					"type": "address"
				}
			],
			"name": "setMetadataModule",
			"outputs": [],
			"stateMutability": "nonpayable",
			"type": "function"
		},
		{
			"inputs": [
				{
					"internalType": "address",
					"name": "_renderer",
					"type": "address"
				}
			],
			"name": "setMetadataRenderer",
			"outputs": [],
			"stateMutability": "nonpayable",
			"type": "function"
		},
		{
			"inputs": [
				{
					"internalType": "address",
					"name": "owner",
					"type": "address"
				},
				{
					"internalType": "address",
					"name": "wrappedSong",
					"type": "address"
				}
			],
			"name": "setOwnerWrappedSong",
			"outputs": [],
			"stateMutability": "nonpayable",
			"type": "function"
		},
		{
			"inputs": [
				{
					"internalType": "address",
					"name": "_registryModule",
					"type": "address"
				}
			],
			"name": "setRegistryModule",
			"outputs": [],
			"stateMutability": "nonpayable",
			"type": "function"
		},
		{
			"inputs": [
				{
					"internalType": "address",
					"name": "smartAccount",
					"type": "address"
				},
				{
					"internalType": "address",
					"name": "wsToken",
					"type": "address"
				}
			],
			"name": "setSmartAccountToWSToken",
			"outputs": [],
			"stateMutability": "nonpayable",
			"type": "function"
		},
		{
			"inputs": [
				{
					"internalType": "address",
					"name": "_stablecoinFeeReceiver",
					"type": "address"
				}
			],
			"name": "setStablecoinFeeReceiver",
			"outputs": [],
			"stateMutability": "nonpayable",
			"type": "function"
		},
		{
			"inputs": [
				{
					"internalType": "address",
					"name": "wsTokenManagement",
					"type": "address"
				}
			],
			"name": "setWSTokenFromProtocol",
			"outputs": [],
			"stateMutability": "nonpayable",
			"type": "function"
		},
		{
			"inputs": [
				{
					"internalType": "address",
					"name": "_whitelistingManager",
					"type": "address"
				}
			],
			"name": "setWhitelistingManager",
			"outputs": [],
			"stateMutability": "nonpayable",
			"type": "function"
		},
		{
			"inputs": [
				{
					"internalType": "address",
					"name": "_wrappedSongFactory",
					"type": "address"
				}
			],
			"name": "setWrappedSongFactory",
			"outputs": [],
			"stateMutability": "nonpayable",
			"type": "function"
		},
		{
			"inputs": [
				{
					"internalType": "address",
					"name": "",
					"type": "address"
				}
			],
			"name": "smartAccountToWSToken",
			"outputs": [
				{
					"internalType": "address",
					"name": "",
					"type": "address"
				}
			],
			"stateMutability": "view",
			"type": "function"
		},
		{
			"inputs": [],
			"name": "stablecoinFeeReceiver",
			"outputs": [
				{
					"internalType": "address",
					"name": "",
					"type": "address"
				}
			],
			"stateMutability": "view",
			"type": "function"
		},
		{
			"inputs": [
				{
					"internalType": "address",
					"name": "newOwner",
					"type": "address"
				}
			],
			"name": "transferOwnership",
			"outputs": [],
			"stateMutability": "nonpayable",
			"type": "function"
		},
		{
			"inputs": [],
			"name": "unpause",
			"outputs": [],
			"stateMutability": "nonpayable",
			"type": "function"
		},
		{
			"inputs": [
				{
					"internalType": "address",
					"name": "token",
					"type": "address"
				}
			],
			"name": "whitelistToken",
			"outputs": [],
			"stateMutability": "nonpayable",
			"type": "function"
		},
		{
			"inputs": [],
			"name": "whitelistingManager",
			"outputs": [
				{
					"internalType": "contract IWhitelistingManager",
					"name": "",
					"type": "address"
				}
			],
			"stateMutability": "view",
			"type": "function"
		},
		{
			"inputs": [],
			"name": "wrappedSongFactory",
			"outputs": [
				{
					"internalType": "contract IWrappedSongFactory",
					"name": "",
					"type": "address"
				}
			],
			"stateMutability": "view",
			"type": "function"
		},
		{
			"inputs": [],
			"name": "wrappedSongFactoryAddress",
			"outputs": [
				{
					"internalType": "address",
					"name": "",
					"type": "address"
				}
			],
			"stateMutability": "view",
			"type": "function"
		},
		{
			"stateMutability": "payable",
			"type": "receive"
		}
	]
}